:020000040800F2
:1000000000500020311D0008351B00083D1B000872
:10001000451B00084D1B0008551B00080000000090
:100020000000000000000000000000005D1B000850
:10003000691B000800000000751B0008811B0008F8
:10004000791D0008791D0008791D0008791D000838
:10005000791D0008791D0008791D0008791D000828
:10006000791D0008791D0008791D00088D1B000806
:10007000791D0008791D0008791D0008791D000808
:10008000791D0008791D0008791D0008791D0008F8
:10009000791D0008791D0008791D0008791D0008E8
:1000A000791D0008791D0008791D0008791D0008D8
:1000B000791D0008791D0008791D0008791D0008C8
:1000C000791D0008791D0008791D0008791D0008B8
:1000D000791D0008791D0008791D0008791D0008A8
:1000E000791D0008791D0008791D00080000000036
:1000F0000000000000000000000000000000000000
:0C01000000000000000000005FF808F1A3
:1001100010B5054C237833B9044B13B10448AFF341
:1001200000800123237010BDD401002000000000D6
:10013000A46D000808B5034B1BB103490348AFF396
:10014000008008BD00000000D8010020A46D000858
:10015000034613F8012B002AFBD1181A0138704707
:1001600081F0004102E000BF83F0004330B54FEA68
:1001700041044FEA430594EA050F08BF90EA020FD5
:100180001FBF54EA000C55EA020C7FEA645C7FEA68
:10019000655C00F0E2804FEA5454D4EB5555B8BF8B
:1001A0006D420CDD2C4480EA020281EA030382EAFC
:1001B000000083EA010180EA020281EA0303362D8E
:1001C00088BF30BD11F0004F4FEA01314FF4801C61
:1001D0004CEA113102D0404261EB410113F0004F73
:1001E0004FEA03334CEA133302D0524263EB43032A
:1001F00094EA050F00F0A780A4F10104D5F1200EC8
:100200000DDB02FA0EFC22FA05F2801841F1000122
:1002100003FA0EF2801843FA05F359410EE0A5F1F6
:1002200020050EF1200E012A03FA0EFC28BF4CF027
:10023000020C43FA05F3C01851EBE37101F00045DD
:1002400007D54FF0000EDCF1000C7EEB00006EEBEA
:100250000101B1F5801F1BD3B1F5001F0CD3490874
:100260005FEA30004FEA3C0C04F101044FEA4452CB
:1002700012F5800F80F09A80BCF1004F08BF5FEA52
:10028000500C50F1000041EB045141EA050130BD32
:100290005FEA4C0C404141EB0101013C28BFB1F544
:1002A000801FE9D291F0000F04BF01460020B1FA8F
:1002B00081F308BF2033A3F10B03B3F120020CDA62
:1002C0000C3208DD02F1140CC2F10C0201FA0CF040
:1002D00021FA02F10CE002F11402D8BFC2F1200CA5
:1002E00001FA02F120FA0CFCDCBF41EA0C0190405B
:1002F000E41AA2BF01EB0451294330BD6FEA0404A4
:100300001F3C1CDA0C340EDC04F11404C4F120028E
:1003100020FA04F001FA02F340EA030021FA04F3A0
:1003200045EA030130BDC4F10C04C4F1200220FAF7
:1003300002F001FA04F340EA0300294630BD21FA35
:1003400004F0294630BD94F0000F83F4801306BFFB
:1003500081F480110134013D4EE77FEA645C18BFEF
:100360007FEA655C29D094EA050F08BF90EA020F86
:1003700005D054EA000C04BF1946104630BD91EA7E
:10038000030F1EBF0021002030BD5FEA545C05D181
:100390004000494128BF41F0004130BD14F58004C0
:1003A0003CBF01F5801130BD01F0004545F0FE4134
:1003B00041F470014FF0000030BD7FEA645C1ABF69
:1003C000194610467FEA655C1CBF0B46024650EAA0
:1003D000013406BF52EA033591EA030F41F40021CC
:1003E00030BD00BF90F0000F04BF0021704730B552
:1003F0004FF4806404F132044FF000054FF0000127
:1004000050E700BF90F0000F04BF0021704730B5E7
:100410004FF4806404F1320410F0004548BF4042BC
:100420004FF000013EE700BF42004FEAE2014FEA11
:1004300031014FEA02701FBF12F07F4393F07F4FEC
:1004400081F06051704732F07F4208BF704793F0EF
:100450007F4F04BF41F40021704730B54FF4607402
:1004600001F0004521F000411CE700BF50EA010205
:1004700008BF704730B54FF000050AE050EA0102AE
:1004800008BF704730B511F0004502D5404261EB1E
:1004900041014FF4806404F132045FEA915C3FF45F
:1004A000D8AE4FF003025FEADC0C18BF03325FEAFC
:1004B000DC0C18BF033202EBDC02C2F1200300FAAD
:1004C00003FC20FA02F001FA03FE40EA0E0021FAD2
:1004D00002F11444BDE600BF70B54FF0FF0C4CF4C0
:1004E000E06C1CEA11541DBF1CEA135594EA0C0F72
:1004F00095EA0C0F00F0DEF82C4481EA030621EAAD
:100500004C5123EA4C5350EA013518BF52EA0335E7
:1005100041F4801143F4801338D0A0FB02CE4FF099
:100520000005E1FB02E506F00042E0FB03E54FF0C9
:100530000006E1FB03569CF0000F18BF4EF0010EC1
:10054000A4F1FF04B6F5007F64F5407404D25FEABD
:100550004E0E6D4146EB060642EAC62141EA555170
:100560004FEAC52040EA5E504FEACE2EB4F1FD0CB2
:1005700088BFBCF5E06F1ED8BEF1004F08BF5FEA30
:10058000500E50F1000041EB045170BD06F00046E2
:1005900046EA010140EA020081EA0301B4EB5C048F
:1005A000C2BFD4EB0C0541EA045170BD41F4801187
:1005B0004FF0000E013C00F3AB8014F1360FDEBFAC
:1005C000002001F0004170BDC4F10004203C35DA88
:1005D0000C341BDC04F11404C4F1200500FA05F30B
:1005E00020FA04F001FA05F240EA020001F00042AC
:1005F00021F0004110EBD37021FA04F642EB060122
:100600005EEA430E08BF20EAD37070BDC4F10C044B
:10061000C4F1200500FA04F320FA05F001FA04F20F
:1006200040EA020001F0004110EBD37041F10001FB
:100630005EEA430E08BF20EAD37070BDC4F1200506
:1006400000FA05F24EEA020E20FA04F301FA05F26E
:1006500043EA020321FA04F001F0004121FA04F216
:1006600020EA020000EBD3705EEA430E08BF20EAE6
:10067000D37070BD94F0000F0FD101F00046400020
:1006800041EB010111F4801F08BF013CF7D041EAA2
:10069000060195F0000F18BF704703F000465200A6
:1006A00043EB030313F4801F08BF013DF7D043EA77
:1006B0000603704794EA0C0F0CEA135518BF95EA2D
:1006C0000C0F0CD050EA410618BF52EA4306D1D1B4
:1006D00081EA030101F000414FF0000070BD50EAD3
:1006E000410606BF1046194652EA430619D094EA5D
:1006F0000C0F02D150EA013613D195EA0C0F05D147
:1007000052EA03361CBF104619460AD181EA03019A
:1007100001F0004141F0FE4141F470014FF0000052
:1007200070BD41F0FE4141F4780170BD70B54FF0ED
:10073000FF0C4CF4E06C1CEA11541DBF1CEA13556D
:1007400094EA0C0F95EA0C0F00F0A7F8A4EB05044F
:1007500081EA030E52EA03354FEA013100F0888046
:100760004FEA03334FF0805545EA131343EA12630F
:100770004FEA022245EA111545EA10654FEA0026C4
:100780000EF000419D4208BF964244F1FD0404F57D
:10079000407402D25B084FEA3202B61A65EB0305D9
:1007A0005B084FEA32024FF480104FF4002CB6EB96
:1007B000020E75EB030E22BFB61A754640EA0C0016
:1007C0005B084FEA3202B6EB020E75EB030E22BF56
:1007D000B61A754640EA5C005B084FEA3202B6EB97
:1007E000020E75EB030E22BFB61A754640EA9C0056
:1007F0005B084FEA3202B6EB020E75EB030E22BF26
:10080000B61A754640EADC0055EA060E18D04FEAE3
:10081000051545EA16754FEA06164FEAC30343EA83
:1008200052734FEAC2025FEA1C1CC0D111F4801F50
:100830000BD141EA00014FF000004FF0004CB6E749
:1008400011F4801F04BF01430020B4F1FD0C88BFE8
:10085000BCF5E06F3FF6AFAEB5EB030C04BFB6EBF3
:10086000020C5FEA500C50F1000041EB045170BDE6
:100870000EF0004E4EEA113114EB5C04C2BFD4EB13
:100880000C0541EA045170BD41F480114FF0000E97
:10089000013C90E645EA060E8DE60CEA135594EA13
:1008A0000C0F08BF95EA0C0F3FF43BAF94EA0C0F16
:1008B0000AD150EA01347FF434AF95EA0C0F7FF48B
:1008C00025AF104619462CE795EA0C0F06D152EADF
:1008D00003353FF4FDAE1046194622E750EA4106C3
:1008E00018BF52EA43067FF4C5AE50EA41047FF4D4
:1008F0000DAF52EA43057FF4EBAE12E74FF0FF3C39
:1009000006E000BF4FF0010C02E000BF4FF0010C09
:100910004DF804CD4FEA410C7FEA6C5C4FEA430C82
:1009200018BF7FEA6C5C1BD001B050EA410C0CBFD1
:1009300052EA430C91EA030F02BF90EA020F002033
:10094000704710F1000F91EA030F58BF994208BF9A
:1009500090422CBFD8176FEAE37040F00100704757
:100960004FEA410C7FEA6C5C02D150EA013C07D1AE
:100970004FEA430C7FEA6C5CD6D152EA033CD3D0F9
:100980005DF8040B704700BF8446104662468C46F3
:100990001946634600E000BF01B5FFF7B7FF002826
:1009A00048BF10F1000F01BD4DF808EDFFF7F4FF4F
:1009B0000CBF012000205DF808FB00BF4DF808EDDA
:1009C000FFF7EAFF34BF012000205DF808FB00BFFD
:1009D0004DF808EDFFF7E0FF94BF012000205DF81F
:1009E00008FB00BF4DF808EDFFF7CEFF94BF0120D4
:1009F00000205DF808FB00BF4DF808EDFFF7C4FFCD
:100A000034BF012000205DF808FB00BF4FEA410C15
:100A10007FEA6C5C02D150EA013C0AD14FEA430CF8
:100A20007FEA6C5C02D152EA033C02D14FF0000035
:100A300070474FF0010070474FEA410212F5001273
:100A400015D211D56FF47873B3EB625212D94FEA15
:100A5000C12343F0004343EA505311F0004F23FAFF
:100A600002F018BF404270474FF00000704750EA54
:100A7000013005D111F0004008BF6FF00040704711
:100A80004FF00000704700BF4FEA4102B2F1E0436F
:100A900024BFB3F5001CDCF1FE5C0DD901F0004C65
:100AA0004FEAC0024CEA5070B2F1004F40EB8300B5
:100AB00008BF20F00100704711F0804F21D113F1E1
:100AC0003872BCBF01F00040704741F480114FEA1A
:100AD0005252C2F11802C2F1200C10FA0CF320FAA3
:100AE00002F018BF40F001004FEAC1234FEAD323C0
:100AF00003FA0CFC40EA0C0023FA02F34FEA43032A
:100B0000CCE77FEA625307D150EA01331EBF4FF0B2
:100B1000FE4040F44000704701F0004040F0FE40CD
:100B200040F40000704700BF80F0004002E000BFCA
:100B300081F0004142001FBF5FEA410392EA030FC8
:100B40007FEA226C7FEA236C6AD04FEA1262D2EB12
:100B50001363C1BFD218414048404140B8BF5B4217
:100B6000192B88BF704710F0004F40F4000020F0B0
:100B70007F4018BF404211F0004F41F4000121F0C6
:100B80007F4118BF494292EA030F3FD0A2F1010210
:100B900041FA03FC10EB0C00C3F1200301FA03F14E
:100BA00000F0004302D5494260EB4000B0F5000F71
:100BB00013D3B0F1807F06D340084FEA310102F130
:100BC0000102FE2A51D2B1F1004F40EBC25008BFE2
:100BD00020F0010040EA03007047490040EB0000AC
:100BE000013A28BFB0F5000FEDD2B0FA80FCACF1AD
:100BF000080CB2EB0C0200FA0CF0AABF00EBC250DA
:100C000052421843BCBFD0401843704792F0000FC7
:100C100081F4000106BF80F400000132013BB5E71A
:100C20004FEA41037FEA226C18BF7FEA236C21D090
:100C300092EA030F04D092F0000F08BF08467047F5
:100C400090EA010F1CBF0020704712F07F4F04D1C3
:100C5000400028BF40F00040704712F100723CBFD6
:100C600000F50000704700F0004343F0FE4040F400
:100C7000000070477FEA226216BF08467FEA2363BE
:100C80000146420206BF5FEA412390EA010F40F4A9
:100C9000800070474FF0000304E000BF10F00043F5
:100CA00048BF40425FEA000C08BF704743F09643DC
:100CB00001464FF000001CE050EA010208BF7047F7
:100CC0004FF000030AE000BF50EA010208BF70477E
:100CD00011F0004302D5404261EB41015FEA010C93
:100CE00002BF84460146002043F0B64308BFA3F18B
:100CF0008053A3F50003BCFA8CF2083AA3EBC2536D
:100D000010DB01FA02FC634400FA02FCC2F120028B
:100D1000BCF1004F20FA02F243EB020008BF20F0C2
:100D20000100704702F1200201FA02FCC2F1200228
:100D300050EA4C0021FA02F243EB020008BF20EA1D
:100D4000DC7070474FF0FF0C1CEAD0521EBF1CEA4B
:100D5000D15392EA0C0F93EA0C0F6FD01A4480EA39
:100D6000010C400218BF5FEA41211ED04FF0006322
:100D700043EA501043EA5111A0FB01310CF000404E
:100D8000B1F5000F3EBF490041EAD3715B0040EA74
:100D9000010062F17F02FD2A1DD8B3F1004F40EB44
:100DA000C25008BF20F00100704790F0000F0CF017
:100DB000004C08BF49024CEA502040EA51207F3ADB
:100DC000C2BFD2F1FF0340EAC250704740F40000B6
:100DD0004FF00003013A5DDC12F1190FDCBF00F0A7
:100DE00000407047C2F10002410021FA02F1C2F155
:100DF000200200FA02FC5FEA310040F1000053EAF1
:100E00004C0308BF20EADC70704792F0000F00F03E
:100E1000004C02BF400010F4000F013AF9D040EA44
:100E20000C0093F0000F01F0004C02BF490011F4D8
:100E3000000F013BF9D041EA0C018FE70CEAD153D6
:100E400092EA0C0F18BF93EA0C0F0AD030F0004C56
:100E500018BF31F0004CD8D180EA010000F000400A
:100E6000704790F0000F17BF90F0004F084691F0C8
:100E7000000F91F0004F14D092EA0C0F01D1420202
:100E80000FD193EA0C0F03D14B0218BF084608D1CB
:100E900080EA010000F0004040F0FE4040F4000015
:100EA000704740F0FE4040F4400070474FF0FF0CA8
:100EB0001CEAD0521EBF1CEAD15392EA0C0F93EAEF
:100EC0000C0F69D0A2EB030280EA010C49024FEA41
:100ED000402037D04FF0805343EA111143EA1013FA
:100EE0000CF000408B4238BF5B0042F17D024FF4B2
:100EF000000C8B4224BF5B1A40EA0C00B3EB510F8D
:100F000024BFA3EB510340EA5C00B3EB910F24BF75
:100F1000A3EB910340EA9C00B3EBD10F24BFA3EBFA
:100F2000D10340EADC001B0118BF5FEA1C1CE0D1C2
:100F3000FD2A3FF650AF8B4240EBC25008BF20F075
:100F4000010070470CF0004C4CEA50207F32C2BFC9
:100F5000D2F1FF0340EAC250704740F400004FF066
:100F60000003013A37E792F0000F00F0004C02BF97
:100F7000400010F4000F013AF9D040EA0C0093F061
:100F8000000F01F0004C02BF490011F4000F013BBB
:100F9000F9D041EA0C0195E70CEAD15392EA0C0F23
:100FA00008D142027FF47DAF93EA0C0F7FF470AF5B
:100FB000084676E793EA0C0F04D14B023FF44CAF9E
:100FC00008466EE730F0004C18BF31F0004CCAD133
:100FD00030F000427FF45CAF31F000437FF43CAF6F
:100FE0005FE700BF0000000080B584B000AF0023C1
:100FF000FB60102000F03EF8F860F868FFF7F2F9A7
:1010000015A3D3E90023FFF791FB02460B461046D8
:10101000194613A3D3E90023FFF75EFA02460B46F5
:1010200010461946FFF730FD0346BB600E49B8680D
:10103000FFF77EFD03460D491846FFF737FF0346CD
:101040000B491846FFF776FD03467B607B68184620
:101050001037BD4680BD00BF0000000000FEAF405D
:101060006666666666660A403D0AB73F9A99894099
:101070000000C84180B586B000AF786007F1080372
:1010800000221A605A609A6000237B617B68BB6013
:101090000123FB6005233B6107F108031946104853
:1010A00001F0B6F90346002B02D04FF0FF3312E0F7
:1010B0000B4800F0C1FF4FF0FF31094801F096F8EE
:1010C0000346002B03D1064801F096F978610448E5
:1010D00001F060F87B6918461837BD4680BD00BF37
:1010E000F001002080B586B000AF03460A46FB71D0
:1010F0001346BB710023FB750123BB7501237B7570
:10110000FB79032B22D801A252F823F01D1100080D
:101110002911000835110008411100081C4B3B61E2
:101120004FF48053FB8113E0194B3B614FF40053A4
:10113000FB810DE0164B3B614FF48043FB8107E0E0
:10114000134B3B614FF40043FB8101E001231AE0A4
:1011500015E0012000F074FEFB891946386901F0A2
:10116000DDFE03467B757A7DBB7D9A4203D1FB7D14
:101170000133FB7501E00023FB757B7DBB75FB7DB7
:10118000062BE6D97B7D18461837BD4680BD00BFCB
:10119000000C014090B589B000AF354B3C1D0FCB22
:1011A00084E80F000023BB7759E0BB7F032B21D8D5
:1011B00001A252F823F000BFC9110008D3110008A2
:1011C000DD110008E91100082A4BBB610123FB82F5
:1011D00015E0284BBB610223FB8210E0254BBB616D
:1011E0004FF48063FB820AE0224BBB614FF4006343
:1011F000FB8204E00023BB610023FB8200BFFB8A6B
:1012000000221946B86901F0A0FE0023FB771AE01E
:10121000BA7FFB7F11461846FFF764FF0346002B99
:101220000ED1FB8A01221946B86901F08EFEFA7FC1
:10123000BB7F920020323A4413441C3B1B7812E0DF
:10124000FB7F0133FB77FB7F032BE1D9FB8A012274
:101250001946B86901F079FEBB7F0133BB77BB7FCC
:10126000032BA2D9002318462437BD4690BD00BFEA
:10127000C06D0008000C014080B582B000AF03468D
:10128000FB7100220821414801F05FFE012210217C
:101290003E4801F05AFEFB791B11DBB203F001035B
:1012A000DBB21A464FF40071394801F04EFEFB796B
:1012B0005B11DBB203F00103DBB21A464FF480612D
:1012C000334801F042FEFB799B11DBB203F00103CE
:1012D000DBB21A464FF400612D4801F036FEFB796F
:1012E000DB09DBB21A464FF48051294801F02DFE8C
:1012F0000A2000F0A5FD00221021244801F025FE5F
:10130000142000F09DFD01221021204801F01DFE57
:10131000FB7903F00103DBB21A464FF400711C485D
:1013200001F013FEFB795B10DBB203F00103DBB2CB
:101330001A464FF48061164801F007FEFB799B10B6
:10134000DBB203F00103DBB21A464FF40061104830
:1013500001F0FBFDFB79DB10DBB203F00103DBB234
:101360001A464FF480510A4801F0EFFD0A2000F0C0
:1013700067FD00221021054801F0E7FD142000F070
:101380005FFD00BF0837BD4680BD00BF000C0140B7
:101390000008014080B582B000AF0346FB71012216
:1013A0000821414801F0D1FD012210213E4801F001
:1013B000CCFDFB791B11DBB203F00103DBB21A4653
:1013C0004FF40071394801F0C0FDFB795B11DBB2CD
:1013D00003F00103DBB21A464FF48061334801F099
:1013E000B4FDFB799B11DBB203F00103DBB21A46BB
:1013F0004FF400612D4801F0A8FDFB79DB09DBB259
:101400001A464FF48051294801F09FFD0A2000F050
:1014100017FD00221021244801F097FD142000F050
:101420000FFD01221021204801F08FFDFB7903F010
:101430000103DBB21A464FF400711C4801F085FD30
:10144000FB795B10DBB203F00103DBB21A464FF409
:101450008061164801F079FDFB799B10DBB203F047
:101460000103DBB21A464FF40061104801F06DFD34
:10147000FB79DB10DBB203F00103DBB21A464FF459
:1014800080510A4801F061FD0A2000F0D9FC0022D9
:101490001021054801F059FD142000F0D1FC00BFD7
:1014A0000837BD4680BD00BF000C01400008014068
:1014B00080B500AF322000F0C3FC3320FFF7DCFE24
:1014C0003220FFF7D9FE2820FFF7D6FE0C20FFF7C9
:1014D000D3FE0620FFF7D0FE0120FFF7CDFE02204D
:1014E00000F0AEFC00BF80BD80B582B000AF786078
:1014F00006E07B685A1C7A601B781846FFF74AFFA3
:101500007B681B78002BF4D100BF00BF0837BD46B5
:1015100080BD80B582B000AF03463960FB71FB79B6
:10152000012B03D18020FFF7A7FE05E0FB79022BFA
:1015300002D1C020FFF7A0FE3868FFF7D5FF00BF3B
:101540000837BD4680BD80B500AF0120FFF794FE8F
:10155000022000F075FC00BF80BD000080B586B0A1
:1015600000AF00F00BFC00F069F800F087F900F024
:1015700067F900F0BFF800F0FBF8FFF799FFFFF7FD
:10158000E2FF27490120FFF7C4FF26490220FFF7A9
:10159000C0FF4FF40051244801F0EFFCFFF7FAFDC3
:1015A0000346FB75FB7D002B17D0FFF7CCFF1F49CF
:1015B0000120FFF7AEFFFB7D1846FFF7EBFE4FF46F
:1015C000FA6000F03DFCFFF7BEFF15490120FFF770
:1015D000A0FF14490220FFF79CFFFFF705FD3861CB
:1015E0003869FEF721FF02460B463846104903F0E2
:1015F000A3FAFFF7A8FF0A490120FFF78AFF0D4968
:101600000220FFF786FF3B461846FFF76DFF0A48AA
:10161000FFF76AFF4FF4FA6000F012FCBEE700BF6C
:10162000D06D0008E06D000800100140E46D000876
:10163000F06D0008F86D0008006E000880B594B0E9
:1016400000AF07F1280328220021184603F0D7FA3B
:1016500007F1140300221A605A609A60DA601A6176
:101660003B1D00221A605A609A60DA600123BB6257
:101670004FF48033FB6200233B630123BB630223EF
:101680007B644FF48033BB644FF4E013FB6407F1D9
:101690002803184601F08AFC0346002B01D000F015
:1016A0008BF90F237B610223BB610023FB614FF4A5
:1016B00080633B6200237B6207F11403022118461A
:1016C00001F0F6FE0346002B01D000F075F902236D
:1016D0007B604FF40043FB603B1D184602F062F84C
:1016E0000346002B01D000F067F900BF5037BD461C
:1016F00080BD000080B584B000AF3B1D00221A60A1
:101700005A609A60184B194A1A60174B00229A6067
:10171000154B01221A73144B00221A75124B4FF409
:101720006022DA61104B00225A600F4B01221A61CD
:101730000D4800F0A9FB0346002B01D000F03CF956
:1017400010237B600123BB600523FB603B1D194612
:10175000054800F05DFE0346002B01D000F02CF997
:1017600000BF1037BD4680BDF001002000240140BD
:1017700080B58CB000AF07F1200300221A605A60D8
:101780009A60DA6007F10C0300221A605A609A60CE
:10179000DA601A613B1D00221A605A60264B274A04
:1017A0001A60254B00225A60234B00229A60224B7C
:1017B0004FF6FF72DA60204B00221A611E4B0022A6
:1017C0005A611D4B00229A611B4802F057F90346EB
:1017D000002B01D000F0F0F84FF480533B6207F18A
:1017E00020031946144802F098F90346002B01D053
:1017F00000F0E2F80023FB6000233B6107F10C03DB
:1018000019460D4802F050FA0346002B01D000F0B3
:10181000D3F800237B600023BB603B1D19460648BC
:1018200002F00EFC0346002B01D000F0C5F800BF0B
:101830003037BD4680BD00BF64020020002C01404F
:1018400080B582B000AF0C4B5B690B4A43F00103DB
:101850005361094B5B6903F001037B607B680022E5
:1018600000210B2001F03FF80B2001F058F800BFD9
:101870000837BD4680BD00BF0010024080B588B06B
:1018800000AF07F1100300221A605A609A60DA6014
:10189000454B9B69444A43F010039361424B9B695B
:1018A00003F01003FB60FB683F4B9B693E4A43F02B
:1018B000200393613C4B9B6903F02003BB60BB6832
:1018C000394B9B69384A43F004039361364B9B695B
:1018D00003F004037B607B68334B9B69324A43F01F
:1018E00008039361304B9B6903F008033B603B683E
:1018F00000224FF400512D4801F027FB002240F652
:101900001B412B4801F021FB00224FF4F0512948E4
:1019100001F01BFB4FF400533B6101237B6100236B
:10192000BB610323FB6107F1100319461F4801F057
:1019300071F940233B6102237B610223FB6107F1C4
:10194000100319461B4801F065F940F61B433B6143
:1019500001237B610023BB610323FB6107F11003BB
:101960001946134801F056F94FF470433B610023C8
:101970007B610123BB6107F1100319460C4801F09C
:1019800049F94FF4F0533B6101237B610023BB61B4
:101990000323FB6107F110031946064801F03AF9E9
:1019A00000BF2037BD4680BD00100240001001403E
:1019B000000C01400008014080B400AF72B600BFC7
:1019C00000BFFDE780B485B000AF154B9B69144A9A
:1019D00043F001039361124B9B6903F00103BB6069
:1019E000BB680F4BDB690E4A43F08053D3610C4B4D
:1019F000DB6903F080537B607B680A4B5B68FB60AC
:101A0000FB6823F0E063FB60FB6843F08063FB60EE
:101A1000044AFB68536000BF1437BD4680BC704762
:101A2000001002400000014080B588B000AF78602F
:101A300007F1100300221A605A609A60DA607B682E
:101A40001B68284A934249D1274B9B69264A43F495
:101A500000739361244B9B6903F40073FB60FB6884
:101A6000214B9B69204A43F0040393611E4B9B6901
:101A700003F00403BB60BB6803233B6103237B616A
:101A800007F110031946194801F0C4F8184B194A18
:101A90001A60174B00225A60154B00229A60144BB3
:101AA0008022DA60124B4FF480721A61104B4FF4AF
:101AB00080625A610E4B00229A610D4B0022DA615E
:101AC0000B4800F047FF0346002B01D0FFF774FFDF
:101AD0007B68074A1A62064A7B68536200BF203758
:101AE000BD4680BD002401400010024000080140B6
:101AF000200200200800024080B485B000AF78606A
:101B00007B681B68094A93420BD1094B9B69084AC1
:101B100043F400639361064B9B6903F40063FB602D
:101B2000FB6800BF1437BD4680BC7047002C0140E5
:101B30000010024080B400AF00BFFDE780B400AFEA
:101B400000BFFDE780B400AF00BFFDE780B400AF89
:101B500000BFFDE780B400AF00BFFDE780B400AF79
:101B600000BFBD4680BC704780B400AF00BFBD461B
:101B700080BC704780B400AF00BFBD4680BC7047DA
:101B800080B500AF00F040F900BF80BD80B500AF68
:101B9000024800F039FF00BF80BD00BF20020020D6
:101BA00080B400AF01231846BD4680BC704780B5A5
:101BB00082B000AF7860396003F074F803461622F3
:101BC0001A604FF0FF3318460837BD4680BD80B518
:101BD00082B000AF78604FF0FF317868FFF7E7FF21
:101BE00000BFFDE780B586B000AFF860B9607A60ED
:101BF00000237B610AE0AFF300800146BB685A1CFA
:101C0000BA60CAB21A707B6901337B617A697B68FA
:101C10009A42F0DB7B6818461837BD4680BD80B518
:101C200086B000AFF860B9607A6000237B6109E09C
:101C3000BB685A1CBA601B781846AFF300807B69FA
:101C400001337B617A697B689A42F1DB7B681846D5
:101C50001837BD4680BD80B483B000AF78604FF0C8
:101C6000FF3318460C37BD4680BC704780B483B044
:101C700000AF786039603B684FF400525A6000232F
:101C800018460C37BD4680BC704780B483B000AFA7
:101C90007860012318460C37BD4680BC704780B47D
:101CA00085B000AFF860B9607A6000231846143739
:101CB000BD4680BC7047000080B586B000AF78603C
:101CC000144A154BD31A7B617B693B61134B1B682C
:101CD000002B02D1114B124A1A60104B1A687B6814
:101CE00013443A699A4207D202F0DCFF03460C2201
:101CF0001A604FF0FF3309E0084B1B68FB60074B8D
:101D00001A687B681344054A1360FB681846183745
:101D1000BD4680BD0050002000040000AC02002041
:101D20000004002080B400AF00BFBD4680BC7047F7
:101D3000FFF7F8FF0B480C490C4A002302E0D45887
:101D4000C4500433C4188C42F9D3094A094C002307
:101D500001E013600432A242FBD302F0A9FFFFF7B7
:101D6000FDFB704700000020D4010020C071000876
:101D7000D401002000040020FEE7000080B500AF81
:101D8000084B1B68074A43F010031360032000F060
:101D90009FFD0F2000F008F8FFF714FE00231846FF
:101DA00080BD00BF0020024080B582B000AF7860E7
:101DB000124B1A68124B1B7819464FF47A73B3FB17
:101DC000F1F3B2FBF3F3184600F0B7FD0346002B26
:101DD00001D001230EE07B680F2B0AD8002279681E
:101DE0004FF0FF3000F07FFD064A7B681360002350
:101DF00000E0012318460837BD4680BD00000020E2
:101E0000080000200400002080B400AF054B1B78C0
:101E10001A46054B1B681344034A136000BFBD46B6
:101E200080BC704708000020B002002080B400AFE2
:101E3000024B1B681846BD4680BC7047B0020020AC
:101E400080B584B000AF7860FFF7F0FFB8607B68C2
:101E5000FB60FB68B3F1FF3F05D00A4B1B781A46C5
:101E6000FB681344FB6000BFFFF7E0FF0246BB685E
:101E7000D31AFA689A42F7D800BF00BF1037BD46A0
:101E800080BD00BF0800002080B586B000AF78603C
:101E90000023FB7500233B610023BB600023FB6034
:101EA0007B68002B01D10123BEE07B689B68002B7F
:101EB0007B689B6A002B09D17B680022DA627B6811
:101EC000002283F824207868FFF7AEFD786800F0E0
:101ED000F1FB0346FB757B689B6A03F01003002B44
:101EE00040F09980FB7D002B40F095807B689B6AD9
:101EF00023F4885323F0020343F002027B689A62C2
:101F00007B685A687B68DB691A437B681B7B5B00D4
:101F10001343BA681343BB607B689B68B3F5807F4B
:101F200003D07B689B68012B02D14FF4807300E0E3
:101F300000233A6913433B617B681B7D012B19D158
:101F40007B681B7B002B09D17B689B69013B5A0393
:101F50003B69134343F400633B610BE07B689B6A7E
:101F600043F020027B689A627B68DB6A43F00102DF
:101F70007B68DA627B681B685B6823F469417B6875
:101F80001B683A690A435A607B681B689A68284B49
:101F900013407A681268B9680B4393607B689B684A
:101FA000B3F5807F03D07B689B68012B04D17B68ED
:101FB0001B69013B1B05FB607B681B68DB6A23F424
:101FC00070017B681B68FA680A43DA627B681B68E9
:101FD0009A68184B1340BA689A420BD17B6800226A
:101FE000DA627B689B6A23F0030343F001027B689B
:101FF0009A6218E07B689B6A23F0120343F0100298
:102000007B689A627B68DB6A43F001027B68DA6274
:102010000123FB7507E07B689B6A43F010027B6835
:102020009A620123FB75FB7D18461837BD4680BDBB
:10203000FDF7E1FFFE0E1FFF80B584B000AF7860B2
:102040000023FB737B6893F82430012B01D102231A
:1020500098E07B68012283F82420786800F0D0FAA9
:102060000346FB73FB7B002B40F087807B689B6AF9
:1020700023F4407323F0010343F480727B689A6277
:102080007B681B68414A934205D1414B5B6803F46E
:102090007023002B15D17B689B6A23F480127B6828
:1020A0009A627B681B685B6803F48063002B26D010
:1020B0007B689B6A23F4405343F480527B689A62A6
:1020C0001DE07B689B6A43F480127B689A627B68A0
:1020D0001B682F4A934204D07B681B682B4A9342AB
:1020E0000DD12B4B5B6803F48063002B07D07B681A
:1020F0009B6A23F4405343F480527B689A627B6866
:102100009B6A03F48053002B06D07B68DB6A23F0C4
:1021100006027B68DA6202E07B680022DA627B6892
:10212000002283F824207B681B686FF002021A608B
:102130007B681B689B6803F46023B3F5602F13D1A1
:102140007B681B68114A934205D1114B5B6803F40D
:102150007023002B08D17B681B689A687B681B681A
:1021600042F4A0029A600CE07B681B689A687B6866
:102170001B6842F480129A6003E07B68002283F8B7
:102180002420FB7B18461037BD4680BD0028014047
:102190000024014080B584B000AF78600023FB7359
:1021A0007B6893F82430012B01D102231AE07B686D
:1021B000012283F82420786800F07CFA0346FB7340
:1021C000FB7B002B09D17B689B6A23F4885323F0A7
:1021D000010343F001027B689A627B68002283F866
:1021E0002420FB7B18461037BD4680BD90B587B0D4
:1021F00000AF7860396000237B610023FB6000231F
:102200003B61FFF713FE78617B681B689B6803F4F2
:102210008073002B0BD07B689B6A43F020027B68A5
:102220009A627B68002283F824200123D3E07B6834
:102230001B685B6803F48073002B31D17B681B68DB
:10224000DB6A03F47003002B2AD121E03B68B3F171
:10225000FF3F1DD03B68002B07D0FFF7E7FD02468C
:102260007B69D31A3A689A4212D27B681B681B6852
:1022700003F00203002B0BD17B689B6A43F004023E
:102280007B689A627B68002283F824200323A2E003
:102290007B681B681B6803F00203002BD6D070E03C
:1022A0004F4B1C68022001F033FB0346B4FBF3F2F2
:1022B0007B681B6819694B4B0B40002B18D17B685E
:1022C0001B68D968484B0B40002B11D17B681B68F9
:1022D0001969464B0B40002B08D17B681B68D968F5
:1022E000434B0B40002B01D1142320E029231EE097
:1022F0007B681B6819693D4B0B40002B06D17B683E
:102300001B68D9683A4B0B40002B0DD07B681B68CB
:102310001969384B0B40002B08D17B681B68D968C2
:10232000344B0B40002B01D1542300E0FC2302FB73
:1023300003F33B6121E03B68B3F1FF3F1AD03B68F8
:10234000002B07D0FFF772FD02467B69D31A3A686B
:102350009A420FD2FB683A699A420BD97B689B6A12
:1023600043F004027B689A627B68002283F8242091
:10237000032330E0FB680133FB60FB683A699A4253
:10238000D9D87B681B686FF012021A607B689B6A61
:1023900043F400727B689A627B681B689B6803F455
:1023A0006023B3F5602F15D17B681B7B002B11D107
:1023B0007B689B6A23F480727B689A627B689B6A65
:1023C00003F48053002B05D17B689B6A43F0010224
:1023D0007B689A62002318461C37BD4690BD00BF3B
:1023E000000000202449922424499200922449129A
:1023F000922449004992240080B483B000AF7860F1
:102400007B681B68DB6C18460C37BD4680BC704788
:1024100080B485B000AF786039600023FB7300237F
:10242000BB607B6893F82430012B01D10223DCE0F0
:102430007B68012283F824203B685B68062B1CD84C
:102440007B681B68596B3B685A6813469B001344B2
:10245000053B1F2202FA03F3DB4319403B6818686F
:102460003B685A6813469B001344053B00FA03F28D
:102470007B681B680A435A633CE03B685B680C2B33
:102480001CD87B681B68196B3B685A6813469B0015
:102490001344233B1F2202FA03F3DB4319403B683A
:1024A00018683B685A6813469B001344233B00FAA4
:1024B00003F27B681B680A431A631BE07B681B6896
:1024C000D96A3B685A6813469B001344413B1F225C
:1024D00002FA03F3DB4319403B6818683B685A680B
:1024E00013469B001344413B00FA03F27B681B68D0
:1024F0000A43DA623B681B68092B1CD97B681B689E
:10250000D9683B681A6813465B0013441E3B0722D8
:1025100002FA03F3DB4319403B6898683B681A688A
:1025200013465B0013441E3B00FA03F27B681B68F2
:102530000A43DA6019E07B681B6819693B681A680E
:1025400013465B001344072202FA03F3DB431940EE
:102550003B6898683B681A6813465B00134400FAAE
:1025600003F27B681B680A431A613B681B68102BE7
:1025700003D03B681B68112B32D17B681B681D4A56
:10258000934225D17B681B689B6803F40003002BF2
:1025900026D17B681B689A687B681B6842F400023E
:1025A0009A603B681B68102B1AD1134B1B68134AA7
:1025B000A2FB03239A0C13469B0013445B00BB60F1
:1025C00002E0BB68013BBB60BB68002BF9D107E0B0
:1025D0007B689B6A43F020027B689A620123FB734D
:1025E0007B68002283F82420FB7B18461437BD4605
:1025F00080BC7047002401400000002083DE1B43A4
:1026000080B584B000AF78600023FB600023BB601E
:102610007B681B689B6803F00103012B40D07B683B
:102620001B689A687B681B6842F001029A601F4B26
:102630001B681F4AA2FB03239B0CBB6002E0BB6824
:10264000013BBB60BB68002BF9D1FFF7EFFBF860E3
:102650001FE0FFF7EBFB0246FB68D31A022B18D9E9
:102660007B681B689B6803F00103012B11D07B681A
:102670009B6A43F010027B689A627B68DB6A43F0D6
:1026800001027B68DA627B68002283F82420012340
:1026900007E07B681B689B6803F00103012BD8D11E
:1026A000002318461037BD4680BD00BF0000002043
:1026B00083DE1B4380B584B000AF78600023FB60ED
:1026C0007B681B689B6803F00103012B2ED17B689C
:1026D0001B689A687B681B6822F001029A60FFF70A
:1026E000A5FBF8601BE0FFF7A1FB0246FB68D31ACD
:1026F000022B14D97B681B689B6803F00103012B34
:102700000DD17B689B6A43F010027B689A627B68FC
:10271000DB6A43F001027B68DA62012307E07B6831
:102720001B689B6803F00103012BDCD000231846D3
:102730001037BD4680BD000080B485B000AF786022
:102740007B6803F00703FB600C4BDB68BB60BA6877
:102750004FF6FF031340BB60FB681A02BB681343CC
:1027600043F0BF6343F40033BB60044ABB68D360EB
:1027700000BF1437BD4680BC704700BF00ED00E0CD
:1027800080B400AF044BDB681B0A03F00703184654
:10279000BD4680BC704700BF00ED00E080B483B050
:1027A00000AF0346FB7197F90730002B0BDBFB7979
:1027B00003F01F02064997F907305B09012000FA70
:1027C00002F241F8232000BF0C37BD4680BC7047A1
:1027D00000E100E080B483B000AF03463960FB71D4
:1027E00097F90730002B0ADB3B68DAB20C4997F9FE
:1027F00007301201D2B20B4483F800230AE03B6891
:10280000DAB20849FB7903F00F03043B1201D2B29C
:102810000B441A7600BF0C37BD4680BC704700BF22
:1028200000E100E000ED00E080B489B000AFF860A6
:10283000B9607A60FB6803F00703FB61FB69C3F1D1
:102840000703042B28BF0423BB61FB690433062B59
:1028500002D9FB69033B00E000237B614FF0FF32AC
:10286000BB6902FA03F3DA43BB681A407B699A40FA
:102870004FF0FF317B6901FA03F3D9437B680B40CA
:10288000134318462437BD4680BC704780B582B0DC
:1028900000AF78607B68013BB3F1807F01D30123F7
:1028A0000FE00A4A7B68013B53600F214FF0FF3075
:1028B000FFF790FF054B00229A60044B07221A6035
:1028C000002318460837BD4680BD00BF10E000E079
:1028D00080B582B000AF78607868FFF72DFF00BF49
:1028E0000837BD4680BD80B586B000AF0346B960ED
:1028F0007A60FB7300237B61FFF742FF78617A689F
:10290000B9687869FFF790FF024697F90F301146D2
:102910001846FFF75FFF00BF1837BD4680BD80B582
:1029200082B000AF0346FB7197F907301846FFF7F6
:1029300035FF00BF0837BD4680BD80B582B000AF0F
:1029400078607868FFF7A2FF034618460837BD464F
:1029500080BD000080B485B000AF78600023FB60CC
:102960007B68002B01D1012343E07B681B681A467A
:10297000224B1344224AA2FB03231B099A007B68C3
:102980001A647B681F4ADA637B68022283F821207D
:102990007B681B681B68FB60FB6823F47F5323F094
:1029A0003003FB607B685A687B689B681A437B68CE
:1029B000DB681A437B681B691A437B685B691A43AF
:1029C0007B689B691A437B68DB691343FA6813438E
:1029D000FB607B681B68FA681A607B6800229A6358
:1029E0007B68012283F821207B68002283F8202065
:1029F000002318461437BD4680BC7047F8FFFDBF62
:102A0000CDCCCCCC0000024080B584B000AF786063
:102A10007B68DB6B1B68FB607B681B681B68BB60AB
:102A20007B681B6C04229A40FB681340002B4FD03C
:102A3000BB6803F00403002B4AD07B681B681B684B
:102A400003F02003002B07D17B681B681A687B68A2
:102A50001B6822F004021A607B681B68664A934276
:102A600029D07B681B68654A934222D07B681B682B
:102A7000634A93421AD07B681B68624A934212D021
:102A80007B681B68604A93420AD07B681B685F4A78
:102A9000934202D14FF480030EE04FF080630BE0CD
:102AA0004FF4802308E04FF4804305E04FF4806347
:102AB00002E0402300E00423554A53607B68DB6A50
:102AC000002B00F094807B68DB6A786898478EE082
:102AD0007B681B6C02229A40FB681340002B56D087
:102AE000BB6803F00203002B51D07B681B681B6896
:102AF00003F02003002B0BD17B681B681A687B68EE
:102B00001B6822F00A021A607B68012283F82120E8
:102B10007B681B68384A934229D07B681B68374A18
:102B2000934222D07B681B68354A93421AD07B6857
:102B30001B68344A934212D07B681B68324A934226
:102B40000AD07B681B68314A934202D14FF40013CC
:102B50000EE04FF000730BE04FF4003308E04FF449
:102B6000005305E04FF4007302E0202300E002234D
:102B7000274A53607B68002283F820207B689B6A89
:102B8000002B34D07B689B6A786898472FE07B687D
:102B90001B6C08229A40FB681340002B28D0BB68AE
:102BA00003F00803002B23D07B681B681A687B683E
:102BB0001B6822F00E021A607B681A6C7B68DB6B64
:102BC000012101FA02F25A607B6801229A637B6854
:102BD000012283F821207B68002283F820207B6873
:102BE0001B6B002B04D07B681B6B7868984700BF79
:102BF00000BF1037BD4680BD080002401C000240E7
:102C00003000024044000240580002406C00024084
:102C10000000024080B48BB000AF786039600023C0
:102C20007B6200233B6269E101227B6A02FA03F3C3
:102C3000FB613B681B68FA691340BB61BA69FB69B9
:102C40009A4240F058813B685B689A4A93425ED052
:102C5000984A934275D8984A934258D0964A9342DC
:102C60006FD8964A934252D0944A934269D8944A74
:102C700093424CD0924A934263D8924A934246D0B0
:102C8000904A93425DD8122B2AD8122B59D801A210
:102C900052F823F00F2D0008E92C0008FB2C000847
:102CA0003D2D0008432D0008432D0008432D00084A
:102CB000432D0008432D0008432D0008432D000834
:102CC000432D0008432D0008432D0008432D000824
:102CD000432D0008432D0008F12C0008052D0008A5
:102CE000794A934213D02CE03B68DB683B6229E0D1
:102CF0003B68DB6804333B6224E03B68DB680833F5
:102D00003B621FE03B68DB680C333B621AE03B68C8
:102D10009B68002B02D104233B6213E03B689B6855
:102D2000012B05D108233B627B68FA691A6109E02F
:102D300008233B627B68FA695A6103E000233B6227
:102D400000E000BFBB69FF2B01D87B6801E07B6816
:102D500004337B61BB69FF2B02D87B6A9B0002E0D6
:102D60007B6A083B9B003B617B691A680F213B69CA
:102D700001FA03F3DB431A40396A3B6901FA03F3B2
:102D80001A437B691A603B685B6803F08053002B31
:102D900000F0B1804D4B9B694C4A43F001039361B5
:102DA0004A4B9B6903F00103BB60BB68484A7B6ADE
:102DB0009B08023352F82330FB607B6A03F0030365
:102DC0009B000F2202FA03F3DB43FA681340FB6017
:102DD0007B68404A934213D07B683F4A93420DD0B0
:102DE0007B683E4A934207D07B683D4A934201D1BB
:102DF000032306E0042304E0022302E0012300E0B1
:102E000000237A6A02F0030292009340FA681343A7
:102E1000FB602F497B6A9B080233FA6841F8232044
:102E20003B685B6803F48013002B06D02D4B9A6837
:102E30002C49BB6913438B6006E02A4B9A68BB6937
:102E4000DB43284913408B603B685B6803F4001345
:102E5000002B06D0234BDA682249BB691343CB60B1
:102E600006E0204BDA68BB69DB431E491340CB60A8
:102E70003B685B6803F40033002B06D0194B5A689B
:102E80001849BB6913434B6006E0164B5A68BB698F
:102E9000DB43144913404B603B685B6803F48033A9
:102EA000002B21D00F4B1A680E49BB6913430B60EE
:102EB00021E000BF0000321000003110000022109D
:102EC000000021100000121000001110001002403C
:102ED0000000014000080140000C014000100140CA
:102EE00000140140000401400B4B1A68BB69DB432E
:102EF000094913400B607B6A01337B623B681A68A7
:102F00007B6A22FA03F3002B7FF48EAE00BF00BF72
:102F10002C37BD4680BC70470004014080B485B0AA
:102F200000AF78600B467B807B689A687B88134093
:102F3000002B02D00123FB7301E00023FB73FB7B1A
:102F400018461437BD4680BC704780B483B000AFCC
:102F500078600B467B8013467B707B78002B03D018
:102F60007A887B681A6103E07B881A047B681A619F
:102F700000BF0C37BD4680BC704780B485B000AF41
:102F800078600B467B807B68DB68FB607A88FB6837
:102F900013401A04FB68D9437B880B401A437B68B3
:102FA0001A6100BF1437BD4680BC704780B586B03B
:102FB00000AF78607B68002B01D1012372E27B684F
:102FC0001B6803F00103002B00F08780924B5B68C5
:102FD00003F00C03042B0CD08F4B5B6803F00C0345
:102FE000082B12D18C4B5B6803F48033B3F5803F20
:102FF0000BD1894B1B6803F40033002B6CD07B682A
:103000005B68002B68D101234CE27B685B68B3F5F9
:10301000803F06D1804B1B687F4A43F480331360A6
:103020002EE07B685B68002B0CD17B4B1B687A4AD7
:1030300023F480331360784B1B68774A23F4802392
:1030400013601DE07B685B68B3F5A02F0CD1724B59
:103050001B68714A43F4802313606F4B1B686E4AF0
:1030600043F4803313600BE06B4B1B686A4A23F414
:1030700080331360684B1B68674A23F48023136016
:103080007B685B68002B13D0FEF7D0FE386108E048
:10309000FEF7CCFE02463B69D31A642B01D9032309
:1030A00000E25D4B1B6803F40033002BF0D014E00A
:1030B000FEF7BCFE386108E0FEF7B8FE02463B6949
:1030C000D31A642B01D90323ECE1534B1B6803F49F
:1030D0000033002BF0D100E000BF7B681B6803F0D9
:1030E0000203002B63D04C4B5B6803F00C03002BF6
:1030F0000BD0494B5B6803F00C03082B1CD1464BEB
:103100005B6803F48033002B16D1434B1B6803F03C
:103110000203002B05D07B681B69012B01D0012322
:10312000C0E13D4B1B6823F0F8027B685B69DB0064
:10313000394913430B603AE07B681B69002B20D0B0
:10314000364B01221A60FEF771FE386108E0FEF787
:103150006DFE02463B69D31A022B01D90323A1E17C
:103160002D4B1B6803F00203002BF0D02A4B1B6889
:1031700023F0F8027B685B69DB00274913430B608F
:1031800015E0264B00221A60FEF750FE386108E079
:10319000FEF74CFE02463B69D31A022B01D90323EA
:1031A00080E11D4B1B6803F00203002BF0D17B680C
:1031B0001B6803F00803002B3AD07B689B69002B47
:1031C00019D0174B01221A60FEF730FE386108E073
:1031D000FEF72CFE02463B69D31A022B01D90323CA
:1031E00060E10D4B5B6A03F00203002BF0D001207D
:1031F00000F0BAFA1CE00A4B00221A60FEF716FE35
:1032000038610FE0FEF712FE02463B69D31A022B2B
:1032100008D9032346E100BF0010024000004242EB
:1032200080044242924B5B6A03F00203002BE9D117
:103230007B681B6803F00403002B00F0A6800023CA
:10324000FB758B4BDB6903F08053002B0DD1884B52
:10325000DB69874A43F08053D361854BDB6903F018
:103260008053BB60BB680123FB75824B1B6803F472
:103270008073002B18D17F4B1B687E4A43F4807308
:103280001360FEF7D3FD386108E0FEF7CFFD02467C
:103290003B69D31A642B01D9032303E1754B1B68E7
:1032A00003F48073002BF0D07B68DB68012B06D120
:1032B0006F4B1B6A6E4A43F0010313622DE07B687B
:1032C000DB68002B0CD16A4B1B6A694A23F00103AF
:1032D0001362674B1B6A664A23F0040313621CE007
:1032E0007B68DB68052B0CD1614B1B6A604A43F09D
:1032F000040313625E4B1B6A5D4A43F001031362D1
:103300000BE05B4B1B6A5A4A23F001031362584BD4
:103310001B6A574A23F0040313627B68DB68002BA7
:1033200015D0FEF783FD38610AE0FEF77FFD024607
:103330003B69D31A41F28832934201D90323B1E0A9
:103340004B4B1B6A03F00203002BEED014E0FEF798
:103350006DFD38610AE0FEF769FD02463B69D31A4C
:1033600041F28832934201D903239BE0404B1B6A10
:1033700003F00203002BEED1FB7D012B05D13C4B6A
:10338000DB693B4A23F08053D3617B68DB69002B08
:1033900000F08780364B5B6803F00C03082B61D08C
:1033A0007B68DB69022B46D1334B00221A60FEF7A3
:1033B0003DFD386108E0FEF739FD02463B69D31A4E
:1033C000022B01D903236DE0294B1B6803F0007326
:1033D000002BF0D17B681B6AB3F5803F08D1244BEA
:1033E0005B6823F400327B689B68214913434B6080
:1033F0001F4B5B6823F474127B68196A7B685B6AF5
:103400000B431B4913434B601B4B01221A60FEF711
:103410000DFD386108E0FEF709FD02463B69D31A4D
:10342000022B01D903233DE0114B1B6803F000730D
:10343000002BF0D035E0104B00221A60FEF7F6FCAE
:10344000386108E0FEF7F2FC02463B69D31A022B12
:1034500001D9032326E0064B1B6803F00073002B01
:10346000F0D11EE07B68DB69012B07D1012319E055
:103470000010024000700040600042420B4B5B684D
:10348000FB60FB6803F480327B681B6A9A4206D1BA
:10349000FB6803F470127B685B6A9A4201D00123D7
:1034A00000E0002318461837BD4680BD00100240DA
:1034B00080B584B000AF786039607B68002B01D1A3
:1034C0000123D0E06A4B1B6803F007033A689A4275
:1034D00010D9674B1B6823F0070265493B6813430B
:1034E0000B60634B1B6803F007033A689A4201D0F4
:1034F0000123B8E07B681B6803F00203002B20D097
:103500007B681B6803F00403002B05D0594B5B68F4
:10351000584A43F4E06353607B681B6803F0080378
:10352000002B05D0534B5B68524A43F46053536001
:10353000504B5B6823F0F0027B689B684D49134356
:103540004B607B681B6803F00103002B40D07B6855
:103550005B68012B07D1474B1B6803F40033002B3A
:1035600015D101237FE07B685B68022B07D1414BBB
:103570001B6803F00073002B09D1012373E03D4B5E
:103580001B6803F00203002B01D101236BE0394BD0
:103590005B6823F003027B685B68364913434B602A
:1035A000FEF744FCF8600AE0FEF740FC0246FB68C8
:1035B000D31A41F28832934201D9032353E02D4BB1
:1035C0005B6803F00C027B685B689B009A42EBD15E
:1035D000274B1B6803F007033A689A4210D2244B2A
:1035E0001B6823F0070222493B6813430B60204B02
:1035F0001B6803F007033A689A4201D0012332E0C6
:103600007B681B6803F00403002B08D0194B5B6830
:1036100023F4E0627B68DB68164913434B607B68E8
:103620001B6803F00803002B09D0124B5B6823F4DE
:1036300060527B681B69DB000E4913434B6000F04E
:1036400021F802460B4B5B681B0903F00F030A4984
:10365000CB5C22FA03F3094A1360094B1B68184636
:10366000FEF7A2FB002318461037BD4680BD00BF01
:103670000020024000100240046E000800000020FC
:103680000400002080B487B000AF0023FB6000235B
:10369000BB6000237B6100237B6000233B611E4BEA
:1036A0005B68FB60FB6803F00C03042B02D0082B63
:1036B00003D027E0194B3B6127E0FB689B0C03F02C
:1036C0000F03174AD35C7B60FB6803F48033002B45
:1036D00010D0114B5B685B0C03F00103114AD35C03
:1036E000BB607B680D4A03FB02F2BB68B2FBF3F3DD
:1036F0007B6104E07B680C4A02FB03F37B617B691E
:103700003B6102E0054B3B6100BF3B6918461C373B
:10371000BD4680BC704700BF0010024000127A0016
:103720001C6E00082C6E000800093D0080B400AF3C
:10373000024B1B681846BD4680BC70470000002045
:1037400080B500AFFFF7F2FF0246054B5B68DB0A6E
:1037500003F007030349CB5C22FA03F3184680BD4C
:1037600000100240146E000880B485B000AF78608D
:103770000A4B1B680A4AA2FB03235B0A7A6802FB16
:1037800003F3FB6000BFFB685A1EFA60002BF9D1FF
:1037900000BF00BF1437BD4680BC7047000000204A
:1037A000D34D621080B586B000AF786000233B61D6
:1037B0000023FB607B681B6803F00103002B7DD0B6
:1037C0000023FB754F4BDB6903F08053002B0DD1B9
:1037D0004C4BDB694B4A43F08053D361494BDB6967
:1037E00003F08053BB60BB680123FB75464B1B682D
:1037F00003F48073002B18D1434B1B68424A43F4F7
:1038000080731360FEF712FB386108E0FEF70EFBD1
:1038100002463B69D31A642B01D903236DE03A4B6E
:103820001B6803F48073002BF0D0364B1B6A03F443
:103830004073FB60FB68002B2ED07B685B6803F451
:103840004073FA689A4227D02E4B1B6A23F44073C8
:10385000FB602E4B01221A602C4B00221A60294A71
:10386000FB681362FB6803F00103002B14D0FEF722
:10387000DDFA38610AE0FEF7D9FA02463B69D31A4D
:1038800041F28832934201D9032336E01D4B1B6A73
:1038900003F00203002BEED01A4B1B6A23F4407294
:1038A0007B685B68174913430B62FB7D012B05D1D5
:1038B000144BDB69134A23F08053D3617B681B6888
:1038C00003F00203002B08D00E4B5B6823F4404248
:1038D0007B689B680B4913434B607B681B6803F054
:1038E0001003002B08D0074B5B6823F480027B6831
:1038F000DB68044913434B60002318461837BD4664
:1039000080BD00BF001002400070004040044242F1
:1039100080B588B000AF786000237B610023FB6135
:1039200000233B610023FB600023BB617B68102BFD
:103930000AD07B68102B00F28A807B68012B45D06F
:103940007B68022B75D082E0464B5B68FB60454B81
:103950001B6803F08073002B7BD0FB689B0C03F08B
:103960000F03414AD35C3B61FB6803F48033002BB7
:1039700015D03C4B5B685B0C03F001033B4AD35C06
:103980007B61FB6803F48033002B0DD0384A7B69E0
:10399000B2FBF3F23B6902FB03F3FB6104E03B691A
:1039A000344A02FB03F3FB612E4B5B6803F4800394
:1039B000B3F5800F02D1FB69BB614AE0FB695B0094
:1039C0002D4AA2FB03235B08BB6142E0254B1B6A27
:1039D000FB60FB6803F44073B3F5807F08D1FB689C
:1039E00003F00203002B03D04FF40043BB611FE040
:1039F000FB6803F44073B3F5007F09D1194B5B6A90
:103A000003F00203002B03D049F64043BB610FE0F3
:103A1000FB6803F44073B3F5407F1CD1114B1B6866
:103A200003F40033002B16D04FF22443BB6112E0A5
:103A300011E0FFF785FE02460A4B5B689B0B03F023
:103A4000030301335B00B2FBF3F3BB6104E000BF8F
:103A500002E000BF00E000BFBB6918462037BD464A
:103A600080BD00BF00100240306E0008406E0008AC
:103A700000127A0000093D00ABAAAAAA80B582B064
:103A800000AF78607B68002B01D1012341E07B68A7
:103A900093F83D30DBB2002B06D17B68002283F81F
:103AA0003C207868FEF728F87B68022283F83D20E6
:103AB0007B681A687B6804331946104600F036F9B3
:103AC0007B68012283F846207B68012283F83E2030
:103AD0007B68012283F83F207B68012283F8402025
:103AE0007B68012283F841207B68012283F8422011
:103AF0007B68012283F843207B68012283F84420FD
:103B00007B68012283F845207B68012283F83D20F1
:103B1000002318460837BD4680BD80B584B000AF8D
:103B2000786039600023FB737B6893F83C30012B8D
:103B300001D10223B4E07B68012283F83C207B683A
:103B4000022283F83D207B681B689B68BB60BB68D2
:103B500023F07703BB60BB6823F47F43BB607B68C3
:103B60001B68BA689A603B681B68B3F5005F3ED07B
:103B7000B3F5005F00F28780B3F5805F00F08680C8
:103B8000B3F5805F7FD8702B1AD0702B7BD8602B59
:103B900050D0602B77D8502B3CD0502B73D8402B73
:103BA00058D0402B6FD8302B64D0302B6BD8202BC3
:103BB00060D0202B67D8002B5CD0102B5AD062E04D
:103BC0007B6818683B6899683B685A683B68DB68A3
:103BD00000F016FA7B681B689B68BB60BB6843F00B
:103BE0007703BB607B681B68BA689A604FE07B68AC
:103BF00018683B6899683B685A683B68DB6800F066
:103C0000FFF97B681B689A687B681B6842F48042F6
:103C10009A603CE07B6818683B6859683B68DB68E1
:103C20001A4600F076F97B681B685021184600F0B0
:103C3000CDF92CE07B6818683B6859683B68DB6805
:103C40001A4600F094F97B681B686021184600F062
:103C5000BDF91CE07B6818683B6859683B68DB6805
:103C60001A4600F056F97B681B684021184600F0A0
:103C7000ADF90CE07B681A683B681B681946104672
:103C800000F0A4F903E00123FB7300E000BF7B68B0
:103C9000012283F83D207B68002283F83C20FB7BD7
:103CA00018461037BD4680BD80B582B000AF786041
:103CB00039607B6893F83C30012B01D1022331E05D
:103CC0007B68012283F83C207B68022283F83D2038
:103CD0003968786800F08CF80346002B09D07B68BF
:103CE000012283F83D207B68002283F83C200123D9
:103CF00018E07B681B68DA687B681B6822F040026A
:103D0000DA607B681B68DA687B681B6822F4804293
:103D1000DA607B68012283F83D207B68002283F80B
:103D20003C20002318460837BD4680BD80B485B0CE
:103D300000AF786039607B681B68FB607B68294A4C
:103D400093420BD07B68B3F1804F07D07B68264A43
:103D5000934203D07B68254A934208D1FB6823F045
:103D60007003FB603B685B68FA681343FB607B6829
:103D70001C4A93420BD07B68B3F1804F07D07B681D
:103D8000194A934203D07B68184A934208D1FB68D2
:103D900023F44073FB603B68DB68FA681343FB6005
:103DA000FB6823F080023B685B691343FB607B6820
:103DB000FA681A603B689A687B68DA623B681A683E
:103DC0007B689A627B68074A934203D13B681A6911
:103DD0007B681A637B6801225A6100BF1437BD46B5
:103DE00080BC7047002C01400004004000080040E7
:103DF00080B586B000AF786039600023FB757B68C2
:103E00001B689B683B613B6923F070033B613B6827
:103E10005B683A6913433B613B6923F007033B61ED
:103E20003B681B683A6913433B617B681B683A69CE
:103E30009A603B685B68702B1AD0702B60D8602B3F
:103E400054D0602B5CD8502B46D0502B58D8402BE8
:103E500019D0402B54D8302B55D0302B50D8202B94
:103E600051D0202B4CD8002B4DD0102B4BD047E0FD
:103E70007B6818683B68D9683B689A683B681B692F
:103E800000F0BEF840E03B681B68052B01D1012320
:103E90003BE07B681B681B6AFB607B681B681A6AD7
:103EA0007B681B6822F001021A627B681B689B69B1
:103EB000BB60BB6823F0F003BB603B681B691B0160
:103EC000BA681343BB607B681B68BA689A617B68F9
:103ED0001B68FA681A6217E07B6818683B68996883
:103EE0003B681B691A4600F014F80DE07B681868FF
:103EF0003B6899683B681B691A4600F038F803E094
:103F00000123FB7500E000BFFB7D18461837BD4656
:103F100080BD80B487B000AFF860B9607A60FB689C
:103F20001B6A7B61FB681B6A23F00102FB681A6253
:103F3000FB689B693B613B6923F0F0033B617B6855
:103F40001B013A6913433B617B6923F00A037B61E0
:103F50007A69BB6813437B61FB683A699A61FB68C5
:103F60007A691A6200BF1C37BD4680BC704780B4B6
:103F700087B000AFF860B9607A60FB681B6A7B614C
:103F8000FB681B6A23F01002FB681A62FB689B69DE
:103F90003B613B6923F470433B617B681B033A69D7
:103FA00013433B617B6923F0A0037B61BB681B016A
:103FB0007A6913437B61FB683A699A61FB687A69A5
:103FC0001A6200BF1C37BD4680BC704780B485B004
:103FD00000AF786039607B689B68FB60FB6823F00A
:103FE0007003FB603A68FB68134343F00703FB6010
:103FF0007B68FA689A6000BF1437BD4680BC704782
:1040000080B487B000AFF860B9607A603B60FB684D
:104010009B687B617B6923F47F437B613B681A0269
:104020007B681A43BB6813437A6913437B61FB685F
:104030007A699A6000BF1C37BD4680BC704700009B
:1040400080B485B000AF786039607B6893F83C300D
:10405000012B01D1022346E07B68012283F83C203A
:104060007B68022283F83D207B681B685B68FB60ED
:104070007B681B689B68BB60FB6823F07003FB6078
:104080003B681B68FA681343FB607B681B68FA682F
:104090005A607B681B68164A93420ED07B681B6887
:1040A000B3F1804F09D07B681B68124A934204D059
:1040B0007B681B68104A93420CD1BB6823F08003D5
:1040C000BB603B685B68BA681343BB607B681B6876
:1040D000BA689A607B68012283F83D207B680022E1
:1040E00083F83C20002318461437BD4680BC704737
:1040F000002C01400004004000080040002B2DE986
:10410000F0471D46BBBF03F100431D4600232D238E
:1041100088B01446B8BF1446129A109E1370149BB0
:10412000DDF84CA023F02008B8F1460F05D0B8F117
:10413000450F00D10136022300E0032307AA0492B1
:1041400006AACDE902A2CDE9003622462B4600F0B0
:104150006FFEB8F1470F074619D1119BDB070ED54B
:1041600000EB06090022002320462946FCF71CFC30
:1041700008B1CDF81C903022079B4B451ED3384622
:10418000079B159ADB1B136008B0BDE8F087B8F1F8
:10419000460F00EB0609E5D10378302B0AD1002247
:1041A000002320462946FCF7FFFB18B9C6F101069B
:1041B000CAF80060DAF800309944D3E7591C079137
:1041C0001A70D9E7F7B50029B6BF2D232B23494232
:1041D00009290270437029DD0DF107031D460A27E6
:1041E000B1FBF7F61A4607FB1614303402F8014CFF
:1041F0000C46632C314603F1FF33F1DC3031941E61
:1042000003F8011C2346411CAB420AD30DF10903FC
:104210009B1AAC4288BF002302330344181A03B030
:10422000F0BD13F8016B01F8016FEDE73023303179
:104230008370C170031DF1E72DE9F04F91B00C467A
:10424000DDF8688016461F46054600F0E1FC03686D
:1042500018460893FBF77CFF00230E93D8F8003034
:104260000990073323F0070303F1080294F818A01C
:10427000D4F800B0C8F80020D3E9008929F0004341
:104280000B93CDF828804FF0FF32DDE90A01C4E935
:1042900012899C4BFCF7BAFB70BBDDE90A014FF0B9
:1042A000FF32984BFCF794FB30BB002200234046C2
:1042B0004946FCF783FB10B12D2384F84330924A22
:1042C000924BBAF1470F94BF9046984603234FF0A4
:1042D000000923612BF0040323603346214628465E
:1042E00000970FAA00F0D4F9013040F090804FF011
:1042F000FF3011B0BDE8F08F42464B46404649467C
:10430000FCF784FB48B14B46002BB8BF2D23804AF5
:10431000B8BF84F843307F4BD3E763680AF0DF010E
:104320005A1C3FD10623636000224BF48063236054
:1043300006920EAACDE904A20DAA03920DF1330252
:10434000CDE9013263684246009328464B460A9104
:10435000FFF7D4FE0A99804647290D9928D1C81C39
:1043600002DB6368994240DDAAF1020A5FFA8AFA29
:104370005246013904F150000D91FFF723FF0E9AC8
:1043800081461318012A236102DC2268D20701D575
:10439000013323619DF83330002B9ED02D2384F808
:1043A00043309AE74729BFD1002BBDD10123BAE79B
:1043B000BAF1650FDCD9BAF1660F18D1002963682C
:1043C0000BDD216113B92268D00702D501330B44FC
:1043D00023614FF00009A165DCE713B92268D20719
:1043E00001D50233F4E70123F2E74FF0670A0E9B91
:1043F000994205DB23682161D807EAD54B1CE7E722
:104400000029CCBF0122C1F102021344E0E7236876
:104410005A0507D42369424631462846B847013039
:104420002BD164E7BAF1650F40F2DC80D4E91201C8
:1044300000220023FCF7B8FA002833D001233146CC
:104440002846354AB84701303FF451AFDDE90D3811
:10445000434502DB2368D8070FD5DDE90823314641
:104460002846B84701303FF442AF4FF0000908F149
:10447000FF3804F11A0AC84509DC23689B0700F1DC
:104480000281E0680F9B9842B8BF184631E70123CC
:10449000524631462846B84701303FF428AF09F16B
:1044A0000109E8E70D9B002B38DC01233146284643
:1044B000194AB84701303FF41AAFDDE90D3959EA1E
:1044C000030302D12368D907D7D5DDE90823314694
:1044D0002846B84701303FF40AAF4FF0000A04F114
:1044E0001A0B0D9B5B42534501DC4B4693E70123BE
:1044F0005A4631462846B84701303FF4F8AE0AF133
:10450000010AEEE7FFFFEF7F426E0008466E0008EB
:104510004A6E00084E6E0008526E0008A36DDDF86A
:1045200038A05345A8BF5346002B994636DC4FF0C0
:10453000000B29EAE97904F11A02A36D0A93A3EBAF
:1045400009035B4531DC0D9B9A453ADC2368DA07A9
:1045500037D40D9BAAEB03090A9BAAEB03039945E9
:10456000A8BF9946B9F1000F33DC4FF0000829EAE3
:10457000E97904F11A0B0D9BAAEB0303A3EB0903E2
:1045800043457FF77AAF01235A4631462846B8475C
:1045900001303FF4ACAE08F10108ECE74246314689
:1045A0002846B8470130C2D1A1E60123314628464A
:1045B0000A92B84701303FF49AAE0A9A0BF1010B08
:1045C000BBE73146DDE908232846B8470130C0D1B2
:1045D0008DE60A9A4B46314628464244B847013098
:1045E000C3D184E6DDF838A0BAF1010F01DCDB07A6
:1045F00036D50123424631462846B84701303FF4BC
:1046000076AEDDE9082331462846B84701303FF44D
:104610006EAED4E91201002200230AF1FF3AFCF742
:10462000C3F9C0B9534608F1010231462846B847DC
:1046300001300CD15BE601235A4631462846B84783
:1046400001303FF454AE08F10108D045F3DB4B468E
:1046500004F15002E0E64FF0000804F11A0BF4E711
:1046600001234246E1E701234A4631462846B8473E
:1046700001303FF43CAE08F10108E3680F995B1A82
:104680004345F0DCFDE64FF0000804F11909F4E7BA
:104690002DE9F047164698468A680B69074693420B
:1046A000B8BF1346336091F843200C46DDF82090E4
:1046B0000AB1013333602368990642BF336802337D
:1046C0003360256815F0060506D104F1190AE36880
:1046D00032689B1AAB422BDC94F843302268003BD3
:1046E00018BF0123920630D44146384604F14302F4
:1046F000C847013023D02368226903F00603042B46
:1047000014BF002533684FF0000608BFE56804F1C8
:104710001A0408BFED1A54F8123C08BF25EAE575E3
:104720009342C4BF9B1AED18B5421AD1002008E08D
:104730000123524641463846C847013003D14FF065
:10474000FF30BDE8F0870135C1E73020E11881F87E
:1047500043005A1C94F845102244023382F8431057
:10476000C2E70123224641463846C8470130E6D019
:104770000136D9E72DE9FF470F7E9146782F804615
:104780000C469A460C9E01F1430207D8622F0AD8C4
:10479000002F00F0D380582F00F0BA8004F14206B9
:1047A00084F842703AE0A7F16303152BF6D801A113
:1047B00051F823F00D480008214800089D470008E3
:1047C0009D4700089D4700089D47000821480008B4
:1047D0009D4700089D4700089D4700089D47000829
:1047E000234900084B480008DD4800089D470008A1
:1047F0009D470008454900089D4700084B480008B0
:104800009D4700089D470008E548000833681A1DC9
:104810001B68326004F1420684F8423001239EE0B6
:1048200033682068191D3160060601D51D6803E054
:104830004506FBD5B3F90050002D03DA2D236D4258
:1048400084F843300A23594811E021683368080688
:1048500053F8045B02D4490648BFADB26F2F3360F2
:1048600014BF0A2308235148002184F843106668C6
:10487000002EA8BF2168A660A4BF21F0040121601A
:104880000DB9002E4BD01646B5FBF3F103FB1157C3
:10489000C75D06F8017D2F46BB420D46F4D9082BB3
:1048A0000BD12368DF0708D5236961689942DEBF11
:1048B000302306F8013C06F1FF36921B22614B467D
:1048C00021464046CDF800A003AAFFF7E1FE0130E3
:1048D0004AD14FF0FF3004B0BDE8F087236843F0C1
:1048E000200323607827324884F8457023683168B4
:1048F0001F0651F8045B02D45F0648BFADB23160B9
:10490000D90744BF43F0200323601DB11023ABE758
:104910002648E9E7236823F020032360F6E71646DC
:10492000BDE733682568181D616930602E061B6875
:1049300001D5196002E06806FBD5198000231646F0
:104940002361BCE7336800211A1D32601E6862686B
:10495000304600F0D4F908B1801B606063682361C1
:10496000002384F84330AAE732464946404623698B
:10497000D0470130ADD023689B0713D4E068039B78
:104980009842B8BF1846A6E701233246494640463A
:10499000D04701309DD00135E36803995B1AAB42E3
:1049A000F2DCEBE7002504F11906F5E7546E000888
:1049B000656E0008002310B50446C0E90033C0E965
:1049C0000433836081814366C28183611946082272
:1049D0005C3000F014F90D4B246263620C4BA3624F
:1049E0000C4BE3620C4B23630C4B9C4206D003F14F
:1049F0006802944202D0D0339C4205D104F15800A1
:104A0000BDE8104000F078B910BD00BF794B000838
:104A10009B4B0008D34B0008F74B0008B402002062
:104A2000024A0349034800F069B800BF0C000020A7
:104A30006D6600081C00002041680C4B10B59942BF
:104A4000044601D001F012FEA168094B994202D040
:104A5000204601F00BFEE168064B994204D0204647
:104A6000BDE8104001F002BE10BD00BFB40200203E
:104A70001C0300208403002010B50B4B0B4C0C4A88
:104A800020461A6004210022FFF794FF04F1680019
:104A900001220921FFF78EFF04F1D0000222BDE8B8
:104AA00010401221FFF786BFEC030020B402002063
:104AB000214A0008014800F020B900BFF50300209A
:104AC000014800F01BB900BFF503002010B50446F3
:104AD000FFF7F0FF236A1BB1BDE81040FFF7F0BFFE
:104AE000044B2362044B1B68002BF5D1FFF7C4FF76
:104AF000F2E700BF394A0008EC0300202DE9F84333
:104B00000746884614460026D4E90195B9F1010903
:104B100005D52468002CF7D13046BDE8F883AB8971
:104B2000012B07D9B5F90E30013303D02946384699
:104B3000C04706436835E9E70EB46FF0004100B5A1
:104B40009CB01DAB0290069007910491084809495A
:104B500053F8042B0591006802A9019301F00AFCA7
:104B60000022029B1A701CB05DF804EB03B0704782
:104B7000180000200802FFFF10B50C46B1F90E1016
:104B800000F06CF80028ABBF636DA3891B1823F4F9
:104B90008053ACBF6365A38110BD2DE9F0411F4672
:104BA0008B890546DB050C46164605D502230022F7
:104BB000B1F90E1000F040F8A389324623F4805377
:104BC000A38128463B46B4F90E10BDE8F04100F041
:104BD00057B810B50C46B1F90E1000F02DF8431C73
:104BE000A38915BF606523F4805343F48053A381E8
:104BF00018BFA38110BDB1F90E1000F00DB8034627
:104C00000244934200D1704703F8011BF9E700000A
:104C1000004870475801002038B50023054D044670
:104C200008462B60FDF717F8431C02D12B6803B12F
:104C3000236038BDF003002038B50446084611460D
:104C40000022054D2A601A46FDF729F8431C02D1BF
:104C50002B6803B1236038BDF003002038B504464B
:104C6000084611460022054D2A601A46FCF7BAFF95
:104C7000431C02D12B6803B1236038BDF003002030
:104C800038B50446084611460022054D2A601A46EA
:104C9000FCF7C5FF431C02D12B6803B1236038BD6C
:104CA000F0030020014B1868704700BF1800002077
:104CB00070B500260C4D0D4C641BA410A64209D102
:104CC00002F070F800260A4D0A4C641BA410A6429C
:104CD00005D170BD55F8043B98470136EEE755F80D
:104CE000043B98470136F2E7B8710008B871000834
:104CF000B8710008BC7100087047704770470346E0
:104D000010B5C9B202449342184601D1002003E015
:104D1000047801338C42F6D110BD2DE9F74F0369B9
:104D20000C690746A3427EDB013CA30000F1140599
:104D300001F11408009305EB8403019358F8243023
:104D400055F8242001339A42B2FBF3F608EB8409AC
:104D50002ED34FF0000AC446AE46D3465CF8043B5F
:104D600098B206FB00A01B0C020C06FB0323DEF826
:104D7000002080B292B2121A5A44DEF800004FEAC4
:104D8000134A9BB2C3EB224303EB104392B242EAB5
:104D90000342E1454FEA234B4EF8042BDED2009B41
:104DA000EB582BB9019B043B9D421A462FD33C6123
:104DB000384601F07BF9002825DB2946002058F809
:104DC000042BD1F800C01FFA82FE1FFA8CF3A3EB6C
:104DD0000E030344120CC2EB234202EB1C429BB2B3
:104DE00043EA0243C1454FEA224041F8043BE6D280
:104DF00055F8242005EB840322B9043B9D421A4652
:104E00000BD33C610136304603B0BDE8F08F126829
:104E1000043B002ACBD1013CC6E71268043B002AC0
:104E2000EFD1013CEAE70020EEE7000000000000BF
:104E30002DE9F04F14461D46C76997B08346CDE96A
:104E40000245239E7FB9102000F002FE0246CBF8F7
:104E50001C0020B9EF21A84BA84801F067FCC0E96D
:104E600001770760C760DBF81C30196859B15A68D0
:104E7000012393404A608B60584600F0DFFE002219
:104E8000DBF81C301A602B1EAFBF0023012223F079
:104E900000430393A8BF3360DDF80C80984BB8BF84
:104EA000326033EA080312D142F20F73229A136080
:104EB000C8F31303234300F05085249BDFF844A27A
:104EC000002B00F052850AF1030300F04CBDDDE930
:104ED0000223CDE90C23DDE90C0100220023FBF7BE
:104EE00063FD074658B10123229A1360249B13B136
:104EF000854B249A1360DFF814A200F036BD14AB82
:104F0000019315AB00935846DDE90C2301F07EF9BF
:104F1000C8F30A568146002E77D0DDE90C010D9BBF
:104F2000A6F2FF36C3F3130343F07F5343F4401359
:104F3000129719460022764BFBF716F968A3D3E9BE
:104F40000023FBF7C9FA68A3D3E90023FBF70EF9A6
:104F5000044630460D46FBF755FA65A3D3E9002316
:104F6000FBF7BAFA02460B4620462946FBF7FEF845
:104F700004460D46FBF760FD00220746002320464D
:104F80002946FBF71BFD40B13846FBF73BFA2246AA
:104F90002B46FBF709FD00B9013F162F53D8DDE979
:104FA0000C015C4B03EBC703D3E90023FBF706FDC1
:104FB00000284AD00023013F0F93149B9B1B5A1ECD
:104FC00046BFC3F1010800234FF00008099248BF13
:104FD0000993002F3BDB099B0E973B440993002369
:104FE0000A93209B092B66D8052BC4BF043B209352
:104FF000209BC8BF0024A3F10203D8BF0124032BC8
:1050000064D8DFE803F02B383656DDE914631E441C
:1050100006F23243202BC1BFC3F1400308FA03F864
:1050200006F2124324FA03F3D6BFC3F1200348EA81
:10503000030004FA03F0FBF7D5F90122A1F1F8739C
:10504000013E129275E70123B6E70F90B5E77B4268
:105050000A930023A8EB07080E93C2E700230B93E3
:10506000219B002B35DC01231A46CDE90733219221
:105070000BE00123F3E700230B93219BFB1808931C
:105080000133012B0793B8BF012300210422DBF871
:105090001C0002F114059D421FD94160584600F0E2
:1050A0008DFD8246002839D1024640F2AF111A4BDD
:1050B000D2E60123E0E7012400230B9420934FF074
:1050C000FF330022CDE907331223D0E701230B93EE
:1050D000F5E7219BCDE90733D7E701315200D8E747
:1050E00061436F63A787D23FB3C8608B288AC63FEE
:1050F000FB799F501344D33F836E00089A6E0008DB
:105100000000F07F7F6E0008536E0008526E0008AA
:105110000000F83F906F0008F26E0008DBF81C30CA
:105120001860079B0E2B00F2A480002C00F0A180D9
:10513000002F33DD864B07F00F0203EBC203F805A7
:10514000D3E90034CDE904344FEA271416D5DDE95C
:105150000C01804B0326D3E90823FBF7E7FACDE9DE
:10516000020104F00F047B4D54B9DDE90423DDE9AD
:105170000201FBF7DBFACDE9020128E00226F2E7A3
:10518000E10708D5DDE90401D5E90023FBF7A4F91F
:10519000CDE90401013664100835E5E700F0D2805E
:1051A000DDE90C017C426A4B04F00F0203EBC20301
:1051B000D3E90023FBF790F902260023CDE9020191
:1051C000644D2411002C40F0B280002BD3D1DDE9D6
:1051D00002450F9B002B00F0B78000222046294695
:1051E0005D4BFBF7EBFB002800F0AE80079B002B2C
:1051F00000F0AA80089B002B37DD7B1E204604931D
:1052000000222946554BFBF767F9CDE90201089CBE
:1052100001363046FBF7F6F8DDE90223FBF75CF9CF
:1052200000224F4BFAF7A2FF0546A1F15076002C61
:1052300040F09A80DDE9020100224A4BFAF794FF20
:1052400002460B46CDE902232A463346FBF7D4FB40
:10525000002840F08E82DDE902012A4606F1004373
:10526000FBF7ACFB002840F02781DDE90C34CDE9E9
:105270000234159B002BC0F263810E2F00F3608176
:10528000334B03EBC703D3E90034CDE90434219B4E
:10529000002B03DA079B002B40F30081DDE9024578
:1052A0005646DDE9042320462946FBF73FFAFBF783
:1052B000C3FB8046FBF7A6F8DDE90423FBF70CF9F6
:1052C00002460B4620462946FAF74EFF08F1300405
:1052D000079D06F8014BA6EB0A04A54202460B46C1
:1052E00040F01681FAF742FFDDE9042304460D463B
:1052F000FBF782FB002840F0F880DDE9042320461C
:105300002946FBF751FB18B118F0010F40F0ED8072
:105310004946584600F092FC00233370229B013727
:105320001F60249B002B00F020831E601DE3E2071A
:1053300005D5D5E90023FBF7CFF80123013664102A
:1053400008353FE7022642E7079C049761E700BF64
:10535000906F0008686F00080000F03F00002440D4
:1053600000001C4000001440704B0B9903EBC40379
:1053700053E902235444002945D000206C49FBF72F
:10538000D5F933462A46FAF7EFFE5646CDE9100125
:10539000DDE90201FBF750FB0546FBF733F8024657
:1053A0000B46DDE90201FAF7DFFE02460B46303517
:1053B000CDE90223DDE9102306F8015BFBF7FEFAD5
:1053C000002863D1DDE9022300205A49FAF7CCFE18
:1053D000DDE91023FBF7F2FA002840F08780A642AF
:1053E0003FF443AFDDE910010022534BFBF774F8A3
:1053F0000022CDE91001DDE902014F4BFBF76CF80B
:10540000CDE90201C4E731462846FBF765F8564668
:10541000CDE910011394DDE90201FBF70DFB054610
:10542000FAF7F0FF02460B46DDE90201FAF79CFEAF
:1054300002460B46303506F8015BA642CDE9022351
:105440004FF0000224D1DDE91001394BFAF78EFE4E
:1054500002460B46DDE90201FBF7CEFA002845D1F2
:10546000DDE9102300203249FAF77EFE02460B46A2
:10547000DDE90201FBF7A2FA00283FF4F6AE139E25
:10548000731E139316F8013C302BF8D0049F3FE7AE
:10549000294BFBF721F8CDE90201BCE70CD1DDE98E
:1054A00004010022254BFBF717F8DDE90223FBF787
:1054B00099FA002800F05B8100242546219B56467E
:1054C000DB43049300272146584600F0B7FB002D2C
:1054D000DCD02FB1AF4203D03946584600F0AEFBC6
:1054E0002946584600F0AAFBD0E7049733461E46EB
:1054F00013F8012D392A07D19A45F8D1049A0132BF
:10550000049230228AF800201A7801321A70BDE71E
:105510000022094BFAF7E0FF0022002304460D4663
:10552000FBF742FA00283FF4BCAEF1E6906F0008AA
:105530000000E03F0000F03F000024400000144065
:105540000B9A002A00F0DB80209A012A00F3BF802A
:10555000129A002A00F0B78003F2334346460A9CB1
:10556000099A01211A4458469844099200F01AFCFD
:1055700005465EB1099B002B08DDB342A8BF334648
:10558000099AA8EB0308F61AD31A09930A9BF3B1F8
:105590000B9B002B00F0B7808CB129462246584661
:1055A00000F0BEFC4A4601460546584600F010FC95
:1055B00049460490584600F041FB049B99460A9BDB
:1055C0001A1B04D04946584600F0AAFC8146012126
:1055D000584600F0E7FB0E9B0446002B00F0C98103
:1055E0001A460146584600F09BFC209B0446012BBE
:1055F00000F38F80029B002B40F08780039BC3F356
:105600001303002B40F08380039B23F000431B0D0A
:105610001B052BB1099B08F10108013309930123F4
:105620000A930E9B002B00F0AA81236904EB8303ED
:10563000186900F06BFBC0F12000099B184410F0C2
:105640001F0071D0C0F12003042B65DD099BC0F160
:105650001C000344804406440993B8F1000F05DDA3
:1056600049464246584600F0B5FC8146099B002B4E
:1056700005DD21461A46584600F0ACFC04460F9B57
:10568000002B53D02146484600F010FD00284DDA8B
:105690007B1E494604930A220023584600F0F0FA84
:1056A0000B9B8146002B00F06C81002329460A22C7
:1056B000584600F0E5FA089B0546002B61DC209B6C
:1056C000022B3BDC5DE0149BC3F1360346E7079BEE
:1056D0005C1E0A9BA342BFBF0A9B0E9AE31AD21814
:1056E000A8BF1C1B079BBEBF0A940E920024002B70
:1056F000B5BFA8EB030646460023079B30E74646A6
:105700000A9C0B9D35E70A9A5CE7002388E7029B19
:1057100086E700230A9388E79FD0099A1C331A442E
:1057200098441E44099298E70346F6E7079B0497BE
:10573000002B20DC0893209B022B1EDD089B002BF6
:105740007FF4BCAE21460522584600F099FA014686
:105750000446484600F0AAFC00287FF7AFAE31238C
:10576000564606F8013B049B01330493AAE6079CC6
:1057700004972546F3E7079B08930B9B002B00F04B
:105780000481002E05DD29463246584600F022FCF1
:1057900005460A9B002B5AD05846696800F00EFA5D
:1057A000064628B9024640F2EF21834BFFF754BB6F
:1057B0002A6905F10C01023292000C3000F0A8FFBA
:1057C00001223146584600F005FC2F4605460AF1F5
:1057D00001030793089B53440B93029B03F00103BF
:1057E0000A93079B2146013B48460293FFF795FA2F
:1057F0003946089000F13008484600F057FC2A4628
:1058000009902146584600F06DFCC268064602BB6E
:105810000146484600F04AFC0246314658460C9282
:1058200000F00CFA209B0C9A079E43EA02010A9BA7
:10583000194310D1B8F1390F29D0099B002B02DD93
:10584000089B03F13108029B83F800803BE6284661
:10585000BBE70122E1E7099B002B04DB20990B4306
:105860000A990B4320D1002AEDDD49460122584612
:1058700000F0B0FB2146814600F018FC002803DC54
:10588000E1D118F0010FDED0B8F1390FD8D13923AA
:10589000029A137033461E4616F8012C013B392A32
:1058A00052D001321A700EE6002A07DDB8F1390F26
:1058B000EDD0029A08F10103137004E6079B079AE2
:1058C00003F8018C0B9B934228D0494600230A22FF
:1058D000584600F0D5F9AF4281464FF000034FF033
:1058E0000A023946584607D100F0CAF9074605466C
:1058F000079B0133079374E700F0C2F92946074676
:1059000000230A22584600F0BBF90546F0E7089B41
:105910000027002BCCBF1E460126564449460122D3
:10592000584600F057FB2146814600F0BFFB002897
:10593000B0DC02D118F0010FACD133461E4613F88B
:10594000012D302AFAD0BEE59A45A4D1049B01333B
:10595000049331238AF80030B5E5249BDFF85CA07E
:105960001BB10AF10803249A1360504617B0BDE832
:10597000F08F209B012B7FF73DAE0E9B0A930120F9
:105980005BE6089B002B7FF7D6AE5646214648467D
:10599000FFF7C3F900F13008089B06F8018BA6EB6E
:1059A0000A029342B3DD494600230A22584600F01A
:1059B00067F98146EAE700BFF26E0008766E0008DC
:1059C00038B50546002940D051F8043C0C1F002B87
:1059D000B8BFE41800F0E6F81C4A136833B96360F6
:1059E00014602846BDE8384000F0E2B8A34208D968
:1059F000206821188B4201BF19685B680918216073
:105A0000EDE71A465B680BB1A342FAD9116850184A
:105A1000A0420BD120680144501883421160E0D1AC
:105A200018685B68084410605360DAE702D90C23F9
:105A30002B60D6E7206821188B4201BF19685B688C
:105A40000918216063605460CBE738BDFC03002077
:105A5000024B0146186800F025B800BF180000206E
:105A600070B50F4E0C463168054611B900F040FE86
:105A700030602146284600F03BFE431C03D14FF026
:105A8000FF34204670BDC41C24F00304A042F8D0AB
:105A9000211A284600F02CFE0130F2D1EFE700BFBA
:105AA000F80300202DE9F843CD1C25F00305083547
:105AB0000C2D38BF0C25002D064601DBA94204D968
:105AC0000C2333600020BDE8F883DFF8D48000F0B9
:105AD00069F8D8F800301C4644BB29463046FFF729
