:020000040800F2
:1000000000500020052F0008E12C0008E92C000812
:10001000F12C0008F92C0008012D00080000000058
:10002000000000000000000000000000092D000892
:10003000152D000800000000212D00082D2D0008BE
:100040004D2F00084D2F00084D2F00084D2F0008A0
:100050004D2F00084D2F00084D2F00084D2F000890
:100060004D2F00084D2F00084D2F0008392D000896
:100070004D2F00084D2F00084D2F00084D2F000870
:100080004D2F00084D2F00084D2F00084D2F000860
:100090004D2F00084D2F00084D2F00084D2F000850
:1000A0004D2F00084D2F00084D2F00084D2F000840
:1000B0004D2D0008612D00084D2F00084D2F000820
:1000C0004D2F00084D2F00084D2F00084D2F000820
:1000D0004D2F00084D2F00084D2F00084D2F000810
:1000E0004D2F00084D2F00084D2F00080000000084
:1000F0000000000000000000000000000000000000
:0C01000000000000000000005FF808F1A3
:1001100010B5054C237833B9044B13B10448AFF341
:1001200000800123237010BDDC01002000000000CE
:10013000E49C000808B5034B1BB103490348AFF327
:10014000008008BD00000000E0010020E49C0008E1
:1001500010F8012B11F8013B012A28BF9A42F7D071
:10016000D01A7047034613F8012B002AFBD1181A46
:100170000138704781F0004102E000BF83F0004386
:1001800030B54FEA41044FEA430594EA050F08BF32
:1001900090EA020F1FBF54EA000C55EA020C7FEAF6
:1001A000645C7FEA655C00F0E2804FEA5454D4EB73
:1001B0005555B8BF6D420CDD2C4480EA020281EA3D
:1001C000030382EA000083EA010180EA020281EA75
:1001D0000303362D88BF30BD11F0004F4FEA0131C7
:1001E0004FF4801C4CEA113102D0404261EB4101D6
:1001F00013F0004F4FEA03334CEA133302D052425C
:1002000063EB430394EA050F00F0A780A4F1010417
:10021000D5F1200E0DDB02FA0EFC22FA05F2801851
:1002200041F1000103FA0EF2801843FA05F3594137
:100230000EE0A5F120050EF1200E012A03FA0EFCB6
:1002400028BF4CF0020C43FA05F3C01851EBE371E0
:1002500001F0004507D54FF0000EDCF1000C7EEBFD
:1002600000006EEB0101B1F5801F1BD3B1F5001F3B
:100270000CD349085FEA30004FEA3C0C04F101045A
:100280004FEA445212F5800F80F09A80BCF1004F83
:1002900008BF5FEA500C50F1000041EB045141EA05
:1002A000050130BD5FEA4C0C404141EB0101013CCE
:1002B00028BFB1F5801FE9D291F0000F04BF0146BD
:1002C0000020B1FA81F308BF2033A3F10B03B3F18F
:1002D00020020CDA0C3208DD02F1140CC2F10C021F
:1002E00001FA0CF021FA02F10CE002F11402D8BF7D
:1002F000C2F1200C01FA02F120FA0CFCDCBF41EA49
:100300000C019040E41AA2BF01EB0451294330BD17
:100310006FEA04041F3C1CDA0C340EDC04F11404F4
:10032000C4F1200220FA04F001FA02F340EA0300CB
:1003300021FA04F345EA030130BDC4F10C04C4F111
:10034000200220FA02F001FA04F340EA03002946F1
:1003500030BD21FA04F0294630BD94F0000F83F43B
:10036000801306BF81F480110134013D4EE77FEA1E
:10037000645C18BF7FEA655C29D094EA050F08BF6A
:1003800090EA020F05D054EA000C04BF194610464B
:1003900030BD91EA030F1EBF0021002030BD5FEA8F
:1003A000545C05D14000494128BF41F0004130BDB7
:1003B00014F580043CBF01F5801130BD01F000450B
:1003C00045F0FE4141F470014FF0000030BD7FEA7E
:1003D000645C1ABF194610467FEA655C1CBF0B4679
:1003E000024650EA013406BF52EA033591EA030F90
:1003F00041F4002130BD00BF90F0000F04BF002188
:10040000704730B54FF4806404F132044FF00005BA
:100410004FF0000150E700BF90F0000F04BF002133
:10042000704730B54FF4806404F1320410F0004599
:1004300048BF40424FF000013EE700BF42004FEA94
:10044000E2014FEA31014FEA02701FBF12F07F4311
:1004500093F07F4F81F06051704732F07F4208BFC8
:10046000704793F07F4F04BF41F40021704730B5CF
:100470004FF4607401F0004521F000411CE700BF1B
:1004800050EA010208BF704730B54FF000050AE09E
:1004900050EA010208BF704730B511F0004502D59F
:1004A000404261EB41014FF4806404F132045FEAA1
:1004B000915C3FF4D8AE4FF003025FEADC0C18BF4A
:1004C00003325FEADC0C18BF033202EBDC02C2F13C
:1004D000200300FA03FC20FA02F001FA03FE40EACE
:1004E0000E0021FA02F11444BDE600BF70B54FF0D2
:1004F000FF0C4CF4E06C1CEA11541DBF1CEA1355B0
:1005000094EA0C0F95EA0C0F00F0DEF82C4481EA17
:10051000030621EA4C5123EA4C5350EA013518BF37
:1005200052EA033541F4801143F4801338D0A0FB24
:1005300002CE4FF00005E1FB02E506F00042E0FBD1
:1005400003E54FF00006E1FB03569CF0000F18BFD7
:100550004EF0010EA4F1FF04B6F5007F64F540747F
:1005600004D25FEA4E0E6D4146EB060642EAC62112
:1005700041EA55514FEAC52040EA5E504FEACE2E7F
:10058000B4F1FD0C88BFBCF5E06F1ED8BEF1004F82
:1005900008BF5FEA500E50F1000041EB045170BDFE
:1005A00006F0004646EA010140EA020081EA030142
:1005B000B4EB5C04C2BFD4EB0C0541EA045170BD3E
:1005C00041F480114FF0000E013C00F3AB8014F1B8
:1005D000360FDEBF002001F0004170BDC4F1000401
:1005E000203C35DA0C341BDC04F11404C4F1200582
:1005F00000FA05F320FA04F001FA05F240EA0200DD
:1006000001F0004221F0004110EBD37021FA04F612
:1006100042EB06015EEA430E08BF20EAD37070BDCC
:10062000C4F10C04C4F1200500FA04F320FA05F02B
:1006300001FA04F240EA020001F0004110EBD3702D
:1006400041F100015EEA430E08BF20EAD37070BD9D
:10065000C4F1200500FA05F24EEA020E20FA04F376
:1006600001FA05F243EA020321FA04F001F0004125
:1006700021FA04F220EA020000EBD3705EEA430E96
:1006800008BF20EAD37070BD94F0000F0FD101F0C5
:100690000046400041EB010111F4801F08BF013CFE
:1006A000F7D041EA060195F0000F18BF704703F03C
:1006B0000046520043EB030313F4801F08BF013DC3
:1006C000F7D043EA0603704794EA0C0F0CEA13557F
:1006D00018BF95EA0C0F0CD050EA410618BF52EA39
:1006E0004306D1D181EA030101F000414FF000003F
:1006F00070BD50EA410606BF1046194652EA43064D
:1007000019D094EA0C0F02D150EA013613D195EAC0
:100710000C0F05D152EA03361CBF104619460AD108
:1007200081EA030101F0004141F0FE4141F4700112
:100730004FF0000070BD41F0FE4141F4780170BD02
:1007400070B54FF0FF0C4CF4E06C1CEA11541DBF67
:100750001CEA135594EA0C0F95EA0C0F00F0A7F869
:10076000A4EB050481EA030E52EA03354FEA013196
:1007700000F088804FEA03334FF0805545EA1313A9
:1007800043EA12634FEA022245EA111545EA106571
:100790004FEA00260EF000419D4208BF964244F108
:1007A000FD0404F5407402D25B084FEA3202B61A27
:1007B00065EB03055B084FEA32024FF480104FF4FB
:1007C000002CB6EB020E75EB030E22BFB61A75466F
:1007D00040EA0C005B084FEA3202B6EB020E75EB02
:1007E000030E22BFB61A754640EA5C005B084FEA6A
:1007F0003202B6EB020E75EB030E22BFB61A754637
:1008000040EA9C005B084FEA3202B6EB020E75EB41
:10081000030E22BFB61A754640EADC0055EA060E02
:1008200018D04FEA051545EA16754FEA06164FEA45
:10083000C30343EA52734FEAC2025FEA1C1CC0D1F1
:1008400011F4801F0BD141EA00014FF000004FF07E
:10085000004CB6E711F4801F04BF01430020B4F13F
:10086000FD0C88BFBCF5E06F3FF6AFAEB5EB030CF7
:1008700004BFB6EB020C5FEA500C50F1000041EBF4
:10088000045170BD0EF0004E4EEA113114EB5C04C1
:10089000C2BFD4EB0C0541EA045170BD41F4801194
:1008A0004FF0000E013C90E645EA060E8DE60CEA9C
:1008B000135594EA0C0F08BF95EA0C0F3FF43BAFB9
:1008C00094EA0C0F0AD150EA01347FF434AF95EA70
:1008D0000C0F7FF425AF104619462CE795EA0C0F54
:1008E00006D152EA03353FF4FDAE1046194622E721
:1008F00050EA410618BF52EA43067FF4C5AE50EAFB
:1009000041047FF40DAF52EA43057FF4EBAE12E7EA
:100910004FF0FF3C06E000BF4FF0010C02E000BFCB
:100920004FF0010C4DF804CD4FEA410C7FEA6C5CAE
:100930004FEA430C18BF7FEA6C5C1BD001B050EA51
:10094000410C0CBF52EA430C91EA030F02BF90EA3C
:10095000020F0020704710F1000F91EA030F58BFFB
:10096000994208BF90422CBFD8176FEAE37040F05D
:10097000010070474FEA410C7FEA6C5C02D150EAFB
:10098000013C07D14FEA430C7FEA6C5CD6D152EAB6
:10099000033CD3D05DF8040B704700BF844610467B
:1009A00062468C461946634600E000BF01B5FFF77A
:1009B000B7FF002848BF10F1000F01BD4DF808ED4A
:1009C000FFF7F4FF0CBF012000205DF808FB00BF1B
:1009D0004DF808EDFFF7EAFF34BF012000205DF875
:1009E00008FB00BF4DF808EDFFF7E0FF94BF0120C2
:1009F00000205DF808FB00BF4DF808EDFFF7CEFFC3
:100A000094BF012000205DF808FB00BF4DF808ED01
:100A1000FFF7C4FF34BF012000205DF808FB00BFD2
:100A20004FEA410C7FEA6C5C02D150EA013C0AD1EA
:100A30004FEA430C7FEA6C5C02D152EA033C02D1DC
:100A40004FF0000070474FF0010070474FEA41023D
:100A500012F5001215D211D56FF47873B3EB625210
:100A600012D94FEAC12343F0004343EA505311F037
:100A7000004F23FA02F018BF404270474FF00000C9
:100A8000704750EA013005D111F0004008BF6FF007
:100A9000004070474FF00000704700BF4A0011D27D
:100AA00012F5001211D20DD56FF47873B3EB6252C8
:100AB0000ED44FEAC12343F0004343EA505323FAD4
:100AC00002F070474FF00000704750EA013002D149
:100AD0004FF0FF3070474FF0000070474FEA41027F
:100AE000B2F1E04324BFB3F5001CDCF1FE5C0DD98C
:100AF00001F0004C4FEAC0024CEA5070B2F1004FD6
:100B000040EB830008BF20F00100704711F0804FD8
:100B100021D113F13872BCBF01F00040704741F49D
:100B200080114FEA5252C2F11802C2F1200C10FAA1
:100B30000CF320FA02F018BF40F001004FEAC12385
:100B40004FEAD32303FA0CFC40EA0C0023FA02F329
:100B50004FEA4303CCE77FEA625307D150EA0133FF
:100B60001EBF4FF0FE4040F44000704701F00040CF
:100B700040F0FE4040F40000704700BF80F00040AD
:100B800002E000BF81F0004142001FBF5FEA410365
:100B900092EA030F7FEA226C7FEA236C6AD04FEA65
:100BA0001262D2EB1363C1BFD218414048404140AA
:100BB000B8BF5B42192B88BF704710F0004F40F45C
:100BC000000020F07F4018BF404211F0004F41F478
:100BD000000121F07F4118BF494292EA030F3FD044
:100BE000A2F1010241FA03FC10EB0C00C3F1200357
:100BF00001FA03F100F0004302D5494260EB4000E6
:100C0000B0F5000F13D3B0F1807F06D340084FEA50
:100C1000310102F10102FE2A51D2B1F1004F40EB45
:100C2000C25008BF20F0010040EA030070474900AD
:100C300040EB0000013A28BFB0F5000FEDD2B0FA4A
:100C400080FCACF1080CB2EB0C0200FA0CF0AABF6D
:100C500000EBC25052421843BCBFD040184370470B
:100C600092F0000F81F4000106BF80F40000013211
:100C7000013BB5E74FEA41037FEA226C18BF7FEAE8
:100C8000236C21D092EA030F04D092F0000F08BF2A
:100C90000846704790EA010F1CBF0020704712F011
:100CA0007F4F04D1400028BF40F00040704712F150
:100CB00000723CBF00F50000704700F0004343F0B5
:100CC000FE4040F4000070477FEA226216BF0846EB
:100CD0007FEA23630146420206BF5FEA412390EAAE
:100CE000010F40F4800070474FF0000304E000BFA4
:100CF00010F0004348BF40425FEA000C08BF704755
:100D000043F0964301464FF000001CE050EA010218
:100D100008BF70474FF000030AE000BF50EA01022D
:100D200008BF704711F0004302D5404261EB41011A
:100D30005FEA010C02BF84460146002043F0B6433F
:100D400008BFA3F18053A3F50003BCFA8CF2083A64
:100D5000A3EBC25310DB01FA02FC634400FA02FC6D
:100D6000C2F12002BCF1004F20FA02F243EB020074
:100D700008BF20F00100704702F1200201FA02FCD6
:100D8000C2F1200250EA4C0021FA02F243EB0200C9
:100D900008BF20EADC7070474FF0FF0C1CEAD0520D
:100DA0001EBF1CEAD15392EA0C0F93EA0C0F6FD0CE
:100DB0001A4480EA010C400218BF5FEA41211ED0AC
:100DC0004FF0006343EA501043EA5111A0FB013198
:100DD0000CF00040B1F5000F3EBF490041EAD3716D
:100DE0005B0040EA010062F17F02FD2A1DD8B3F1E9
:100DF000004F40EBC25008BF20F00100704790F058
:100E0000000F0CF0004C08BF49024CEA502040EAA9
:100E100051207F3AC2BFD2F1FF0340EAC25070476F
:100E200040F400004FF00003013A5DDC12F1190FAD
:100E3000DCBF00F000407047C2F10002410021FA1F
:100E400002F1C2F1200200FA02FC5FEA310040F137
:100E5000000053EA4C0308BF20EADC70704792F0B0
:100E6000000F00F0004C02BF400010F4000F013AE8
:100E7000F9D040EA0C0093F0000F01F0004C02BFE3
:100E8000490011F4000F013BF9D041EA0C018FE752
:100E90000CEAD15392EA0C0F18BF93EA0C0F0AD058
:100EA00030F0004C18BF31F0004CD8D180EA01007E
:100EB00000F00040704790F0000F17BF90F0004F17
:100EC000084691F0000F91F0004F14D092EA0C0FF9
:100ED00001D142020FD193EA0C0F03D14B0218BF8C
:100EE000084608D180EA010000F0004040F0FE40D2
:100EF00040F40000704740F0FE4040F4400070476E
:100F00004FF0FF0C1CEAD0521EBF1CEAD15392EAEC
:100F10000C0F93EA0C0F69D0A2EB030280EA010CDC
:100F200049024FEA402037D04FF0805343EA111175
:100F300043EA10130CF000408B4238BF5B0042F1D3
:100F40007D024FF4000C8B4224BF5B1A40EA0C0078
:100F5000B3EB510F24BFA3EB510340EA5C00B3EBAA
:100F6000910F24BFA3EB910340EA9C00B3EBD10F98
:100F700024BFA3EBD10340EADC001B0118BF5FEAEA
:100F80001C1CE0D1FD2A3FF650AF8B4240EBC25013
:100F900008BF20F0010070470CF0004C4CEA5020D4
:100FA0007F32C2BFD2F1FF0340EAC250704740F423
:100FB00000004FF00003013A37E792F0000F00F015
:100FC000004C02BF400010F4000F013AF9D040EA93
:100FD0000C0093F0000F01F0004C02BF490011F427
:100FE000000F013BF9D041EA0C0195E70CEAD1531F
:100FF00092EA0C0F08D142027FF47DAF93EA0C0F06
:101000007FF470AF084676E793EA0C0F04D14B02E9
:101010003FF44CAF08466EE730F0004C18BF31F09B
:10102000004CCAD130F000427FF45CAF31F0004395
:101030007FF43CAF5FE700BF4FF0FF3C06E000BF2E
:101040004FF0010C02E000BF4FF0010C4DF804CD51
:101050004FEA40024FEA41037FEA226C18BF7FEA61
:10106000236C11D001B052EA530C18BF90EA010F63
:1010700058BFB2EB030088BFC81738BF6FEAE170F2
:1010800018BF40F0010070477FEA226C02D15FEA8E
:10109000402C05D17FEA236CE4D15FEA412CE1D0FA
:1010A0005DF8040B704700BF844608466146FFE7C1
:1010B0000FB5FFF7C9FF002848BF10F1000F0FBDA3
:1010C0004DF808EDFFF7F4FF0CBF012000205DF89C
:1010D00008FB00BF4DF808EDFFF7EAFF34BF012021
:1010E00000205DF808FB00BF4DF808EDFFF7E0FFBA
:1010F00094BF012000205DF808FB00BF4DF808ED0B
:10110000FFF7D2FF94BF012000205DF808FB00BF6D
:101110004DF808EDFFF7C8FF34BF012000205DF84F
:1011200008FB00BF38B50022002304460D46FFF738
:101130004FFC28B920462946BDE8384000F00AB8DF
:10114000204605F1004100F005F8404261EB410105
:1011500038BD00BFD0B500220B4B06460F46FFF747
:10116000C5F9FFF79BFC0446FFF746F90022074B41
:10117000FFF7BCF902460B4630463946FEF7FEFF44
:10118000FFF78CFC2146D0BD0000F03D0000F0418F
:1011900080B584B000AF0023FB60102000F03EF863
:1011A000F860F868FFF728F915A3D3E90023FFF7E3
:1011B000C7FA02460B461046194613A3D3E900238B
:1011C000FFF794F902460B4610461946FFF786FCD6
:1011D0000346BB600E49B868FFF7D4FC03460D49CF
:1011E0001846FFF78DFE03460B491846FFF7CCFC67
:1011F00003467B607B6818461037BD4680BD00BF44
:101200000000000000FEAF406666666666660A4043
:101210003D0AB73F9A9989400000C84180B586B021
:1012200000AF786007F1080300221A605A609A60E4
:1012300000237B617B68BB600123FB6005233B616E
:1012400007F108031946104802F0CCF90346002BB9
:1012500002D04FF0FF3312E00B4801F0D7FF4FF000
:10126000FF31094802F0ACF80346002B03D10648D1
:1012700002F0ACF97861044802F076F87B69184610
:101280001837BD4680BD00BFF801002080B582B090
:1012900000AF00237B600020FFF7C0FF7860786814
:1012A000FFF722FD034608491846FFF729FE0346CB
:1012B0003B6039684FF07E50FFF764FC03461846E8
:1012C0000837BD4680BD00BF00F07F4580B582B0C5
:1012D00000AF00237B600120FFF7A0FF78607868F3
:1012E000FFF702FD034608491846FFF709FE0346CB
:1012F0003B6039684FF07E50FFF744FC03461846C8
:101300000837BD4680BD00BF00F07F4500000000EB
:10131000B0B586B000AFFFF7D9FF7861464B1B68C8
:101320001B6C3B617869FFF789F83FA3D3E9002381
:10133000FFF74EFB0346002B0BD03F4BDB68023B15
:101340003A699A425BD23C4B1B683A6902321A6492
:1013500055E04FF07D517869FFF7DAFE0346002B28
:101360000DD03B69022B05D9334B1B683A69023A11
:101370001A6444E0304B1B6800221A643FE03B696A
:10138000022B38BF0223023BFB602B4B1B68FA6821
:101390001A64322001F03EFEFFF798FFB860B8688B
:1013A000FFF74CF804460D467869FFF747F820A38D
:1013B000D3E90023FEF7E2FE02460B46204629460B
:1013C000FFF71AFB0346002B15D0B868FFF736F875
:1013D00004460D467869FFF731F815A3D3E90023D9
:1013E000FEF7CEFE02460B4620462946FFF7FAFAE4
:1013F0000346002B03D1104B1B683A691A640E4B4D
:101400001B681B6C7B600C4BDB687A689A4204D9C2
:10141000094B1B68084AD2681A6400BF1837BD46DA
:10142000B0BD00BFAFF30080999999999999E13FB8
:101430009A9999999999A93FFC020020000000000F
:1014400080B584B000AF7860FFF720FFF860F868DF
:10145000FEF7F4FF10A3D3E90023FFF7B9FA034620
:10146000002B03D07B6800221A700EE0F868FEF7AC
:10147000E5FF0BA3D3E90023FFF7C8FA0346002BCF
:1014800000D102E07B6801221A7000BF1037BD4610
:1014900080BD00BFAFF30080333333333333D33FEA
:1014A000333333333333E33F80B586B000AF034685
:1014B0000A46FB711346BB710023FB750123BB7504
:1014C00001237B75FB79032B22D801A252F823F06C
:1014D000E1140008ED140008F914000805150008CF
:1014E0001C4B3B614FF48053FB8113E0194B3B6174
:1014F0004FF40053FB810DE0164B3B614FF48043EA
:10150000FB8107E0134B3B614FF40043FB8101E09B
:1015100001231AE015E0012001F07CFDFB8919464A
:10152000386902F0E5FD03467B757A7DBB7D9A4202
:1015300003D1FB7D0133FB7501E00023FB757B7D4F
:10154000BB75FB7D062BE6D97B7D18461837BD465B
:1015500080BD00BF000C014080B500AF0122012119
:101560000A4802F0DCFD01220221084802F0D7FD02
:1015700001224FF48061054802F0D1FD01224FF4B1
:101580000061024802F0CBFD00BF80BD000C0140AD
:1015900090B589B000AF354B3C1D0FCB84E80F00F0
:1015A0000023BB7759E0BB7F032B21D801A252F85F
:1015B00023F000BFC5150008CF150008D915000895
:1015C000E51500082A4BBB610123FB8215E0284B7F
:1015D000BB610223FB8210E0254BBB614FF48063AB
:1015E000FB820AE0224BBB614FF40063FB8204E004
:1015F0000023BB610023FB8200BFFB8A0022194647
:10160000B86902F08CFD0023FB771AE0BA7FFB7FFC
:1016100011461846FFF748FF0346002B0ED1FB8A00
:1016200001221946B86902F07AFDFA7FBB7F920069
:1016300020323A4413441C3B1B7812E0FB7F0133F9
:10164000FB77FB7F032BE1D9FB8A01221946B8699E
:1016500002F065FDBB7F0133BB77BB7F032BA2D9B3
:10166000002318462437BD4690BD00BF009D0008EA
:10167000000C014080B584B000AF78600023FB818E
:1016800003220021786805F0D4FD3BE0FFF780FFDE
:1016900003467B737B7B002B34D07B7B2F2B17D9AE
:1016A0007B7B392B14D8B7F90E2093B201339BB250
:1016B000FB817B6813447A7B1A7000F0ACFA2F49E7
:1016C000012000F08EFA7968022000F08AFA16E014
:1016D0007B7B232B1BD07B7B2A2B10D10322002169
:1016E000786805F0A6FD0023FB8100F094FA2349F9
:1016F000012000F076FA7968022000F072FA642086
:1017000001F088FCB7F90E30012BBFDD00E000BF0F
:10171000B7F90E307A68134400221A70786804F022
:10172000FDF902460B4610461946FFF7D7F9034666
:10173000BB601349B868FFF7E1FC0346002B09D0F2
:101740004FF08441B868FFF7CFFC0346002B01D06F
:10175000BB680EE000F05FFA0A49012000F041FA90
:101760000949022000F03DFA4FF4FA6001F052FC02
:10177000064B18461037BD4680BD00BF109D0008BF
:1017800000009841209D0008309D0008000080BFA7
:1017900080B584B000AF78600023FB7300F03BFAA3
:1017A0002D49012000F01DFA2C49022000F019FA01
:1017B00007220021786805F03CFD3FE0FFF7E8FED6
:1017C0000346BB73BB7B002B38D0BB7B2F2B18D9B8
:1017D000BB7B392B15D8FB7B5A1CFA731A467B68E6
:1017E0001344BA7B1A7000F016FA1B49012000F06E
:1017F000F8F9786800F0E0F91849022000F0F1F9F2
:1018000019E0BB7B232B1DD0BB7B2A2B13D10722D6
:101810000021786805F00DFD0023FB7300F0FBF953
:101820000D49012000F0DDF9786800F0C5F90B4999
:10183000022000F0D6F9642001F0ECFBFB7B052BC5
:10184000BCD900E000BFFB7B7A68134400221A7009
:1018500000BF1037BD4680BD409D0008489D000870
:1018600080B584B000AF786039600023FB7300F06E
:10187000D2F97968012000F0B4F93149022000F072
:10188000B0F907220021386805F0D3FC49E0FFF7E2
:101890007FFE03467B737B7B002B42D07B7B2F2B11
:1018A00022D97B7B392B1FD8FB7B5A1CFA731A4633
:1018B0003B6813447A7B1A7000F0ADF97968012017
:1018C00000F08FF91E49022000F08BF90023BB7352
:1018D00005E01C4800F070F9BB7B0133BB73BA7B99
:1018E000FB7B9A42F5D319E07B7B232B1DD07B7BBE
:1018F0002A2B13D107220021386805F09AFC002317
:10190000FB7300F088F97968012000F06AF90C494E
:10191000022000F066F9386800F04EF9642001F00A
:1019200079FBFB7B052BB2D900E000BFFB7B3A685B
:10193000134400221A7000BF1037BD4680BD00BF9F
:10194000489D0008509D000880B582B000AF034656
:10195000FB7100220821414802F0E1FB0122102125
:101960003E4802F0DCFBFB791B11DBB203F0010304
:10197000DBB21A464FF40071394802F0D0FBFB7914
:101980005B11DBB203F00103DBB21A464FF4806156
:10199000334802F0C4FBFB799B11DBB203F0010377
:1019A000DBB21A464FF400612D4802F0B8FBFB7918
:1019B000DB09DBB21A464FF48051294802F0AFFB35
:1019C000012001F027FB00221021244802F0A7FB90
:1019D000012001F01FFB01221021204802F09FFB93
:1019E000FB7903F00103DBB21A464FF400711C4887
:1019F00002F095FBFB795B10DBB203F00103DBB275
:101A00001A464FF48061164802F089FBFB799B105F
:101A1000DBB203F00103DBB21A464FF40061104859
:101A200002F07DFBFB79DB10DBB203F00103DBB2DC
:101A30001A464FF480510A4802F071FB012001F070
:101A4000E9FA00221021054802F069FB012001F0AB
:101A5000E1FA00BF0837BD4680BD00BF000C014061
:101A60000008014080B582B000AF0346FB7101223F
:101A70000821414802F053FB012210213E4802F0A8
:101A80004EFBFB791B11DBB203F00103DBB21A46FC
:101A90004FF40071394802F042FBFB795B11DBB275
:101AA00003F00103DBB21A464FF48061334802F0C1
:101AB00036FBFB799B11DBB203F00103DBB21A4664
:101AC0004FF400612D4802F02AFBFB79DB09DBB201
:101AD0001A464FF48051294802F021FB012001F001
:101AE00099FA00221021244802F019FB012001F08C
:101AF00091FA01221021204802F011FBFB7903F03A
:101B00000103DBB21A464FF400711C4802F007FBD8
:101B1000FB795B10DBB203F00103DBB21A464FF432
:101B20008061164802F0FBFAFB799B10DBB203F0F0
:101B30000103DBB21A464FF40061104802F0EFFADD
:101B4000FB79DB10DBB203F00103DBB21A464FF482
:101B500080510A4802F0E3FA012001F05BFA00220A
:101B60001021054802F0DBFA012001F053FA00BF12
:101B70000837BD4680BD00BF000C01400008014091
:101B800080B500AF322001F045FA3320FFF7DCFECC
:101B90003220FFF7D9FE2820FFF7D6FE0C20FFF7F2
:101BA000D3FE0620FFF7D0FE0120FFF7CDFE022076
:101BB00001F030FA00BF80BD80B582B000AF786020
:101BC00006E07B685A1C7A601B781846FFF74AFFCC
:101BD0007B681B78002BF4D100BF00BF0837BD46DF
:101BE00080BD80B582B000AF03463960FB71FB79E0
:101BF000012B03D18020FFF7A7FE05E0FB79022B24
:101C000002D1C020FFF7A0FE3868FFF7D5FF00BF64
:101C10000837BD4680BD80B500AF0120FFF794FEB8
:101C2000022001F0F7F900BF80BD000080B584B04C
:101C300000AF78600B46FB700023FB81FFF7EBFFE2
:101C4000B7F90E309B007A6813441B6819460120CF
:101C5000FFF7C7FF2A490220FFF7C3FFFFF798FCF1
:101C600003467B737B7B002BF8D07B7B422B06D01B
:101C7000422B3FDC232B3AD0412B1DD03AE0B7F961
:101C80000E305A1EFB781344FA7893FBF2F101FBF5
:101C900002F29B1AFB81FFF7BEFFB7F90E309B00E3
:101CA0007A6813441B6819460120FFF79AFF14490C
:101CB0000220FFF796FF1EE0B7F90E300133FA78E5
:101CC00093FBF2F101FB02F29B1AFB81FFF7A3FFEA
:101CD000B7F90E309B007A6813441B68194601203F
:101CE000FFF77FFF06490220FFF77BFF03E0FB8938
:101CF000DBB201E000BFB1E718461037BD4680BD3A
:101D0000549D000880B582B000AF78607B681B6886
:101D1000384A934247D14FF40051374802F017FA3E
:101D2000364B1B78DBB20133DAB2344B1A70334BCB
:101D30001B78DAB2324B1B78DBB29A420DD3314BAF
:101D40001B78DBB2012B08D1002208212E4802F0BB
:101D5000E6F92C4B00221A7025E0284B1B78DAB2EA
:101D6000274B1B78DBB29A4210D2264B1B78DBB292
:101D7000002B0BD101220821234802F0D0F91F4B80
:101D800000221A701F4B01221A700CE01B4B1B78AB
:101D9000DBB23B2B07D91B4B1B78DBB2002B02D1EC
:101DA000164B00221A707B681B68B3F1804F1DD15F
:101DB000FFF7EEF90346154A1360144B1B68144AEB
:101DC000126811461846FFF7A3F90346002B03D00B
:101DD000104B01221A7002E00E4B00221A700E48BE
:101DE000FFF72EFB00F0D4FAFFF792FA00BF083796
:101DF000BD4680BD000400400010014044030020A7
:101E00000000002045030020000801404803002096
:101E100004000020460300200100002080B582B0AD
:101E200000AF01F095F800F04FF800F01FFA00F055
:101E3000FFF900F0A5F800F02FF900F07BF900F0B1
:101E4000DDF81D4802F054FF1C4802F051FF0C2140
:101E50001B4802F0F7FFFFF793FEFFF77DFBFFF74C
:101E600097FB0346FB71FB79002B01D000F05AFB76
:101E7000144B1B78DBB2042BF1D801A252F823F0EB
:101E8000951E00089B1E0008A11E0008A71E000842
:101E9000AD1E000800F0BEFC0CE000F0E9FC09E01B
:101EA00000F040FB06E000F043FD03E000F092FB91
:101EB00000BFD4E7D3E700BF6C020020B4020020CB
:101EC000FC0200204C03002080B594B000AF07F165
:101ED000280328220021184605F0ABF907F1140366
:101EE00000221A605A609A60DA601A613B1D002273
:101EF0001A605A609A60DA600123BB624FF4803343
:101F0000FB6200233B630123BB6302237B644FF42A
:101F10008033BB644FF4E013FB6407F128031846D9
:101F200002F02EF90346002B01D000F0B1FD0F2383
:101F30007B610223BB610023FB614FF480633B6242
:101F400000237B6207F114030221184602F09AFB7A
:101F50000346002B01D000F09BFD02237B604FF471
:101F60000043FB603B1D184602F006FD0346002BB4
:101F700001D000F08DFD00BF5037BD4680BD000090
:101F800080B584B000AF3B1D00221A605A609A6091
:101F9000184B194A1A60174B00229A60154B012200
:101FA0001A73144B00221A75124B4FF46022DA6137
:101FB000104B00225A600F4B01221A610D4801F0AC
:101FC0004DF80346002B01D000F062FD10237B602A
:101FD0000123BB600523FB603B1D1946054801F04A
:101FE00001FB0346002B01D000F052FD00BF10376B
:101FF000BD4680BDF80100200024014080B586B0B8
:1020000000AF07F1080300221A605A609A60DA6094
:102010003B4600221A605A601E4B4FF080421A6005
:102020001C4B48F69F425A601A4B10229A60194B7B
:1020300040F2E732DA60174B00221A61154B80221A
:102040009A61144802F004FE0346002B01D000F010
:102050001FFD4FF48053BB6007F1080319460D487C
:1020600003F05CF90346002B01D000F011FD0023C2
:102070003B6000237B603B461946064803F0DEFCCC
:102080000346002B01D000F003FD00BF1837BD460A
:1020900080BD00BF6C02002080B586B000AF07F1A4
:1020A000080300221A605A609A60DA603B460022F8
:1020B0001A605A601D4B1E4A1A601C4B41F61F42A3
:1020C0005A601A4B10229A60184B42F20F72DA6073
:1020D000164B00221A61154B80229A61134802F0B8
:1020E000B7FD0346002B01D000F0D2FC4FF4805323
:1020F000BB6007F1080319460C4803F00FF90346CB
:10210000002B01D000F0C4FC00233B6000237B6067
:102110003B461946054803F091FC0346002B01D0CD
:1021200000F0B6FC00BF1837BD4680BDB4020020E9
:102130000004004080B58EB000AF07F128030022F4
:102140001A605A609A60DA6007F1200300221A6070
:102150005A603B1D00221A605A609A60DA601A6168
:102160005A619A61304B314A1A602F4B41F61F4237
:102170005A602D4B00229A602B4B7722DA602A4B53
:1021800000221A61284B00229A61274802F060FD64
:102190000346002B01D000F07BFC4FF48053BB6260
:1021A00007F128031946204803F0B8F80346002B2E
:1021B00001D000F06DFC1C4802F0ECFD0346002B42
:1021C00001D000F065FC00233B6200237B6207F135
:1021D00020031946144803F031FC0346002B01D0BC
:1021E00000F056FC60237B603C23BB600023FB6057
:1021F00000237B613B1D0C2219460B4802F0CCFFEB
:102200000346002B01D000F043FC074B1B68DA6942
:10221000054B1B6822F40062DA61034800F02CFDD4
:1022200000BF3837BD4680BDFC02002000080040DA
:1022300080B582B000AF0C4B5B690B4A43F00103E1
:102240005361094B5B6903F001037B607B680022EB
:1022500000210B2001F031FC0B2001F04AFC00BFF3
:102260000837BD4680BD00BF0010024080B588B071
:1022700000AF07F1100300221A605A609A60DA601A
:102280003F4B9B693E4A43F0100393613C4B9B6973
:1022900003F01003FB60FB68394B9B69384A43F03D
:1022A00020039361364B9B6903F02003BB60BB683E
:1022B000334B9B69324A43F004039361304B9B6973
:1022C00003F004037B607B682D4B9B692C4A43F031
:1022D000080393612A4B9B6903F008033B603B684A
:1022E00000224FF40051274801F019FF002241F667
:1022F0000861254801F013FF002240F61B412348E6
:1023000001F00DFF4FF400533B6101237B6100237B
:10231000BB610323FB6107F110031946194801F063
:1023200063FD41F608633B6101237B610023BB61D0
:102330000323FB6107F110031946134801F054FD14
:1023400040F61B433B6101237B610023BB610323F8
:10235000FB6107F1100319460C4801F045FD4FF4ED
:1023600070433B6100237B610123BB6107F11003D4
:102370001946064801F038FD00BF2037BD4680BD34
:10238000001002400010014000080140000C014014
:1023900080B400AF5F4B1B78022B79D0022B00F387
:1023A000B580002B02D0012B39D0AFE05A4B1B78FF
:1023B000DBB2012B08D1594B1B78DBB2012B03D1C7
:1023C000574B11221A7029E0534B1B78DBB2012BBB
:1023D00008D1524B1B78DBB2002B03D1504B0F229C
:1023E0001A701BE04C4B1B78DBB2002B08D14B4B17
:1023F0001B78DBB2012B03D1494B0A221A700DE086
:10240000454B1B78DBB2002B7BD1444B1B78DBB2F6
:10241000002B76D1424B07221A7072E071E03E4BDE
:102420001B78DBB2012B08D13C4B1B78DBB2012BB4
:1024300003D13B4B0D221A7029E0374B1B78DBB2DE
:10244000012B08D1354B1B78DBB2002B03D1344B69
:102450000A221A701BE0304B1B78DBB2002B08D12C
:102460002E4B1B78DBB2012B03D12D4B06221A70A9
:102470000DE0294B1B78DBB2002B44D1274B1B7896
:10248000DBB2002B3FD1264B03221A703BE03AE02F
:10249000214B1B78DBB2012B08D1204B1B78DBB220
:1024A000012B03D11E4B13221A7029E01A4B1B7803
:1024B000DBB2012B08D1194B1B78DBB2002B03D107
:1024C000174B11221A701BE0134B1B78DBB2002B49
:1024D00008D1124B1B78DBB2012B03D1104B0D221C
:1024E0001A700DE00C4B1B78DBB2002B0DD10B4B9F
:1024F0001B78DBB2002B08D1094B0A221A7004E0CA
:1025000003E000BF02E000BF00E000BF00BFBD4627
:1025100080BC7047470300200100002046030020D4
:102520000000002090B587B000AF274B02221A7040
:10253000264B3C1D0FCB84E80F000423FB75FA7D6E
:102540003B1D11461846FFF771FB0346BB75BB7D6B
:10255000032B35D801A252F823F000BF6D250008E7
:1025600079250008A9250008B525000800F080F9A4
:10257000154B01221A7023E000F012FA03467B7516
:102580007B7D002B05D000F025F80F4B04221A703C
:1025900016E0FFF740FB0E490120FFF722FB40F653
:1025A000B83000F037FD0BE000F0C2F9064B032213
:1025B0001A7005E000F02EF9034B00221A7000BFDC
:1025C00000BF1C37BD4690BD4C030020B49D0008E1
:1025D000689D000880B584B000AF164A3B4607CA24
:1025E00083E807000323FB73FA7B3B46114618463A
:1025F000FFF71CFB0346BB73BB7B022B10D0022BE7
:1026000014DC002B02D0012B05D00FE000F016F8EF
:10261000FFF7BEFE0AE000F04FF8FFF7B9FE05E055
:1026200000F0F8F8044B00221A7000BF00BF10370A
:10263000BD4680BDE49D00084C03002080B582B0FB
:1026400000AFFFF7E8FA16490120FFF7CAFA3B4648
:102650001846FFF70FF8786012497868FEF730FDEA
:102660000346002B00D017E00F4A7B681360FFF78A
:10267000D2FA0E490120FFF7B4FA0D490220FFF704
:10268000B0FA3B461846FFF797FA0A48FFF794FA64
:1026900040F6B83000F0BEFC00BF0837BD4680BD34
:1026A000F09D0008000080BF04000020009E00088C
:1026B000149E00081C9E000880B588B000AF184A20
:1026C00007F1100307CA83E807000323FB77FA7FAB
:1026D00007F1100311461846FFF7A8FA03461A46F9
:1026E000104B1A700F4B1B783A461146184600F0F3
:1026F0001FF8FFF790FA0C490120FFF772FA3B46EA
:102700001846FFF759FA09490220FFF76AFA40F61E
:10271000B83000F07FFC00BF2037BD4680BD00BF51
:102720005C9E000847030020209E0008249E0008AD
:1027300080B483B000AF03463960FB71FB79022B94
:102740001AD0022B22DC002B02D0012B0AD01DE074
:102750003B6816491A460B4603CB106051601B7844
:1027600013721DE03B6812491A460B4603CB1060FA
:1027700051601B78137213E03B680E491A460B46F2
:1027800003CB106051601B78137209E03B680A4963
:102790001A460B4603CB106051601B78137200BFC2
:1027A00000BF0C37BD4680BC704700BF689E000864
:1027B000749E0008809E00088C9E000880B483B040
:1027C00000AF03463960FB71FB79002B02D0012B6F
:1027D00007D00BE03B680C4A1068186092889A801A
:1027E0000CE03B68094A1068186007E03B6808493C
:1027F0001A460B4603CB1060516000BF00BF0C3778
:10280000BD4680BC704700BF989E0008A09E00088F
:10281000A49E000880B584B000AF104B1B6818461A
:10282000FDF70CFE02460B4638460D4904F09EFCAF
:10283000FFF7F1F90B490120FFF7D3F90A4902200C
:10284000FFF7CFF93B461846FFF7B6F90748FFF701
:10285000B3F900BF1037BD4680BD00BF480300205C
:10286000AC9E0008B49E0008C49E00081C9E000890
:1028700080B584B000AF244B1B681846FDF7DEFD21
:1028800002460B463846214904F070FCFFF7C3F9B5
:102890001F490120FFF7A5F93B461846FFF78CF9C1
:1028A0001C48FFF789F91C4B1B681846FDF7C6FD4D
:1028B00002460B463846194904F058FC3B46184678
:1028C000FFF77AF91648FFF777F9164B1B783A4667
:1028D00011461846FFF72CFF3B4619460220FFF72A
:1028E00080F91148FFF768F9104B1B78DBB23A46C4
:1028F00011461846FFF762FF3B461846FFF75CF9A2
:1029000000BF1037BD4680BD48030020AC9E0008C4
:10291000CC9E0008D09E000804000020D89E00082D
:102920001C9E000847030020E09E000801000020D4
:1029300080B586B000AFFFF76EF916490120FFF7AA
:1029400050F9FEF7C3FC78617869FDF777FD024620
:102950000B46381D104904F009FC3B1D1846FFF7D3
:102960002BF90E490220FFF73CF9FEF78FFC786146
:102970007869FDF763FD02460B46381D064904F0F1
:10298000F5FB3B1D1846FFF717F900BF1837BD468A
:1029900080BD00BFE49E0008AC9E0008F09E0008C9
:1029A00080B588B000AF07F118031846FEF7F0FEB7
:1029B000164A07F1080392E80300186004331980EF
:1029C00002330A0C1A7007F10F0300221A605A60D2
:1029D0001A7207F1180107F108030722184604F0DC
:1029E00030FC3A4607F1080311461846FEF738FF57
:1029F0003A4607F118031146184600F009F8034655
:102A0000FB77FB7F18462037BD4680BDFC9E000843
:102A100080B586B000AF786039607B681B78002B8A
:102A20002FD03B681B78002B2BD0184A07F11003DE
:102A300092E8030018600433198002330A0C1A70FC
:102A4000124A07F1080392E8030018600433198062
:102A500002330A0C1A7007F1100379681846FDF763
:102A600077FB0346002B0AD107F1080339681846A3
:102A7000FDF76EFB0346002B01D1012301E000238B
:102A8000FFE718461837BD4680BD00BF0C9F000801
:102A900080B400AF72B600BF00BFFDE780B485B060
:102AA00000AF154B9B69144A43F001039361124B2D
:102AB0009B6903F00103BB60BB680F4BDB690E4AE7
:102AC00043F08053D3610C4BDB6903F080537B6090
:102AD0007B680A4B5B68FB60FB6823F0E063FB608C
:102AE000FB6843F08063FB60044AFB68536000BFEF
:102AF0001437BD4680BC7047001002400000014002
:102B000080B588B000AF786007F1100300221A602A
:102B10005A609A60DA607B681B68284A934249D100
:102B2000274B9B69264A43F400739361244B9B69AE
:102B300003F40073FB60FB68214B9B69204A43F060
:102B4000040393611E4B9B6903F00403BB60BB68E5
:102B500003233B6103237B6107F1100319461948E6
:102B600001F042F9184B194A1A60174B00225A60BB
:102B7000154B00229A60144B8022DA60124B4FF4FE
:102B800080721A61104B4FF480625A610E4B002222
:102B90009A610D4B0022DA610B4800F0C5FF034635
:102BA000002B01D0FFF774FF7B68074A1A62064AC0
:102BB0007B68536200BF2037BD4680BD00240140C2
:102BC00000100240000801402802002008000240D6
:102BD00080B586B000AF78607B681B68B3F1804F2A
:102BE00014D1224BDB69214A43F00103D3611F4B0F
:102BF000DB6903F001037B617B69002200211C205B
:102C000000F05BFF1C2000F074FF2AE07B681B686B
:102C1000174A934214D1154BDB69144A43F002035F
:102C2000D361124BDB6903F002033B613B69002275
:102C300000211D2000F041FF1D2000F05AFF10E090
:102C40007B681B680B4A93420BD1084BDB69074A30
:102C500043F00403D361054BDB6903F00403FB601D
:102C6000FB6800BF1837BD4680BD00BF00100240A2
:102C7000000400400008004080B588B000AF7860D4
:102C800007F1100300221A605A609A60DA607B68CC
:102C90001B68104A934218D10F4B9B690E4A43F0B0
:102CA000080393610C4B9B6903F00803FB60FB680E
:102CB0004FF400733B6102237B610223FB6107F148
:102CC00010031946054801F08FF800BF2037BD46B4
:102CD00080BD00BF0008004000100240000C014011
:102CE00080B400AF00BFFDE780B400AF00BFFDE7D8
:102CF00080B400AF00BFFDE780B400AF00BFFDE7C8
:102D000080B400AF00BFFDE780B400AF00BFBD4698
:102D100080BC704780B400AF00BFBD4680BC704728
:102D200080B400AF00BFBD4680BC704780B500AF27
:102D300000F054F900BF80BD80B500AF024800F03C
:102D40004DFF00BF80BD00BF2802002080B500AF4E
:102D5000024802F019F900BF80BD00BF6C020020DC
:102D600080B500AF024802F00FF900BF80BD00BF80
:102D7000B402002080B400AF01231846BD4680BCD9
:102D8000704780B582B000AF7860396004F0C8FA4F
:102D9000034616221A604FF0FF3318460837BD4627
:102DA00080BD80B582B000AF78604FF0FF317868A9
:102DB000FFF7E7FF00BFFDE780B586B000AFF86022
:102DC000B9607A6000237B610AE0AFF300800146BE
:102DD000BB685A1CBA60CAB21A707B6901337B6146
:102DE0007A697B689A42F0DB7B6818461837BD46E3
:102DF00080BD80B586B000AFF860B9607A6000230E
:102E00007B6109E0BB685A1CBA601B781846AFF3B7
:102E100000807B6901337B617A697B689A42F1DBD0
:102E20007B6818461837BD4680BD80B483B000AFBC
:102E300078604FF0FF3318460C37BD4680BC7047B2
:102E400080B483B000AF786039603B684FF40052C3
:102E50005A60002318460C37BD4680BC704780B4CA
:102E600083B000AF7860012318460C37BD4680BCA4
:102E7000704780B485B000AFF860B9607A60002315
:102E800018461437BD4680BC7047000080B586B038
:102E900000AF7860144A154BD31A7B617B693B61A4
:102EA000134B1B68002B02D1114B124A1A60104BB6
:102EB0001A687B6813443A699A4207D204F030FAE0
:102EC00003460C221A604FF0FF3309E0084B1B68E1
:102ED000FB60074B1A687B681344054A1360FB6864
:102EE00018461837BD4680BD005000200004000081
:102EF00050030020A804002080B400AF00BFBD46EE
:102F000080BC7047FFF7F8FF0B480C490C4A0023C0
:102F100002E0D458C4500433C4188C42F9D3094A8F
:102F2000094C002301E013600432A242FBD304F0F9
:102F3000FDF9FEF773FF704700000020DC01002060
:102F400088A30008DC010020A4040020FEE70000A4
:102F500080B500AF084B1B68074A43F010031360AD
:102F6000032000F09FFD0F2000F008F8FFF796FD0A
:102F70000023184680BD00BF0020024080B582B00B
:102F800000AF7860124B1A68124B1B7819464FF449
:102F90007A73B3FBF1F3B2FBF3F3184600F0B7FD1D
:102FA0000346002B01D001230EE07B680F2B0AD8CB
:102FB000002279684FF0FF3000F07FFD064A7B6801
:102FC0001360002300E0012318460837BD4680BD8A
:102FD00008000020100000200C00002080B400AF8A
:102FE000054B1B781A46054B1B681344034A1360B4
:102FF00000BFBD4680BC7047100000205403002075
:1030000080B400AF024B1B681846BD4680BC7047B9
:103010005403002080B584B000AF7860FFF7F0FF64
:10302000B8607B68FB60FB68B3F1FF3F05D00A4BDB
:103030001B781A46FB681344FB6000BFFFF7E0FFF4
:103040000246BB68D31AFA689A42F7D800BF00BF9D
:103050001037BD4680BD00BF1000002080B586B08F
:1030600000AF78600023FB7500233B610023BB6049
:103070000023FB607B68002B01D10123BEE07B684D
:103080009B68002B7B689B6A002B09D17B68002220
:10309000DA627B68002283F824207868FFF730FD2D
:1030A000786800F0F1FB0346FB757B689B6A03F0D0
:1030B0001003002B40F09980FB7D002B40F09580A1
:1030C0007B689B6A23F4885323F0020343F00202D7
:1030D0007B689A627B685A687B68DB691A437B6805
:1030E0001B7B5B001343BA681343BB607B689B6820
:1030F000B3F5807F03D07B689B68012B02D14FF42E
:10310000807300E000233A6913433B617B681B7DB9
:10311000012B19D17B681B7B002B09D17B689B6934
:10312000013B5A033B69134343F400633B610BE0EB
:103130007B689B6A43F020027B689A627B68DB6A4B
:1031400043F001027B68DA627B681B685B6823F4EA
:1031500069417B681B683A690A435A607B681B684F
:103160009A68284B13407A681268B9680B439360D9
:103170007B689B68B3F5807F03D07B689B68012BDD
:1031800004D17B681B69013B1B05FB607B681B68E6
:10319000DB6A23F470017B681B68FA680A43DA6211
:1031A0007B681B689A68184B1340BA689A420BD127
:1031B0007B680022DA627B689B6A23F0030343F09A
:1031C00001027B689A6218E07B689B6A23F0120315
:1031D00043F010027B689A627B68DB6A43F001026D
:1031E0007B68DA620123FB7507E07B689B6A43F02A
:1031F00010027B689A620123FB75FB7D1846183725
:10320000BD4680BDFDF7E1FFFE0E1FFF80B584B017
:1032100000AF78600023FB737B6893F82430012BA8
:1032200001D1022398E07B68012283F8242078688A
:1032300000F0D0FA0346FB73FB7B002B40F0878045
:103240007B689B6A23F4407323F0010343F480728C
:103250007B689A627B681B68414A934205D1414B67
:103260005B6803F47023002B15D17B689B6A23F401
:1032700080127B689A627B681B685B6803F48063DA
:10328000002B26D07B689B6A23F4405343F4805282
:103290007B689A621DE07B689B6A43F480127B68BE
:1032A0009A627B681B682F4A934204D07B681B6834
:1032B0002B4A93420DD12B4B5B6803F48063002BA8
:1032C00007D07B689B6A23F4405343F480527B68A9
:1032D0009A627B689B6A03F48053002B06D07B685C
:1032E000DB6A23F006027B68DA6202E07B68002278
:1032F000DA627B68002283F824207B681B686FF009
:1033000002021A607B681B689B6803F46023B3F5B4
:10331000602F13D17B681B68114A934205D1114B72
:103320005B6803F47023002B08D17B681B689A68E4
:103330007B681B6842F4A0029A600CE07B681B6803
:103340009A687B681B6842F480129A6003E07B688D
:10335000002283F82420FB7B18461037BD4680BD31
:10336000002801400024014080B584B000AF78609F
:103370000023FB737B6893F82430012B01D10223D7
:103380001AE07B68012283F82420786800F07CFA38
:103390000346FB73FB7B002B09D17B689B6A23F4FC
:1033A000885323F0010343F001027B689A627B6833
:1033B000002283F82420FB7B18461037BD4680BDD1
:1033C00090B587B000AF7860396000237B6100233F
:1033D000FB6000233B61FFF713FE78617B681B688D
:1033E0009B6803F48073002B0BD07B689B6A43F0CF
:1033F00020027B689A627B68002283F824200123E4
:10340000D3E07B681B685B6803F48073002B31D1C9
:103410007B681B68DB6A03F47003002B2AD121E070
:103420003B68B3F1FF3F1DD03B68002B07D0FFF78F
:10343000E7FD02467B69D31A3A689A4212D27B684A
:103440001B681B6803F00203002B0BD17B689B6A8F
:1034500043F004027B689A627B68002283F8242090
:103460000323A2E07B681B681B6803F00203002BA8
:10347000D6D070E04F4B1C68022001F033FB0346AE
:10348000B4FBF3F27B681B6819694B4B0B40002BB4
:1034900018D17B681B68D968484B0B40002B11D1B1
:1034A0007B681B681969464B0B40002B08D17B6871
:1034B0001B68D968434B0B40002B01D1142320E03B
:1034C00029231EE07B681B6819693D4B0B40002BCC
:1034D00006D17B681B68D9683A4B0B40002B0DD096
:1034E0007B681B681969384B0B40002B08D17B683F
:1034F0001B68D968344B0B40002B01D1542300E0EA
:10350000FC2302FB03F33B6121E03B68B3F1FF3F87
:103510001AD03B68002B07D0FFF772FD02467B698B
:10352000D31A3A689A420FD2FB683A699A420BD989
:103530007B689B6A43F004027B689A627B68002286
:1035400083F82420032330E0FB680133FB60FB6831
:103550003A699A42D9D87B681B686FF012021A60E8
:103560007B689B6A43F400727B689A627B681B6885
:103570009B6803F46023B3F5602F15D17B681B7B38
:10358000002B11D17B689B6A23F480727B689A625E
:103590007B689B6A03F48053002B05D17B689B6A90
:1035A00043F001027B689A62002318461C37BD462F
:1035B00090BD00BF080000202449922424499200B5
:1035C00092244912922449004992240080B483B085
:1035D00000AF78607B681B68DB6C18460C37BD4613
:1035E00080BC704780B485B000AF7860396000233C
:1035F000FB730023BB607B6893F82430012B01D15F
:103600000223DCE07B68012283F824203B685B68AE
:10361000062B1CD87B681B68596B3B685A6813469D
:103620009B001344053B1F2202FA03F3DB431940BE
:103630003B6818683B685A6813469B001344053B77
:1036400000FA03F27B681B680A435A633CE03B685C
:103650005B680C2B1CD87B681B68196B3B685A682D
:1036600013469B001344233B1F2202FA03F3DB4360
:1036700019403B6818683B685A6813469B0013441E
:10368000233B00FA03F27B681B680A431A631BE0C2
:103690007B681B68D96A3B685A6813469B001344D1
:1036A000413B1F2202FA03F3DB4319403B681868D1
:1036B0003B685A6813469B001344413B00FA03F2EF
:1036C0007B681B680A43DA623B681B68092B1CD9BC
:1036D0007B681B68D9683B681A6813465B00134413
:1036E0001E3B072202FA03F3DB4319403B6898684C
:1036F0003B681A6813465B0013441E3B00FA03F252
:103700007B681B680A43DA6019E07B681B681969EB
:103710003B681A6813465B001344072202FA03F35E
:10372000DB4319403B6898683B681A6813465B00A6
:10373000134400FA03F27B681B680A431A613B6872
:103740001B68102B03D03B681B68112B32D17B68A0
:103750001B681D4A934225D17B681B689B6803F454
:103760000003002B26D17B681B689A687B681B6866
:1037700042F400029A603B681B68102B1AD1134B6D
:103780001B68134AA2FB03239A0C13469B001344A5
:103790005B00BB6002E0BB68013BBB60BB68002B09
:1037A000F9D107E07B689B6A43F020027B689A624C
:1037B0000123FB737B68002283F82420FB7B1846DF
:1037C0001437BD4680BC704700240140080000202B
:1037D00083DE1B4380B584B000AF78600023FB60BC
:1037E0000023BB607B681B689B6803F00103012B0F
:1037F00040D07B681B689A687B681B6842F00102B6
:103800009A601F4B1B681F4AA2FB03239B0CBB60E3
:1038100002E0BB68013BBB60BB68002BF9D1FFF73E
:10382000EFFBF8601FE0FFF7EBFB0246FB68D31AE3
:10383000022B18D97B681B689B6803F00103012BDE
:1038400011D07B689B6A43F010027B689A627B68A8
:10385000DB6A43F001027B68DA627B68002283F84E
:103860002420012307E07B681B689B6803F00103A9
:10387000012BD8D1002318461037BD4680BD00BFAC
:103880000800002083DE1B4380B584B000AF786061
:103890000023FB607B681B689B6803F00103012B1E
:1038A0002ED17B681B689A687B681B6822F0010236
:1038B0009A60FFF7A5FBF8601BE0FFF7A1FB02464B
:1038C000FB68D31A022B14D97B681B689B6803F032
:1038D0000103012B0DD17B689B6A43F010027B68CA
:1038E0009A627B68DB6A43F001027B68DA6201233B
:1038F00007E07B681B689B6803F00103012BDCD0A9
:10390000002318461037BD4680BD000080B485B046
:1039100000AF78607B6803F00703FB600C4BDB684B
:10392000BB60BA684FF6FF031340BB60FB681A0226
:10393000BB68134343F0BF6343F40033BB60044AE6
:10394000BB68D36000BF1437BD4680BC704700BF62
:1039500000ED00E080B400AF044BDB681B0A03F00D
:1039600007031846BD4680BC704700BF00ED00E06D
:1039700080B483B000AF0346FB7197F90730002B8A
:103980000BDBFB7903F01F02064997F907305B094F
:10399000012000FA02F241F8232000BF0C37BD4697
:1039A00080BC704700E100E080B483B000AF034604
:1039B0003960FB7197F90730002B0ADB3B68DAB2FC
:1039C0000C4997F907301201D2B20B4483F8002357
:1039D0000AE03B68DAB20849FB7903F00F03043BC5
:1039E0001201D2B20B441A7600BF0C37BD4680BC20
:1039F000704700BF00E100E000ED00E080B489B056
:103A000000AFF860B9607A60FB6803F00703FB6100
:103A1000FB69C3F10703042B28BF0423BB61FB69C7
:103A20000433062B02D9FB69033B00E000237B61D2
:103A30004FF0FF32BB6902FA03F3DA43BB681A4066
:103A40007B699A404FF0FF317B6901FA03F3D94358
:103A50007B680B40134318462437BD4680BC704733
:103A600080B582B000AF78607B68013BB3F1807FA6
:103A700001D301230FE00A4A7B68013B53600F2109
:103A80004FF0FF30FFF790FF054B00229A60044B88
:103A900007221A60002318460837BD4680BD00BFC4
:103AA00010E000E080B582B000AF78607868FFF782
:103AB0002DFF00BF0837BD4680BD80B586B000AF82
:103AC0000346B9607A60FB7300237B61FFF742FF16
:103AD00078617A68B9687869FFF790FF024697F9CC
:103AE0000F3011461846FFF75FFF00BF1837BD467D
:103AF00080BD80B582B000AF0346FB7197F90730F7
:103B00001846FFF735FF00BF0837BD4680BD80B5BA
:103B100082B000AF78607868FFF7A2FF03461846CE
:103B20000837BD4680BD000080B485B000AF786026
:103B30000023FB607B68002B01D1012343E07B68FD
:103B40001B681A46224B1344224AA2FB03231B097B
:103B50009A007B681A647B681F4ADA637B680222DA
:103B600083F821207B681B681B68FB60FB6823F4DB
:103B70007F5323F03003FB607B685A687B689B6847
:103B80001A437B68DB681A437B681B691A437B68AE
:103B90005B691A437B689B691A437B68DB69134343
:103BA000FA681343FB607B681B68FA681A607B68DD
:103BB00000229A637B68012283F821207B6800221F
:103BC00083F82020002318461437BD4680BC704778
:103BD000F8FFFDBFCDCCCCCC0000024080B584B056
:103BE00000AF78607B68DB6B1B68FB607B681B68E1
:103BF0001B68BB607B681B6C04229A40FB68134007
:103C0000002B4FD0BB6803F00403002B4AD07B6825
:103C10001B681B6803F02003002B07D17B681B681F
:103C20001A687B681B6822F004021A607B681B68B4
:103C3000664A934229D07B681B68654A934222D02A
:103C40007B681B68634A93421AD07B681B68624A90
:103C5000934212D07B681B68604A93420AD07B680B
:103C60001B685F4A934202D14FF480030EE04FF08D
:103C700080630BE04FF4802308E04FF4804305E0BD
:103C80004FF4806302E0402300E00423554A536070
:103C90007B68DB6A002B00F094807B68DB6A7868C5
:103CA00098478EE07B681B6C02229A40FB681340A9
:103CB000002B56D0BB6803F00203002B51D07B6869
:103CC0001B681B6803F02003002B0BD17B681B686B
:103CD0001A687B681B6822F00A021A607B6801225E
:103CE00083F821207B681B68384A934229D07B687F
:103CF0001B68374A934222D07B681B68354A93423F
:103D00001AD07B681B68344A934212D07B681B68C8
:103D1000324A93420AD07B681B68314A934202D1EF
:103D20004FF400130EE04FF000730BE04FF400333C
:103D300008E04FF4005305E04FF4007302E0202345
:103D400000E00223274A53607B68002283F820208A
:103D50007B689B6A002B34D07B689B6A78689847A5
:103D60002FE07B681B6C08229A40FB681340002BF5
:103D700028D0BB6803F00803002B23D07B681B68A6
:103D80001A687B681B6822F00E021A607B681A6C46
:103D90007B68DB6B012101FA02F25A607B68012229
:103DA0009A637B68012283F821207B68002283F8D4
:103DB00020207B681B6B002B04D07B681B6B786812
:103DC000984700BF00BF1037BD4680BD08000240C5
:103DD0001C000240300002404400024058000240F3
:103DE0006C0002400000024080B48BB000AF7860ED
:103DF000396000237B6200233B6269E101227B6A18
:103E000002FA03F3FB613B681B68FA691340BB616C
:103E1000BA69FB699A4240F058813B685B689A4AEC
:103E200093425ED0984A934275D8984A934258D0AC
:103E3000964A93426FD8964A934252D0944A9342FC
:103E400069D8944A93424CD0924A934263D8924A9A
:103E5000934246D0904A93425DD8122B2AD8122B17
:103E600059D801A252F823F0E33E0008BD3E0008F5
:103E7000CF3E0008113F0008173F0008173F000819
:103E8000173F0008173F0008173F0008173F0008BA
:103E9000173F0008173F0008173F0008173F0008AA
:103EA000173F0008173F0008173F0008C53E0008ED
:103EB000D93E0008794A934213D02CE03B68DB6876
:103EC0003B6229E03B68DB6804333B6224E03B68EB
:103ED000DB6808333B621FE03B68DB680C333B6206
:103EE0001AE03B689B68002B02D104233B6213E07D
:103EF0003B689B68012B05D108233B627B68FA690C
:103F00001A6109E008233B627B68FA695A6103E0A1
:103F100000233B6200E000BFBB69FF2B01D87B6838
:103F200001E07B6804337B61BB69FF2B02D87B6AAD
:103F30009B0002E07B6A083B9B003B617B691A683F
:103F40000F213B6901FA03F3DB431A40396A3B69ED
:103F500001FA03F31A437B691A603B685B6803F05C
:103F60008053002B00F0B1804D4B9B694C4A43F0CD
:103F7000010393614A4B9B6903F00103BB60BB687B
:103F8000484A7B6A9B08023352F82330FB607B6A05
:103F900003F003039B000F2202FA03F3DB43FA68EA
:103FA0001340FB607B68404A934213D07B683F4AD2
:103FB00093420DD07B683E4A934207D07B683D4ACE
:103FC000934201D1032306E0042304E0022302E02C
:103FD000012300E000237A6A02F00302920093407A
:103FE000FA681343FB602F497B6A9B080233FA6827
:103FF00041F823203B685B6803F48013002B06D054
:104000002D4B9A682C49BB6913438B6006E02A4B01
:104010009A68BB69DB43284913408B603B685B6847
:1040200003F40013002B06D0234BDA682249BB6946
:104030001343CB6006E0204BDA68BB69DB431E49C3
:104040001340CB603B685B6803F40033002B06D061
:10405000194B5A681849BB6913434B6006E0164B6D
:104060005A68BB69DB43144913404B603B685B688B
:1040700003F48033002B21D00F4B1A680E49BB6923
:1040800013430B6021E000BF00003210000031102C
:10409000000022100000211000001210000011107A
:1040A000001002400000014000080140000C0140E7
:1040B0000010014000140140000401400B4B1A683D
:1040C000BB69DB43094913400B607B6A01337B62A8
:1040D0003B681A687B6A22FA03F3002B7FF48EAEEA
:1040E00000BF00BF2C37BD4680BC704700040140B4
:1040F00080B485B000AF78600B467B807B689A689F
:104100007B881340002B02D00123FB7301E00023C6
:10411000FB73FB7B18461437BD4680BC704780B4E8
:1041200083B000AF78600B467B8013467B707B7852
:10413000002B03D07A887B681A6103E07B881A041D
:104140007B681A6100BF0C37BD4680BC704780B4E5
:1041500085B000AF78600B467B807B68DB68FB60D6
:104160007A88FB6813401A04FB68D9437B880B40AC
:104170001A437B681A6100BF1437BD4680BC704784
:1041800080B586B000AF78607B68002B01D1012339
:1041900072E27B681B6803F00103002B00F087804C
:1041A000924B5B6803F00C03042B0CD08F4B5B68C5
:1041B00003F00C03082B12D18C4B5B6803F48033A3
:1041C000B3F5803F0BD1894B1B6803F40033002B00
:1041D0006CD07B685B68002B68D101234CE27B6864
:1041E0005B68B3F5803F06D1804B1B687F4A43F480
:1041F000803313602EE07B685B68002B0CD17B4B17
:104200001B687A4A23F480331360784B1B68774A23
:1042100023F4802313601DE07B685B68B3F5A02F57
:104220000CD1724B1B68714A43F4802313606F4BAF
:104230001B686E4A43F4803313600BE06B4B1B68C2
:104240006A4A23F480331360684B1B68674A23F47F
:10425000802313607B685B68002B13D0FEF7D0FED1
:10426000386108E0FEF7CCFE02463B69D31A642BA6
:1042700001D9032300E25D4B1B6803F40033002BDC
:10428000F0D014E0FEF7BCFE386108E0FEF7B8FE9F
:1042900002463B69D31A642B01D90323ECE1534B4B
:1042A0001B6803F40033002BF0D100E000BF7B68F3
:1042B0001B6803F00203002B63D04C4B5B6803F0D8
:1042C0000C03002B0BD0494B5B6803F00C03082B4D
:1042D0001CD1464B5B6803F48033002B16D1434B53
:1042E0001B6803F00203002B05D07B681B69012BC0
:1042F00001D00123C0E13D4B1B6823F0F8027B682D
:104300005B69DB00394913430B603AE07B681B694A
:10431000002B20D0364B01221A60FEF771FE386167
:1043200008E0FEF76DFE02463B69D31A022B01D965
:104330000323A1E12D4B1B6803F00203002BF0D0F7
:104340002A4B1B6823F0F8027B685B69DB00274976
:1043500013430B6015E0264B00221A60FEF750FE57
:10436000386108E0FEF74CFE02463B69D31A022B87
:1043700001D9032380E11D4B1B6803F00203002BCE
:10438000F0D17B681B6803F00803002B3AD07B68F0
:104390009B69002B19D0174B01221A60FEF730FEE3
:1043A000386108E0FEF72CFE02463B69D31A022B67
:1043B00001D9032360E10D4B5B6A03F00203002B7C
:1043C000F0D0012000F0BAFA1CE00A4B00221A607B
:1043D000FEF716FE38610FE0FEF712FE02463B695B
:1043E000D31A022B08D9032346E100BF0010024074
:1043F0000000424280044242924B5B6A03F0020397
:10440000002BE9D17B681B6803F00403002B00F04C
:10441000A6800023FB758B4BDB6903F08053002BD8
:104420000DD1884BDB69874A43F08053D361854BBC
:10443000DB6903F08053BB60BB680123FB75824BD3
:104440001B6803F48073002B18D17F4B1B687E4AD6
:1044500043F480731360FEF7D3FD386108E0FEF784
:10446000CFFD02463B69D31A642B01D9032303E134
:10447000754B1B6803F48073002BF0D07B68DB68FE
:10448000012B06D16F4B1B6A6E4A43F00103136286
:104490002DE07B68DB68002B0CD16A4B1B6A694AF4
:1044A00023F001031362674B1B6A664A23F004037F
:1044B00013621CE07B68DB68052B0CD1614B1B6A27
:1044C000604A43F0040313625E4B1B6A5D4A43F08B
:1044D000010313620BE05B4B1B6A5A4A23F0010392
:1044E0001362584B1B6A574A23F0040313627B681C
:1044F000DB68002B15D0FEF783FD38610AE0FEF77C
:104500007FFD02463B69D31A41F28832934201D9BA
:104510000323B1E04B4B1B6A03F00203002BEED0E8
:1045200014E0FEF76DFD38610AE0FEF769FD024612
:104530003B69D31A41F28832934201D903239BE0AD
:10454000404B1B6A03F00203002BEED1FB7D012BD5
:1045500005D13C4BDB693B4A23F08053D3617B6838
:10456000DB69002B00F08780364B5B6803F00C039F
:10457000082B61D07B68DB69022B46D1334B0022CC
:104580001A60FEF73DFD386108E0FEF739FD02468E
:104590003B69D31A022B01D903236DE0294B1B6819
:1045A00003F00073002BF0D17B681B6AB3F5803FEA
:1045B00008D1244B5B6823F400327B689B68214957
:1045C00013434B601F4B5B6823F474127B68196ABA
:1045D0007B685B6A0B431B4913434B601B4B0122F7
:1045E0001A60FEF70DFD386108E0FEF709FD02468E
:1045F0003B69D31A022B01D903233DE0114B1B6801
:1046000003F00073002BF0D035E0104B00221A604D
:10461000FEF7F6FC386108E0FEF7F2FC02463B6963
:10462000D31A022B01D9032326E0064B1B6803F0A3
:104630000073002BF0D11EE07B68DB69012B07D1F2
:10464000012319E000100240007000406000424267
:104650000B4B5B68FB60FB6803F480327B681B6A72
:104660009A4206D1FB6803F470127B685B6A9A4237
:1046700001D0012300E0002318461837BD4680BD55
:104680000010024080B584B000AF786039607B686C
:10469000002B01D10123D0E06A4B1B6803F0070314
:1046A0003A689A4210D9674B1B6823F007026549A4
:1046B0003B6813430B60634B1B6803F007033A68C6
:1046C0009A4201D00123B8E07B681B6803F0020323
:1046D000002B20D07B681B6803F00403002B05D05F
:1046E000594B5B68584A43F4E06353607B681B682E
:1046F00003F00803002B05D0534B5B68524A43F488
:1047000060535360504B5B6823F0F0027B689B68FA
:104710004D4913434B607B681B6803F00103002B7A
:1047200040D07B685B68012B07D1474B1B6803F4C3
:104730000033002B15D101237FE07B685B68022BDF
:1047400007D1414B1B6803F00073002B09D10123F3
:1047500073E03D4B1B6803F00203002B01D10123E2
:104760006BE0394B5B6823F003027B685B6836497A
:1047700013434B60FEF744FCF8600AE0FEF740FC90
:104780000246FB68D31A41F28832934201D90323CF
:1047900053E02D4B5B6803F00C027B685B689B0069
:1047A0009A42EBD1274B1B6803F007033A689A4201
:1047B00010D2244B1B6823F0070222493B681343A5
:1047C0000B60204B1B6803F007033A689A4201D044
:1047D000012332E07B681B6803F00403002B08D040
:1047E000194B5B6823F4E0627B68DB68164913436E
:1047F0004B607B681B6803F00803002B09D0124B49
:104800005B6823F460527B681B69DB000E4913432D
:104810004B6000F021F802460B4B5B681B0903F06C
:104820000F030A49CB5C22FA03F3094A1360094BD0
:104830001B681846FEF7A2FB002318461037BD463A
:1048400080BD00BF0020024000100240149F0008FD
:10485000080000200C00002080B487B000AF0023C7
:10486000FB600023BB6000237B6100237B6000238F
:104870003B611E4B5B68FB60FB6803F00C03042B81
:1048800002D0082B03D027E0194B3B6127E0FB68DF
:104890009B0C03F00F03174AD35C7B60FB6803F4A7
:1048A0008033002B10D0114B5B685B0C03F00103CD
:1048B000114AD35CBB607B680D4A03FB02F2BB6804
:1048C000B2FBF3F37B6104E07B680C4A02FB03F369
:1048D0007B617B693B6102E0054B3B6100BF3B694B
:1048E00018461C37BD4680BC704700BF0010024010
:1048F00000127A002C9F00083C9F000800093D0030
:1049000080B400AF024B1B681846BD4680BC7047A0
:104910000800002080B500AFFFF7F2FF0246054B0C
:104920005B68DB0A03F007030349CB5C22FA03F35D
:10493000184680BD00100240249F000880B485B056
:1049400000AF78600A4B1B680A4AA2FB03235B0A8C
:104950007A6802FB03F3FB6000BFFB685A1EFA6033
:10496000002BF9D100BF00BF1437BD4680BC704793
:1049700008000020D34D621080B586B000AF78608B
:1049800000233B610023FB607B681B6803F001038D
:10499000002B7DD00023FB754F4BDB6903F0805368
:1049A000002B0DD14C4BDB694B4A43F08053D36154
:1049B000494BDB6903F08053BB60BB680123FB7587
:1049C000464B1B6803F48073002B18D1434B1B68C4
:1049D000424A43F480731360FEF712FB386108E02B
:1049E000FEF70EFB02463B69D31A642B01D9032361
:1049F0006DE03A4B1B6803F48073002BF0D0364B0C
:104A00001B6A03F44073FB60FB68002B2ED07B68AD
:104A10005B6803F44073FA689A4227D02E4B1B6AF6
:104A200023F44073FB602E4B01221A602C4B0022B2
:104A30001A60294AFB681362FB6803F00103002B2C
:104A400014D0FEF7DDFA38610AE0FEF7D9FA024623
:104A50003B69D31A41F28832934201D9032336E0ED
:104A60001D4B1B6A03F00203002BEED01A4B1B6A8E
:104A700023F440727B685B68174913430B62FB7D2C
:104A8000012B05D1144BDB69134A23F08053D3610A
:104A90007B681B6803F00203002B08D00E4B5B6899
:104AA00023F440427B689B680B4913434B607B684F
:104AB0001B6803F01003002B08D0074B5B6823F43E
:104AC00080027B68DB68044913434B60002318466F
:104AD0001837BD4680BD00BF001002400070004086
:104AE0004004424280B588B000AF786000237B610B
:104AF0000023FB6100233B610023FB600023BB61BB
:104B00007B68102B0AD07B68102B00F28A807B68B0
:104B1000012B45D07B68022B75D082E0464B5B6849
:104B2000FB60454B1B6803F08073002B7BD0FB6858
:104B30009B0C03F00F03414AD35C3B61FB6803F419
:104B40008033002B15D03C4B5B685B0C03F00103FA
:104B50003B4AD35C7B61FB6803F48033002B0DD0B0
:104B6000384A7B69B2FBF3F23B6902FB03F3FB615A
:104B700004E03B69344A02FB03F3FB612E4B5B68A4
:104B800003F48003B3F5800F02D1FB69BB614AE0F7
:104B9000FB695B002D4AA2FB03235B08BB6142E07B
:104BA000254B1B6AFB60FB6803F44073B3F5807F01
:104BB00008D1FB6803F00203002B03D04FF400433D
:104BC000BB611FE0FB6803F44073B3F5007F09D1BC
:104BD000194B5B6A03F00203002B03D049F64043F4
:104BE000BB610FE0FB6803F44073B3F5407F1CD159
:104BF000114B1B6803F40033002B16D04FF22443F3
:104C0000BB6112E011E0FFF785FE02460A4B5B68CC
:104C10009B0B03F0030301335B00B2FBF3F3BB61B7
:104C200004E000BF02E000BF00E000BFBB6918461F
:104C30002037BD4680BD00BF00100240409F0008E5
:104C4000509F000800127A0000093D00ABAAAAAAF2
:104C500080B582B000AF78607B68002B01D1012362
:104C600041E07B6893F83D30DBB2002B06D17B68D6
:104C7000002283F83C207868FDF7AAFF7B680222B7
:104C800083F83D207B681A687B6804331946104618
:104C900000F030FC7B68012283F846207B6801220B
:104CA00083F83E207B68012283F83F207B68012245
:104CB00083F840207B68012283F841207B68012231
:104CC00083F842207B68012283F843207B6801221D
:104CD00083F844207B68012283F845207B68012209
:104CE00083F83D20002318460837BD4680BD0000EC
:104CF00080B485B000AF78607B6893F83D30DBB25C
:104D0000012B01D001233AE07B68022283F83D2089
:104D10007B681B68DA687B681B6842F00102DA6016
:104D20007B681B68184A93420ED07B681B68B3F1FE
:104D3000804F09D07B681B68144A934204D07B687B
:104D40001B68134A934211D17B681B689B6803F070
:104D50000703FB60FB68062B10D07B681B681A6892
:104D60007B681B6842F001021A6007E07B681B68E1
:104D70001A687B681B6842F001021A60002318461B
:104D80001437BD4680BC7047002C01400004004031
:104D90000008004080B582B000AF78607B68002BCF
:104DA00001D1012341E07B6893F83D30DBB2002B59
:104DB00006D17B68002283F83C20786800F039F83F
:104DC0007B68022283F83D207B681A687B68043385
:104DD0001946104600F08EFB7B68012283F84620BE
:104DE0007B68012283F83E207B68012283F83F2004
:104DF0007B68012283F840207B68012283F84120F0
:104E00007B68012283F842207B68012283F84320DB
:104E10007B68012283F844207B68012283F84520C7
:104E20007B68012283F83D20002318460837BD46E1
:104E300080BD80B483B000AF786000BF0C37BD4642
:104E400080BC704780B584B000AF786039603B6843
:104E5000002B09D17B6893F83E30DBB2012B14BFE5
:104E600001230023DBB222E03B68042B09D17B68DD
:104E700093F83F30DBB2012B14BF01230023DBB2D8
:104E800015E03B68082B09D17B6893F84030DBB212
:104E9000012B14BF01230023DBB208E07B6893F8E9
:104EA0004130DBB2012B14BF01230023DBB2002B06
:104EB00001D001235EE03B68002B04D17B68022215
:104EC00083F83E2013E03B68042B04D17B68022268
:104ED00083F83F200BE03B68082B04D17B6802225B
:104EE00083F8402003E07B68022283F841207B683E
:104EF0001B6801223968184600F07CFD7B681B683E
:104F00001E4A934207D17B681B685A6C7B681B68FA
:104F100042F400425A647B681B68184A93420ED0E0
:104F20007B681B68B3F1804F09D07B681B68144A0B
:104F3000934204D07B681B68124A934211D17B686C
:104F40001B689B6803F00703FB60FB68062B10D00F
:104F50007B681B681A687B681B6842F001021A6054
:104F600007E07B681B681A687B681B6842F00102D7
:104F70001A60002318461037BD4680BD002C014042
:104F8000000400400008004080B582B000AF7860A7
:104F90007B681B681B6903F00203022B22D17B682C
:104FA0001B68DB6803F00203022B1BD17B681B68C4
:104FB0006FF002021A617B6801221A777B681B6816
:104FC0009B6903F00303002B03D0786800F076FAA6
:104FD00005E0786800F069FA786800F078FA7B6894
:104FE00000221A777B681B681B6903F00403042BFB
:104FF00022D17B681B68DB6803F00403042B1BD100
:105000007B681B686FF004021A617B6802221A77C2
:105010007B681B689B6903F44073002B03D078689E
:1050200000F04CFA05E0786800F03FFA786800F08C
:105030004EFA7B6800221A777B681B681B6903F0B5
:105040000803082B22D17B681B68DB6803F0080388
:10505000082B1BD17B681B686FF008021A617B6804
:1050600004221A777B681B68DB6903F00303002BBB
:1050700003D0786800F022FA05E0786800F015FAAD
:10508000786800F024FA7B6800221A777B681B6836
:105090001B6903F01003102B22D17B681B68DB68AF
:1050A00003F01003102B1BD17B681B686FF01002FC
:1050B0001A617B6808221A777B681B68DB6903F436
:1050C0004073002B03D0786800F0F8F905E07868A9
:1050D00000F0EBF9786800F0FAF97B6800221A77A3
:1050E0007B681B681B6903F00103012B0ED17B68F1
:1050F0001B68DB6803F00103012B07D17B681B6889
:105100006FF001021A617868FCF7FCFD7B681B6890
:105110001B6903F08003802B0ED17B681B68DB6862
:1051200003F08003802B07D17B681B686FF080023F
:105130001A61786800F0E9FC7B681B681B6903F062
:105140004003402B0ED17B681B68DB6803F04003F3
:10515000402B07D17B681B686FF040021A617868AA
:1051600000F0BEF97B681B681B6903F02003202B4D
:105170000ED17B681B68DB6803F02003202B07D16E
:105180007B681B686FF020021A61786800F0B4FC3D
:1051900000BF0837BD4680BD80B586B000AFF8605F
:1051A000B9607A600023FB75FB6893F83C30012BF3
:1051B00001D10223AEE0FB68012283F83C207B682A
:1051C0000C2B00F29F8001A252F823F0015200083C
:1051D0000553000805530008055300084152000814
:1051E00005530008055300080553000883520008C2
:1051F000055300080553000805530008C352000872
:10520000FB681B68B968184600F0D6F9FB681B6894
:105210009A69FB681B6842F008029A61FB681B6888
:105220009A69FB681B6822F004029A61FB681B689C
:105230009969BB681A69FB681B680A439A6164E054
:10524000FB681B68B968184600F01CFAFB681B680D
:105250009A69FB681B6842F400629A61FB681B68EC
:105260009A69FB681B6822F480629A61FB681B687C
:105270009969BB681B691A02FB681B680A439A613B
:1052800043E0FB681B68B968184600F065FAFB68E4
:105290001B68DA69FB681B6842F00802DA61FB6888
:1052A0001B68DA69FB681B6822F00402DA61FB689C
:1052B0001B68D969BB681A69FB681B680A43DA6115
:1052C00023E0FB681B68B968184600F0AFFAFB687A
:1052D0001B68DA69FB681B6842F40062DA61FB68EC
:1052E0001B68DA69FB681B6822F48062DA61FB687C
:1052F0001B68D969BB681B691A02FB681B680A43F3
:10530000DA6102E00123FB7500BFFB68002283F82D
:105310003C20FB7D18461837BD4680BD80B584B063
:1053200000AF786039600023FB737B6893F83C30F2
:10533000012B01D10223B4E07B68012283F83C20D9
:105340007B68022283F83D207B681B689B68BB60FA
:10535000BB6823F07703BB60BB6823F47F43BB606B
:105360007B681B68BA689A603B681B68B3F5005F8E
:105370003ED0B3F5005F00F28780B3F5805F00F0A8
:105380008680B3F5805F7FD8702B1AD0702B7BD8C6
:10539000602B50D0602B77D8502B3CD0502B73D83B
:1053A000402B58D0402B6FD8302B64D0302B6BD88B
:1053B000202B60D0202B67D8002B5CD0102B5AD02C
:1053C00062E07B6818683B6899683B685A683B688C
:1053D000DB6800F0F0FA7B681B689B68BB60BB6809
:1053E00043F07703BB607B681B68BA689A604FE044
:1053F0007B6818683B6899683B685A683B68DB685B
:1054000000F0D9FA7B681B689A687B681B6842F4D5
:1054100080429A603CE07B6818683B6859683B684A
:10542000DB681A4600F050FA7B681B68502118466A
:1054300000F0A7FA2CE07B6818683B6859683B6865
:10544000DB681A4600F06EFA7B681B68602118461C
:1054500000F097FA1CE07B6818683B6859683B6865
:10546000DB681A4600F030FA7B681B68402118465A
:1054700000F087FA0CE07B681A683B681B681946E5
:10548000104600F07EFA03E00123FB7300E000BF4A
:105490007B68012283F83D207B68002283F83C2052
:1054A000FB7B18461037BD4680BD80B483B000AF8B
:1054B000786000BF0C37BD4680BC704780B483B0B5
:1054C00000AF786000BF0C37BD4680BC704780B429
:1054D00083B000AF786000BF0C37BD4680BC70471A
:1054E00080B483B000AF786000BF0C37BD4680BC8D
:1054F0007047000080B485B000AF786039607B6889
:105500001B68FB607B68294A93420BD07B68B3F130
:10551000804F07D07B68264A934203D07B68254A98
:10552000934208D1FB6823F07003FB603B685B6823
:10553000FA681343FB607B681C4A93420BD07B687C
:10554000B3F1804F07D07B68194A934203D07B6840
:10555000184A934208D1FB6823F44073FB603B6810
:10556000DB68FA681343FB60FB6823F080023B684A
:105570005B691343FB607B68FA681A603B689A6852
:105580007B68DA623B681A687B689A627B68074AC4
:10559000934203D13B681A697B681A637B680122D6
:1055A0005A6100BF1437BD4680BC7047002C0140D3
:1055B000000400400008004080B487B000AF78606D
:1055C00039607B681B6A7B617B681B6A23F0010280
:1055D0007B681A627B685B683B617B689B69FB60E8
:1055E000FB6823F07003FB60FB6823F00303FB60A0
:1055F0003B681B68FA681343FB607B6923F0020376
:105600007B613B689B687A6913437B617B681C4ABA
:1056100093420CD17B6923F008037B613B68DB6814
:105620007A6913437B617B6923F004037B617B68A8
:10563000134A934211D13B6923F480733B613B6968
:1056400023F400733B613B685B693A6913433B6138
:105650003B689B693A6913433B617B683A695A60CE
:105660007B68FA689A613B685A687B685A637B6812
:105670007A691A6200BF1C37BD4680BC704700BF04
:10568000002C014080B487B000AF786039607B683F
:105690001B6A7B617B681B6A23F010027B681A62BD
:1056A0007B685B683B617B689B69FB60FB6823F4FC
:1056B000E043FB60FB6823F44073FB603B681B68BE
:1056C0001B02FA681343FB607B6923F020037B61B4
:1056D0003B689B681B017A6913437B617B681D4AA9
:1056E00093420DD17B6923F080037B613B68DB68CB
:1056F0001B017A6913437B617B6923F040037B6163
:105700007B68144A934213D13B6923F480633B6165
:105710003B6923F400633B613B685B699B003A692A
:1057200013433B613B689B699B003A6913433B61B0
:105730007B683A695A607B68FA689A613B685A6884
:105740007B689A637B687A691A6200BF1C37BD4622
:1057500080BC7047002C014080B487B000AF7860F7
:1057600039607B681B6A7B617B681B6A23F48072EB
:105770007B681A627B685B683B617B68DB69FB6006
:10578000FB6823F07003FB60FB6823F00303FB60FE
:105790003B681B68FA681343FB607B6923F4007362
:1057A0007B613B689B681B027A6913437B617B6862
:1057B0001D4A93420DD17B6923F400637B613B68F2
:1057C000DB681B027A6913437B617B6923F4806386
:1057D0007B617B68144A934213D13B6923F4805365
:1057E0003B613B6923F400533B613B685B691B01F0
:1057F0003A6913433B613B689B691B013A69134358
:105800003B617B683A695A607B68FA68DA613B6899
:105810005A687B68DA637B687A691A6200BF1C3752
:10582000BD4680BC704700BF002C014080B487B0EB
:1058300000AF786039607B681B6A3B617B681B6ADC
:1058400023F480527B681A627B685B687B617B68AB
:10585000DB69FB60FB6823F4E043FB60FB6823F437
:105860004073FB603B681B681B02FA681343FB60D4
:105870003B6923F400533B613B689B681B033A6917
:1058800013433B617B680F4A934209D17B6923F440
:1058900080437B613B685B699B017A6913437B6151
:1058A0007B687A695A607B68FA68DA613B685A6893
:1058B0007B681A647B683A691A6200BF1C37BD4670
:1058C00080BC7047002C014080B487B000AFF86006
:1058D000B9607A60FB681B6A7B61FB681B6A23F016
:1058E0000102FB681A62FB689B693B613B6923F01C
:1058F000F0033B617B681B013A6913433B617B69A1
:1059000023F00A037B617A69BB6813437B61FB6800
:105910003A699A61FB687A691A6200BF1C37BD4612
:1059200080BC704780B487B000AFF860B9607A601F
:10593000FB681B6A7B61FB681B6A23F01002FB6833
:105940001A62FB689B693B613B6923F470433B61CE
:105950007B681B033A6913433B617B6923F0A00317
:105960007B61BB681B017A6913437B61FB683A6901
:105970009A61FB687A691A6200BF1C37BD4680BC19
:10598000704780B485B000AF786039607B689B68F1
:10599000FB60FB6823F07003FB603A68FB6813430D
:1059A00043F00703FB607B68FA689A6000BF143716
:1059B000BD4680BC704780B487B000AFF860B96066
:1059C0007A603B60FB689B687B617B6923F47F4363
:1059D0007B613B681A027B681A43BB6813437A6990
:1059E00013437B61FB687A699A6000BF1C37BD4630
:1059F00080BC704780B487B000AFF860B9607A604F
:105A0000BB6803F01F03012202FA03F37B61FB680A
:105A10001A6A7B69DB431A40FB681A62FB681A6AE0
:105A2000BB6803F01F03796801FA03F31A43FB68AC
:105A30001A6200BF1C37BD4680BC704780B485B079
:105A400000AF786039607B6893F83C30012B01D15E
:105A5000022346E07B68012283F83C207B68022217
:105A600083F83D207B681B685B68FB607B681B6874
:105A70009B68BB60FB6823F07003FB603B681B689E
:105A8000FA681343FB607B681B68FA685A607B689E
:105A90001B68164A93420ED07B681B68B3F1804F97
:105AA00009D07B681B68124A934204D07B681B684C
:105AB000104A93420CD1BB6823F08003BB603B6863
:105AC0005B68BA681343BB607B681B68BA689A60FE
:105AD0007B68012283F83D207B68002283F83C200C
