:020000040800F2
:1000000000500020590C0008E10B0008E90B000823
:10001000F10B0008F90B0008010C000800000000BB
:10002000000000000000000000000000090C0008B3
:10003000150C000800000000210C00082D0C000821
:10004000A10C0008A10C0008A10C0008A10C0008DC
:10005000A10C0008A10C0008A10C0008A10C0008CC
:10006000A10C0008A10C0008A10C0008390C000824
:10007000A10C0008A10C0008A10C0008A10C0008AC
:10008000A10C0008A10C0008A10C0008A10C00089C
:10009000A10C0008A10C0008A10C0008A10C00088C
:1000A000A10C0008A10C0008A10C0008A10C00087C
:1000B000A10C0008A10C0008A10C0008A10C00086C
:1000C000A10C0008A10C0008A10C0008A10C00085C
:1000D000A10C0008A10C0008A10C0008A10C00084C
:1000E000A10C0008A10C0008A10C000800000000F1
:1000F0000000000000000000000000000000000000
:0C01000000000000000000005FF808F1A3
:10010C0010B5054C237833B9044B13B10448AFF345
:10011C0000800123237010BD0C00002000000000A3
:10012C00DC30000808B5034B1BB103490348AFF39F
:10013C00008008BD0000000010000020DC3000082A
:10014C0080B586B000AF03460A46FB711346BB71FF
:10015C000023FB750123BB7501237B75FB79032BF6
:10016C0022D801A252F823F0850100089101000861
:10017C009D010008A90100081C4B3B614FF4805302
:10018C00FB8113E0194B3B614FF40053FB810DE0F5
:10019C00164B3B614FF48043FB8107E0134B3B61F3
:1001AC004FF40043FB8101E001231AE015E001202C
:1001BC0000F0D4FDFB891946386901F011FE0346A5
:1001CC007B757A7DBB7D9A4203D1FB7D0133FB7538
:1001DC0001E00023FB757B7DBB75FB7D062BE6D90F
:1001EC007B7D18461837BD4680BD00BF000C014012
:1001FC0090B589B000AF354B3C1D0FCB84E80F0098
:10020C000023BB7759E0BB7F032B21D801A252F806
:10021C0023F000BF310200083B0200084502000831
:10022C00510200082A4BBB610123FB8215E0284BCD
:10023C00BB610223FB8210E0254BBB614FF4806352
:10024C00FB820AE0224BBB614FF40063FB8204E0AB
:10025C000023BB610023FB8200BFFB8A00221946EE
:10026C00B86901F0D4FD0023FB771AE0BA7FFB7F5D
:10027C0011461846FFF764FF0346002B0ED1FB8A8C
:10028C0001221946B86901F0C2FDFA7FBB7F9200CA
:10029C0020323A4413441C3B1B7812E0FB7F0133A1
:1002AC00FB77FB7F032BE1D9FB8A01221946B86946
:1002BC0001F0ADFDBB7F0133BB77BB7F032BA2D914
:1002CC00002318462437BD4690BD00BFF43000080B
:1002DC00000C014080B582B000AF0346FB710022D8
:1002EC000821414801F093FD012210213E4801F004
:1002FC008EFDFB791B11DBB203F00103DBB21A4656
:10030C004FF40071394801F082FDFB795B11DBB2CF
:10031C0003F00103DBB21A464FF48061334801F05D
:10032C0076FDFB799B11DBB203F00103DBB21A46BD
:10033C004FF400612D4801F06AFDFB79DB09DBB25B
:10034C001A464FF48051294801F061FD0A2000F053
:10035C0005FD00221021244801F059FD142000F065
:10036C00FDFC01221021204801F051FDFB7903F026
:10037C000103DBB21A464FF400711C4801F047FD33
:10038C00FB795B10DBB203F00103DBB21A464FF4CE
:10039C008061164801F03BFDFB799B10DBB203F04A
:1003AC000103DBB21A464FF40061104801F02FFD37
:1003BC00FB79DB10DBB203F00103DBB21A464FF41E
:1003CC0080510A4801F023FD0A2000F0C7FC0022EE
:1003DC001021054801F01BFD142000F0BFFC00BFEC
:1003EC000837BD4680BD00BF000C0140000801402D
:1003FC0080B582B000AF0346FB7101220821414851
:10040C0001F005FD012210213E4801F000FDFB79B1
:10041C001B11DBB203F00103DBB21A464FF400717F
:10042C00394801F0F4FCFB795B11DBB203F00103FA
:10043C00DBB21A464FF48061334801F0E8FCFB79DB
:10044C009B11DBB203F00103DBB21A464FF40061DF
:10045C002D4801F0DCFCFB79DB09DBB21A464FF4CA
:10046C008051294801F0D3FC0A2000F077FC0022CF
:10047C001021244801F0CBFC142000F06FFC012269
:10048C001021204801F0C3FCFB7903F00103DBB21F
:10049C001A464FF400711C4801F0B9FCFB795B1053
:1004AC00DBB203F00103DBB21A464FF4806116484D
:1004BC0001F0ADFCFB799B10DBB203F00103DBB266
:1004CC001A464FF40061104801F0A1FCFB79DB10D7
:1004DC00DBB203F00103DBB21A464FF480510A4839
:1004EC0001F095FC0A2000F039FC0022102105488F
:1004FC0001F08DFC142000F031FC00BF0837BD4624
:10050C0080BD00BF000C01400008014080B500AF69
:10051C00322000F023FC3320FFF7DCFE3220FFF703
:10052C00D9FE2820FFF7D6FE0C20FFF7D3FE0620BD
:10053C00FFF7D0FE0120FFF7CDFE022000F00EFCED
:10054C0000BF80BD80B582B000AF786006E07B68EC
:10055C005A1C7A601B781846FFF74AFF7B681B7899
:10056C00002BF4D100BF00BF0837BD4680BD80B55D
:10057C0082B000AF03463960FB71FB79012B03D1CC
:10058C008020FFF7A7FE05E0FB79022B02D1C020EB
:10059C00FFF7A0FE3868FFF7D5FF00BF0837BD4650
:1005AC0080BD80B500AF0120FFF794FE022000F063
:1005BC00D5FB00BF80BD000080B586B000AF786071
:1005CC0007F10C0300221A605A609A607B68FB608A
:1005DC0001233B6100237B6107F10C031946094899
:1005EC0000F078FE074800F0B5FC4FF0FF310548ED
:1005FC0000F05EFD034800F061FE03461846183714
:10060C00BD4680BD2800002080B588B000AF00F04A
:10061C0043FB00F063F800F081F900F061F900F0A1
:10062C00B9F800F0F5F8FFF771FFFFF7BAFF2749AB
:10063C000120FFF79CFF26490220FFF798FF4FF49B
:10064C000051244801F0FBFBFFF7D2FD0346FB777A
:10065C00FB7F002B17D0FFF7A4FF1F490120FFF7EA
:10066C0086FFFB7F1846FFF7C3FE4FF4FA6000F0DD
:10067C0075FBFFF796FF15490120FFF778FF14492A
:10068C000220FFF774FF0020FFF796FF0346BB61C3
:10069C000120FFF791FF03467B613B1D0A2219469F
:1006AC00B86902F0A5FCFFF77CFF3B1D1946012041
:1006BC00FFF75DFF3B1D0A221946786902F098FC92
:1006CC003B1D19460220FFF752FFBDE7043100081D
:1006DC0014310008001001401831000880B594B0A6
:1006EC0000AF07F1280328220021184602F0C4FCB1
:1006FC0007F1140300221A605A609A60DA601A61DA
:10070C003B1D00221A605A609A60DA600123BB62BA
:10071C004FF48033FB6200233B630123BB63022352
:10072C007B644FF48033BB644FF4E013FB6407F13C
:10073C002803184601F09CFB0346002B01D000F067
:10074C008BF90F237B610223BB610023FB614FF408
:10075C0080633B6200237B6207F11403022118467D
:10076C0001F008FE0346002B01D000F075F90223BE
:10077C007B604FF40043FB603B1D184601F074FF97
:10078C000346002B01D000F067F900BF5037BD467F
:10079C0080BD000080B584B000AF3B1D00221A6004
:1007AC005A609A60184B194A1A60174B00229A60CB
:1007BC00154B01221A73144B00221A75124B4FF46D
:1007CC006022DA61104B00225A600F4B01221A6131
:1007DC000D4800F0E7FA0346002B01D000F03CF97D
:1007EC0000237B600123BB600023FB603B1D19468B
:1007FC00054800F06FFD0346002B01D000F02CF9EA
:10080C0000BF1037BD4680BD2800002000240140E9
:10081C0080B58CB000AF07F1200300221A605A603B
:10082C009A60DA6007F10C0300221A605A609A6031
:10083C00DA601A613B1D00221A605A60264B274A67
:10084C001A60254B00225A60234B00229A60224BDF
:10085C004FF6FF72DA60204B00221A611E4B002209
:10086C005A611D4B00229A611B4802F069F803463D
:10087C00002B01D000F0F0F84FF480533B6207F1ED
:10088C0020031946144802F0AAF80346002B01D0A5
:10089C0000F0E2F80023FB6000233B6107F10C033E
:1008AC0019460D4802F062F90346002B01D000F006
:1008BC00D3F800237B600023BB603B1D1946064820
:1008CC0002F020FB0346002B01D000F0C5F800BF5E
:1008DC003037BD4680BD00BF9C000020002C01407D
:1008EC0080B582B000AF0C4B5B690B4A43F001033F
:1008FC005361094B5B6903F001037B607B68002249
:10090C0000210B2000F051FF0B2000F06AFF00BF0C
:10091C000837BD4680BD00BF0010024080B588B0CE
:10092C0000AF07F1100300221A605A609A60DA6077
:10093C00454B9B69444A43F010039361424B9B69BE
:10094C0003F01003FB60FB683F4B9B693E4A43F08E
:10095C00200393613C4B9B6903F02003BB60BB6895
:10096C00394B9B69384A43F004039361364B9B69BE
:10097C0003F004037B607B68334B9B69324A43F082
:10098C0008039361304B9B6903F008033B603B68A1
:10099C0000224FF400512D4801F039FA002240F6A4
:1009AC001B412B4801F033FA00224FF4F051294837
:1009BC0001F02DFA4FF400533B6101237B610023BE
:1009CC00BB610323FB6107F1100319461F4801F0BB
:1009DC0083F840233B6102237B610223FB6107F117
:1009EC00100319461B4801F077F840F61B433B6196
:1009FC0001237B610023BB610323FB6107F110031F
:100A0C001946134801F068F84FF470433B6100231A
:100A1C007B610123BB6107F1100319460C4801F0FF
:100A2C005BF84FF4F0533B6101237B610023BB6106
:100A3C000323FB6107F110031946064801F04CF83B
:100A4C0000BF2037BD4680BD0010024000100140A1
:100A5C00000C01400008014080B400AF72B600BF2A
:100A6C0000BFFDE780B485B000AF154B9B69144AFD
:100A7C0043F001039361124B9B6903F00103BB60CC
:100A8C00BB680F4BDB690E4A43F08053D3610C4BB0
:100A9C00DB6903F080537B607B680A4B5B68FB600F
:100AAC00FB6823F0E063FB60FB6843F08063FB6052
:100ABC00044AFB68536000BF1437BD4680BC7047C6
:100ACC00001002400000014080B588B000AF786093
:100ADC0007F1100300221A605A609A60DA607B6892
:100AEC001B68284A934249D1274B9B69264A43F4F9
:100AFC0000739361244B9B6903F40073FB60FB68E8
:100B0C00214B9B69204A43F0040393611E4B9B6964
:100B1C0003F00403BB60BB6803233B6103237B61CD
:100B2C0007F110031946194800F0D6FF184B194A63
:100B3C001A60174B00225A60154B00229A60144B16
:100B4C008022DA60124B4FF480721A61104B4FF412
:100B5C0080625A610E4B00229A610D4B0022DA61C1
:100B6C000B4800F059FE0346002B01D0FFF774FF31
:100B7C007B68074A1A62064A7B68536200BF2037BB
:100B8C00BD4680BD00240140001002400008014019
:100B9C00580000200800024080B485B000AF786097
:100BAC007B681B68094A93420BD1094B9B69084A25
:100BBC0043F400639361064B9B6903F40063FB6091
:100BCC00FB6800BF1437BD4680BC7047002C014049
:100BDC000010024080B400AF00BFFDE780B400AF4E
:100BEC0000BFFDE780B400AF00BFFDE780B400AFED
:100BFC0000BFFDE780B400AF00BFFDE780B400AFDD
:100C0C0000BFBD4680BC704780B400AF00BFBD467E
:100C1C0080BC704780B400AF00BFBD4680BC70473D
:100C2C0080B500AF00F07EF800BF80BD80B500AF8E
:100C3C00024800F04BFE00BF80BD00BF58000020F2
:100C4C0080B400AF00BFBD4680BC7047FFF7F8FF13
:100C5C000B480C490C4A002302E0D458C45004330E
:100C6C00C4188C42F9D3094A094C002301E01360E3
:100C7C000432A242FBD302F007FAFFF7C5FC70471F
:100C8C00000000200C000020903100080C00002017
:100C9C00E8000020FEE7000080B500AF084B1B68A1
:100CAC00074A43F010031360032000F073FD0F207C
:100CBC0000F008F8FFF7D6FE0023184680BD00BFF1
:100CCC000020024080B582B000AF7860124B1A68E9
:100CDC00124B1B7819464FF47A73B3FBF1F3B2FB4A
:100CEC00F3F3184600F08BFD0346002B01D00123D3
:100CFC000EE07B680F2B0AD8002279684FF0FF308A
:100D0C0000F053FD064A7B681360002300E00123CA
:100D1C0018460837BD4680BD0000002008000020A2
:100D2C000400002080B400AF054B1B781A46054B1D
:100D3C001B681344034A136000BFBD4680BC704758
:100D4C0008000020E400002080B400AF024B1B68B8
:100D5C001846BD4680BC7047E400002080B584B0C6
:100D6C0000AF7860FFF7F0FFB8607B68FB60FB6852
:100D7C00B3F1FF3F05D00A4B1B781A46FB681344AE
:100D8C00FB6000BFFFF7E0FF0246BB68D31AFA68AE
:100D9C009A42F7D800BF00BF1037BD4680BD00BFD8
:100DAC000800002080B586B000AF78600023FB758A
:100DBC0000233B610023BB600023FB607B68002B9E
:100DCC0001D10123BEE07B689B68002B7B689B6A8A
:100DDC00002B09D17B680022DA627B68002283F841
:100DEC0024207868FFF770FE786800F0C5FB034696
:100DFC00FB757B689B6A03F01003002B40F0998015
:100E0C00FB7D002B40F095807B689B6A23F4885314
:100E1C0023F0020343F002027B689A627B685A68F3
:100E2C007B68DB691A437B681B7B5B001343BA68E6
:100E3C001343BB607B689B68B3F5807F03D07B68F2
:100E4C009B68012B02D14FF4807300E000233A69B8
:100E5C0013433B617B681B7D012B19D17B681B7B8A
:100E6C00002B09D17B689B69013B5A033B691343F7
:100E7C0043F400633B610BE07B689B6A43F0200208
:100E8C007B689A627B68DB6A43F001027B68DA62FA
:100E9C007B681B685B6823F469417B681B683A6953
:100EAC000A435A607B681B689A68284B13407A681F
:100EBC001268B9680B4393607B689B68B3F5807FBD
:100ECC0003D07B689B68012B04D17B681B69013BB9
:100EDC001B05FB607B681B68DB6A23F470017B6875
:100EEC001B68FA680A43DA627B681B689A68184BBD
:100EFC001340BA689A420BD17B680022DA627B6895
:100F0C009B6A23F0030343F001027B689A6218E0AA
:100F1C007B689B6A23F0120343F010027B689A6291
:100F2C007B68DB6A43F001027B68DA620123FB75A4
:100F3C0007E07B689B6A43F010027B689A6201238E
:100F4C00FB75FB7D18461837BD4680BDFDF7E1FFEC
:100F5C00FE0E1FFF80B584B000AF78600023FB73DA
:100F6C007B6893F82430012B01D1022398E07B6835
:100F7C00012283F82420786800F0A4FA0346FB735E
:100F8C00FB7B002B40F087807B689B6A23F44073CB
:100F9C0023F0010343F480727B689A627B681B68C0
:100FAC00414A934205D1414B5B6803F47023002BFB
:100FBC0015D17B689B6A23F480127B689A627B68EC
:100FCC001B685B6803F48063002B26D07B689B6AEC
:100FDC0023F4405343F480527B689A621DE07B6893
:100FEC009B6A43F480127B689A627B681B682F4A69
:100FFC00934204D07B681B682B4A93420DD12B4B38
:10100C005B6803F48063002B07D07B689B6A23F436
:10101C00405343F480527B689A627B689B6A03F46A
:10102C008053002B06D07B68DB6A23F006027B68BA
:10103C00DA6202E07B680022DA627B68002283F8C5
:10104C0024207B681B686FF002021A607B681B68A7
:10105C009B6803F46023B3F5602F13D17B681B6886
:10106C00114A934205D1114B5B6803F47023002B9A
:10107C0008D17B681B689A687B681B6842F4A002E5
:10108C009A600CE07B681B689A687B681B6842F46A
:10109C0080129A6003E07B68002283F82420FB7B9B
:1010AC0018461037BD4680BD002801400024014081
:1010BC0090B587B000AF7860396000237B61002366
:1010CC00FB6000233B61FFF73FFE78617B681B6888
:1010DC009B6803F48073002B0BD07B689B6A43F0F6
:1010EC0020027B689A627B68002283F8242001230B
:1010FC00D3E07B681B685B6803F48073002B31D1F1
:10110C007B681B68DB6A03F47003002B2AD121E097
:10111C003B68B3F1FF3F1DD03B68002B07D0FFF7B6
:10112C0013FE02467B69D31A3A689A4212D27B6844
:10113C001B681B6803F00203002B0BD17B689B6AB6
:10114C0043F004027B689A627B68002283F82420B7
:10115C000323A2E07B681B681B6803F00203002BCF
:10116C00D6D070E04F4B1C68022001F033FB0346D5
:10117C00B4FBF3F27B681B6819694B4B0B40002BDB
:10118C0018D17B681B68D968484B0B40002B11D1D8
:10119C007B681B681969464B0B40002B08D17B6898
:1011AC001B68D968434B0B40002B01D1142320E062
:1011BC0029231EE07B681B6819693D4B0B40002BF3
:1011CC0006D17B681B68D9683A4B0B40002B0DD0BD
:1011DC007B681B681969384B0B40002B08D17B6866
:1011EC001B68D968344B0B40002B01D1542300E011
:1011FC00FC2302FB03F33B6121E03B68B3F1FF3FAF
:10120C001AD03B68002B07D0FFF79EFD02467B6986
:10121C00D31A3A689A420FD2FB683A699A420BD9B0
:10122C007B689B6A43F004027B689A627B680022AD
:10123C0083F82420032330E0FB680133FB60FB6858
:10124C003A699A42D9D87B681B686FF012021A600F
:10125C007B689B6A43F400727B689A627B681B68AC
:10126C009B6803F46023B3F5602F15D17B681B7B5F
:10127C00002B11D17B689B6A23F480727B689A6285
:10128C007B689B6A03F48053002B05D17B689B6AB7
:10129C0043F001027B689A62002318461C37BD4656
:1012AC0090BD00BF000000202449922424499200E4
:1012BC0092244912922449004992240080B483B0AC
:1012CC0000AF78607B681B68DB6C18460C37BD463A
:1012DC0080BC704780B485B000AF78603960002363
:1012EC00FB730023BB607B6893F82430012B01D186
:1012FC000223DCE07B68012283F824203B685B68D6
:10130C00062B1CD87B681B68596B3B685A681346C4
:10131C009B001344053B1F2202FA03F3DB431940E5
:10132C003B6818683B685A6813469B001344053B9E
:10133C0000FA03F27B681B680A435A633CE03B6883
:10134C005B680C2B1CD87B681B68196B3B685A6854
:10135C0013469B001344233B1F2202FA03F3DB4387
:10136C0019403B6818683B685A6813469B00134445
:10137C00233B00FA03F27B681B680A431A631BE0E9
:10138C007B681B68D96A3B685A6813469B001344F8
:10139C00413B1F2202FA03F3DB4319403B681868F8
:1013AC003B685A6813469B001344413B00FA03F216
:1013BC007B681B680A43DA623B681B68092B1CD9E3
:1013CC007B681B68D9683B681A6813465B0013443A
:1013DC001E3B072202FA03F3DB4319403B68986873
:1013EC003B681A6813465B0013441E3B00FA03F279
:1013FC007B681B680A43DA6019E07B681B68196913
:10140C003B681A6813465B001344072202FA03F385
:10141C00DB4319403B6898683B681A6813465B00CD
:10142C00134400FA03F27B681B680A431A613B6899
:10143C001B68102B03D03B681B68112B32D17B68C7
:10144C001B681D4A934225D17B681B689B6803F47B
:10145C000003002B26D17B681B689A687B681B688D
:10146C0042F400029A603B681B68102B1AD1134B94
:10147C001B68134AA2FB03239A0C13469B001344CC
:10148C005B00BB6002E0BB68013BBB60BB68002B30
:10149C00F9D107E07B689B6A43F020027B689A6273
:1014AC000123FB737B68002283F82420FB7B184606
:1014BC001437BD4680BC704700240140000000205A
:1014CC0083DE1B4380B584B000AF78600023FB60E3
:1014DC000023BB607B681B689B6803F00103012B36
:1014EC0040D07B681B689A687B681B6842F00102DD
:1014FC009A601F4B1B681F4AA2FB03239B0CBB600B
:10150C0002E0BB68013BBB60BB68002BF9D1FFF765
:10151C001BFCF8601FE0FFF717FC0246FB68D31AB0
:10152C00022B18D97B681B689B6803F00103012B05
:10153C0011D07B689B6A43F010027B689A627B68CF
:10154C00DB6A43F001027B68DA627B68002283F875
:10155C002420012307E07B681B689B6803F00103D0
:10156C00012BD8D1002318461037BD4680BD00BFD3
:10157C000000002083DE1B4380B584B000AF786090
:10158C000023FB607B681B689B6803F00103012B45
:10159C002ED17B681B689A687B681B6822F001025D
:1015AC009A60FFF7D1FBF8601BE0FFF7CDFB02461A
:1015BC00FB68D31A022B14D97B681B689B6803F059
:1015CC000103012B0DD17B689B6A43F010027B68F1
:1015DC009A627B68DB6A43F001027B68DA62012362
:1015EC0007E07B681B689B6803F00103012BDCD0D0
:1015FC00002318461037BD4680BD000080B485B06E
:10160C0000AF78607B6803F00703FB600C4BDB6872
:10161C00BB60BA684FF6FF031340BB60FB681A024D
:10162C00BB68134343F0BF6343F40033BB60044A0D
:10163C00BB68D36000BF1437BD4680BC704700BF89
:10164C0000ED00E080B400AF044BDB681B0A03F034
:10165C0007031846BD4680BC704700BF00ED00E094
:10166C0080B483B000AF0346FB7197F90730002BB1
:10167C000BDBFB7903F01F02064997F907305B0976
:10168C00012000FA02F241F8232000BF0C37BD46BE
:10169C0080BC704700E100E080B483B000AF03462B
:1016AC003960FB7197F90730002B0ADB3B68DAB223
:1016BC000C4997F907301201D2B20B4483F800237E
:1016CC000AE03B68DAB20849FB7903F00F03043BEC
:1016DC001201D2B20B441A7600BF0C37BD4680BC47
:1016EC00704700BF00E100E000ED00E080B489B07D
:1016FC0000AFF860B9607A60FB6803F00703FB6128
:10170C00FB69C3F10703042B28BF0423BB61FB69EE
:10171C000433062B02D9FB69033B00E000237B61F9
:10172C004FF0FF32BB6902FA03F3DA43BB681A408D
:10173C007B699A404FF0FF317B6901FA03F3D9437F
:10174C007B680B40134318462437BD4680BC70475A
:10175C0080B582B000AF78607B68013BB3F1807FCD
:10176C0001D301230FE00A4A7B68013B53600F2130
:10177C004FF0FF30FFF790FF054B00229A60044BAF
:10178C0007221A60002318460837BD4680BD00BFEB
:10179C0010E000E080B582B000AF78607868FFF7A9
:1017AC002DFF00BF0837BD4680BD80B586B000AFA9
:1017BC000346B9607A60FB7300237B61FFF742FF3D
:1017CC0078617A68B9687869FFF790FF024697F9F3
:1017DC000F3011461846FFF75FFF00BF1837BD46A4
:1017EC0080BD80B582B000AF0346FB7197F907301E
:1017FC001846FFF735FF00BF0837BD4680BD80B5E2
:10180C0082B000AF78607868FFF7A2FF03461846F5
:10181C000837BD4680BD000080B485B000AF78604D
:10182C000023FB607B68002B01D1012343E07B6824
:10183C001B681A46224B1344224AA2FB03231B09A2
:10184C009A007B681A647B681F4ADA637B68022201
:10185C0083F821207B681B681B68FB60FB6823F402
:10186C007F5323F03003FB607B685A687B689B686E
:10187C001A437B68DB681A437B681B691A437B68D5
:10188C005B691A437B689B691A437B68DB6913436A
:10189C00FA681343FB607B681B68FA681A607B6804
:1018AC0000229A637B68012283F821207B68002246
:1018BC0083F82020002318461437BD4680BC70479F
:1018CC00F8FFFDBFCDCCCCCC0000024080B584B07D
:1018DC0000AF78607B68DB6B1B68FB607B681B6808
:1018EC001B68BB607B681B6C04229A40FB6813402E
:1018FC00002B4FD0BB6803F00403002B4AD07B684D
:10190C001B681B6803F02003002B07D17B681B6846
:10191C001A687B681B6822F004021A607B681B68DB
:10192C00664A934229D07B681B68654A934222D051
:10193C007B681B68634A93421AD07B681B68624AB7
:10194C00934212D07B681B68604A93420AD07B6832
:10195C001B685F4A934202D14FF480030EE04FF0B4
:10196C0080630BE04FF4802308E04FF4804305E0E4
:10197C004FF4806302E0402300E00423554A536097
:10198C007B68DB6A002B00F094807B68DB6A7868EC
:10199C0098478EE07B681B6C02229A40FB681340D0
:1019AC00002B56D0BB6803F00203002B51D07B6890
:1019BC001B681B6803F02003002B0BD17B681B6892
:1019CC001A687B681B6822F00A021A607B68012285
:1019DC0083F821207B681B68384A934229D07B68A6
:1019EC001B68374A934222D07B681B68354A934266
:1019FC001AD07B681B68344A934212D07B681B68F0
:101A0C00324A93420AD07B681B68314A934202D116
:101A1C004FF400130EE04FF000730BE04FF4003363
:101A2C0008E04FF4005305E04FF4007302E020236C
:101A3C0000E00223274A53607B68002283F82020B1
:101A4C007B689B6A002B34D07B689B6A78689847CC
:101A5C002FE07B681B6C08229A40FB681340002B1C
:101A6C0028D0BB6803F00803002B23D07B681B68CD
:101A7C001A687B681B6822F00E021A607B681A6C6D
:101A8C007B68DB6B012101FA02F25A607B68012250
:101A9C009A637B68012283F821207B68002283F8FB
:101AAC0020207B681B6B002B04D07B681B6B786839
:101ABC00984700BF00BF1037BD4680BD08000240EC
:101ACC001C0002403000024044000240580002401A
:101ADC006C0002400000024080B48BB000AF786014
:101AEC00396000237B6200233B6269E101227B6A3F
:101AFC0002FA03F3FB613B681B68FA691340BB6194
:101B0C00BA69FB699A4240F058813B685B689A4A13
:101B1C0093425ED0984A934275D8984A934258D0D3
:101B2C00964A93426FD8964A934252D0944A934223
:101B3C0069D8944A93424CD0924A934263D8924AC1
:101B4C00934246D0904A93425DD8122B2AD8122B3E
:101B5C0059D801A252F823F0DF1B0008B91B00086A
:101B6C00CB1B00080D1C0008131C0008131C0008DC
:101B7C00131C0008131C0008131C0008131C00087D
:101B8C00131C0008131C0008131C0008131C00086D
:101B9C00131C0008131C0008131C0008C11B0008B0
:101BAC00D51B0008794A934213D02CE03B68DB68C4
:101BBC003B6229E03B68DB6804333B6224E03B6812
:101BCC00DB6808333B621FE03B68DB680C333B622D
:101BDC001AE03B689B68002B02D104233B6213E0A4
:101BEC003B689B68012B05D108233B627B68FA6933
:101BFC001A6109E008233B627B68FA695A6103E0C9
:101C0C0000233B6200E000BFBB69FF2B01D87B685F
:101C1C0001E07B6804337B61BB69FF2B02D87B6AD4
:101C2C009B0002E07B6A083B9B003B617B691A6866
:101C3C000F213B6901FA03F3DB431A40396A3B6914
:101C4C0001FA03F31A437B691A603B685B6803F083
:101C5C008053002B00F0B1804D4B9B694C4A43F0F4
:101C6C00010393614A4B9B6903F00103BB60BB68A2
:101C7C00484A7B6A9B08023352F82330FB607B6A2C
:101C8C0003F003039B000F2202FA03F3DB43FA6811
:101C9C001340FB607B68404A934213D07B683F4AF9
:101CAC0093420DD07B683E4A934207D07B683D4AF5
:101CBC00934201D1032306E0042304E0022302E053
:101CCC00012300E000237A6A02F0030292009340A1
:101CDC00FA681343FB602F497B6A9B080233FA684E
:101CEC0041F823203B685B6803F48013002B06D07B
:101CFC002D4B9A682C49BB6913438B6006E02A4B29
:101D0C009A68BB69DB43284913408B603B685B686E
:101D1C0003F40013002B06D0234BDA682249BB696D
:101D2C001343CB6006E0204BDA68BB69DB431E49EA
:101D3C001340CB603B685B6803F40033002B06D088
:101D4C00194B5A681849BB6913434B6006E0164B94
:101D5C005A68BB69DB43144913404B603B685B68B2
:101D6C0003F48033002B21D00F4B1A680E49BB694A
:101D7C0013430B6021E000BF000032100000311053
:101D8C0000002210000021100000121000001110A1
:101D9C00001002400000014000080140000C01400E
:101DAC000010014000140140000401400B4B1A6864
:101DBC00BB69DB43094913400B607B6A01337B62CF
:101DCC003B681A687B6A22FA03F3002B7FF48EAE11
:101DDC0000BF00BF2C37BD4680BC704700040140DB
:101DEC0080B485B000AF78600B467B807B689A68C6
:101DFC007B881340002B02D00123FB7301E00023EE
:101E0C00FB73FB7B18461437BD4680BC704780B40F
:101E1C0083B000AF78600B467B8013467B707B7879
:101E2C00002B03D07A887B681A6103E07B881A0444
:101E3C007B681A6100BF0C37BD4680BC704780B40C
:101E4C0085B000AF78600B467B807B68DB68FB60FD
:101E5C007A88FB6813401A04FB68D9437B880B40D3
:101E6C001A437B681A6100BF1437BD4680BC7047AB
:101E7C0080B586B000AF78607B68002B01D1012360
:101E8C0072E27B681B6803F00103002B00F0878073
:101E9C00924B5B6803F00C03042B0CD08F4B5B68EC
:101EAC0003F00C03082B12D18C4B5B6803F48033CA
:101EBC00B3F5803F0BD1894B1B6803F40033002B27
:101ECC006CD07B685B68002B68D101234CE27B688B
:101EDC005B68B3F5803F06D1804B1B687F4A43F4A7
:101EEC00803313602EE07B685B68002B0CD17B4B3E
:101EFC001B687A4A23F480331360784B1B68774A4B
:101F0C0023F4802313601DE07B685B68B3F5A02F7E
:101F1C000CD1724B1B68714A43F4802313606F4BD6
:101F2C001B686E4A43F4803313600BE06B4B1B68E9
:101F3C006A4A23F480331360684B1B68674A23F4A6
:101F4C00802313607B685B68002B13D0FEF7FCFECC
:101F5C00386108E0FEF7F8FE02463B69D31A642BA1
:101F6C0001D9032300E25D4B1B6803F40033002B03
:101F7C00F0D014E0FEF7E8FE386108E0FEF7E4FE6E
:101F8C0002463B69D31A642B01D90323ECE1534B72
:101F9C001B6803F40033002BF0D100E000BF7B681A
:101FAC001B6803F00203002B63D04C4B5B6803F0FF
:101FBC000C03002B0BD0494B5B6803F00C03082B74
:101FCC001CD1464B5B6803F48033002B16D1434B7A
:101FDC001B6803F00203002B05D07B681B69012BE7
:101FEC0001D00123C0E13D4B1B6823F0F8027B6854
:101FFC005B69DB00394913430B603AE07B681B6972
:10200C00002B20D0364B01221A60FEF79DFE386162
:10201C0008E0FEF799FE02463B69D31A022B01D960
:10202C000323A1E12D4B1B6803F00203002BF0D01E
:10203C002A4B1B6823F0F8027B685B69DB0027499D
:10204C0013430B6015E0264B00221A60FEF77CFE52
:10205C00386108E0FEF778FE02463B69D31A022B82
:10206C0001D9032380E11D4B1B6803F00203002BF5
:10207C00F0D17B681B6803F00803002B3AD07B6817
:10208C009B69002B19D0174B01221A60FEF75CFEDE
:10209C00386108E0FEF758FE02463B69D31A022B62
:1020AC0001D9032360E10D4B5B6A03F00203002BA3
:1020BC00F0D0012000F0BAFA1CE00A4B00221A60A2
:1020CC00FEF742FE38610FE0FEF73EFE02463B692A
:1020DC00D31A022B08D9032346E100BF001002409B
:1020EC000000424280044242924B5B6A03F00203BE
:1020FC00002BE9D17B681B6803F00403002B00F074
:10210C00A6800023FB758B4BDB6903F08053002BFF
:10211C000DD1884BDB69874A43F08053D361854BE3
:10212C00DB6903F08053BB60BB680123FB75824BFA
:10213C001B6803F48073002B18D17F4B1B687E4AFD
:10214C0043F480731360FEF7FFFD386108E0FEF77F
:10215C00FBFD02463B69D31A642B01D9032303E12F
:10216C00754B1B6803F48073002BF0D07B68DB6825
:10217C00012B06D16F4B1B6A6E4A43F001031362AD
:10218C002DE07B68DB68002B0CD16A4B1B6A694A1B
:10219C0023F001031362674B1B6A664A23F00403A6
:1021AC0013621CE07B68DB68052B0CD1614B1B6A4E
:1021BC00604A43F0040313625E4B1B6A5D4A43F0B2
:1021CC00010313620BE05B4B1B6A5A4A23F00103B9
:1021DC001362584B1B6A574A23F0040313627B6843
:1021EC00DB68002B15D0FEF7AFFD38610AE0FEF777
:1021FC00ABFD02463B69D31A41F28832934201D9B6
:10220C000323B1E04B4B1B6A03F00203002BEED00F
:10221C0014E0FEF799FD38610AE0FEF795FD0246E1
:10222C003B69D31A41F28832934201D903239BE0D4
:10223C00404B1B6A03F00203002BEED1FB7D012BFC
:10224C0005D13C4BDB693B4A23F08053D3617B685F
:10225C00DB69002B00F08780364B5B6803F00C03C6
:10226C00082B61D07B68DB69022B46D1334B0022F3
:10227C001A60FEF769FD386108E0FEF765FD02465D
:10228C003B69D31A022B01D903236DE0294B1B6840
:10229C0003F00073002BF0D17B681B6AB3F5803F11
:1022AC0008D1244B5B6823F400327B689B6821497E
:1022BC0013434B601F4B5B6823F474127B68196AE1
:1022CC007B685B6A0B431B4913434B601B4B01221E
:1022DC001A60FEF739FD386108E0FEF735FD02465D
:1022EC003B69D31A022B01D903233DE0114B1B6828
:1022FC0003F00073002BF0D035E0104B00221A6075
:10230C00FEF722FD386108E0FEF71EFD02463B6930
:10231C00D31A022B01D9032326E0064B1B6803F0CA
:10232C000073002BF0D11EE07B68DB69012B07D119
:10233C00012319E00010024000700040600042428E
:10234C000B4B5B68FB60FB6803F480327B681B6A99
:10235C009A4206D1FB6803F470127B685B6A9A425E
:10236C0001D0012300E0002318461837BD4680BD7C
:10237C000010024080B584B000AF786039607B6893
:10238C00002B01D10123D0E06A4B1B6803F007033B
:10239C003A689A4210D9674B1B6823F007026549CB
:1023AC003B6813430B60634B1B6803F007033A68ED
:1023BC009A4201D00123B8E07B681B6803F002034A
:1023CC00002B20D07B681B6803F00403002B05D086
:1023DC00594B5B68584A43F4E06353607B681B6855
:1023EC0003F00803002B05D0534B5B68524A43F4AF
:1023FC0060535360504B5B6823F0F0027B689B6822
:10240C004D4913434B607B681B6803F00103002BA1
:10241C0040D07B685B68012B07D1474B1B6803F4EA
:10242C000033002B15D101237FE07B685B68022B06
:10243C0007D1414B1B6803F00073002B09D101231A
:10244C0073E03D4B1B6803F00203002B01D1012309
:10245C006BE0394B5B6823F003027B685B683649A1
:10246C0013434B60FEF770FCF8600AE0FEF76CFC5F
:10247C000246FB68D31A41F28832934201D90323F6
:10248C0053E02D4B5B6803F00C027B685B689B0090
:10249C009A42EBD1274B1B6803F007033A689A4228
:1024AC0010D2244B1B6823F0070222493B681343CC
:1024BC000B60204B1B6803F007033A689A4201D06B
:1024CC00012332E07B681B6803F00403002B08D067
:1024DC00194B5B6823F4E0627B68DB681649134395
:1024EC004B607B681B6803F00803002B09D0124B70
:1024FC005B6823F460527B681B69DB000E49134355
:10250C004B6000F021F802460B4B5B681B0903F093
:10251C000F030A49CB5C22FA03F3094A1360094BF7
:10252C001B681846FEF7CEFB002318461037BD4635
:10253C0080BD00BF00200240001002402431000882
:10254C00000000200400002080B487B000AF0023FE
:10255C00FB600023BB6000237B6100237B600023B6
:10256C003B611E4B5B68FB60FB6803F00C03042BA8
:10257C0002D0082B03D027E0194B3B6127E0FB6806
:10258C009B0C03F00F03174AD35C7B60FB6803F4CE
:10259C008033002B10D0114B5B685B0C03F00103F4
:1025AC00114AD35CBB607B680D4A03FB02F2BB682B
:1025BC00B2FBF3F37B6104E07B680C4A02FB03F390
:1025CC007B617B693B6102E0054B3B6100BF3B6972
:1025DC0018461C37BD4680BC704700BF0010024037
:1025EC0000127A003C3100084C31000800093D0013
:1025FC0080B400AF024B1B681846BD4680BC7047C8
:10260C000000002080B500AFFFF7F2FF0246054B3B
:10261C005B68DB0A03F007030349CB5C22FA03F384
:10262C00184680BD001002403431000880B485B0DB
:10263C0000AF78600A4B1B680A4AA2FB03235B0AB3
:10264C007A6802FB03F3FB6000BFFB685A1EFA605A
:10265C00002BF9D100BF00BF1437BD4680BC7047BA
:10266C0000000020D34D621080B586B000AF7860BA
:10267C0000233B610023FB607B681B6803F00103B4
:10268C00002B7DD00023FB754F4BDB6903F080538F
:10269C00002B0DD14C4BDB694B4A43F08053D3617B
:1026AC00494BDB6903F08053BB60BB680123FB75AE
:1026BC00464B1B6803F48073002B18D1434B1B68EB
:1026CC00424A43F480731360FEF73EFB386108E026
:1026DC00FEF73AFB02463B69D31A642B01D903235C
:1026EC006DE03A4B1B6803F48073002BF0D0364B33
:1026FC001B6A03F44073FB60FB68002B2ED07B68D5
:10270C005B6803F44073FA689A4227D02E4B1B6A1D
:10271C0023F44073FB602E4B01221A602C4B0022D9
:10272C001A60294AFB681362FB6803F00103002B53
:10273C0014D0FEF709FB38610AE0FEF705FB0246F0
:10274C003B69D31A41F28832934201D9032336E014
:10275C001D4B1B6A03F00203002BEED01A4B1B6AB5
:10276C0023F440727B685B68174913430B62FB7D53
:10277C00012B05D1144BDB69134A23F08053D36131
:10278C007B681B6803F00203002B08D00E4B5B68C0
:10279C0023F440427B689B680B4913434B607B6876
:1027AC001B6803F01003002B08D0074B5B6823F465
:1027BC0080027B68DB68044913434B600023184696
:1027CC001837BD4680BD00BF0010024000700040AD
:1027DC004004424280B588B000AF786000237B6132
:1027EC000023FB6100233B610023FB600023BB61E2
:1027FC007B68102B0AD07B68102B00F28A807B68D8
:10280C00012B45D07B68022B75D082E0464B5B6870
:10281C00FB60454B1B6803F08073002B7BD0FB687F
:10282C009B0C03F00F03414AD35C3B61FB6803F440
:10283C008033002B15D03C4B5B685B0C03F0010321
:10284C003B4AD35C7B61FB6803F48033002B0DD0D7
:10285C00384A7B69B2FBF3F23B6902FB03F3FB6181
:10286C0004E03B69344A02FB03F3FB612E4B5B68CB
:10287C0003F48003B3F5800F02D1FB69BB614AE01E
:10288C00FB695B002D4AA2FB03235B08BB6142E0A2
:10289C00254B1B6AFB60FB6803F44073B3F5807F28
:1028AC0008D1FB6803F00203002B03D04FF4004364
:1028BC00BB611FE0FB6803F44073B3F5007F09D1E3
:1028CC00194B5B6A03F00203002B03D049F640431B
:1028DC00BB610FE0FB6803F44073B3F5407F1CD180
:1028EC00114B1B6803F40033002B16D04FF224431A
:1028FC00BB6112E011E0FFF785FE02460A4B5B68F4
:10290C009B0B03F0030301335B00B2FBF3F3BB61DE
:10291C0004E000BF02E000BF00E000BFBB69184646
:10292C002037BD4680BD00BF00100240503100086A
:10293C006031000800127A0000093D00ABAAAAAA77
:10294C0080B582B000AF78607B68002B01D1012389
:10295C0041E07B6893F83D30DBB2002B06D17B68FD
:10296C00002283F83C207868FEF716F97B68022277
:10297C0083F83D207B681A687B680433194610463F
:10298C0000F036F97B68012283F846207B6801222F
:10299C0083F83E207B68012283F83F207B6801226C
:1029AC0083F840207B68012283F841207B68012258
:1029BC0083F842207B68012283F843207B68012244
:1029CC0083F844207B68012283F845207B68012230
:1029DC0083F83D20002318460837BD4680BD80B5DE
:1029EC0084B000AF786039600023FB737B6893F888
:1029FC003C30012B01D10223B4E07B68012283F827
:102A0C003C207B68022283F83D207B681B689B6816
:102A1C00BB60BB6823F07703BB60BB6823F47F43C8
:102A2C00BB607B681B68BA689A603B681B68B3F52F
:102A3C00005F3ED0B3F5005F00F28780B3F5805F96
:102A4C0000F08680B3F5805F7FD8702B1AD0702B86
:102A5C007BD8602B50D0602B77D8502B3CD0502B90
:102A6C0073D8402B58D0402B6FD8302B64D0302BE0
:102A7C006BD8202B60D0202B67D8002B5CD0102B70
:102A8C005AD062E07B6818683B6899683B685A6862
:102A9C003B68DB6800F016FA7B681B689B68BB60C0
:102AAC00BB6843F07703BB607B681B68BA689A60AD
:102ABC004FE07B6818683B6899683B685A683B68CC
:102ACC00DB6800F0FFF97B681B689A687B681B6801
:102ADC0042F480429A603CE07B6818683B68596815
:102AEC003B68DB681A4600F076F97B681B6850215E
:102AFC00184600F0CDF92CE07B6818683B685968E3
:102B0C003B68DB681A4600F094F97B681B6860210F
:102B1C00184600F0BDF91CE07B6818683B685968E2
:102B2C003B68DB681A4600F056F97B681B6840214D
:102B3C00184600F0ADF90CE07B681A683B681B681E
:102B4C001946104600F0A4F903E00123FB7300E0E2
:102B5C0000BF7B68012283F83D207B68002283F84C
:102B6C003C20FB7B18461037BD4680BD80B582B03B
:102B7C0000AF786039607B6893F83C30012B01D151
:102B8C00022331E07B68012283F83C207B6802221F
:102B9C0083F83D203968786800F08CF80346002BE8
:102BAC0009D07B68012283F83D207B68002283F8E2
:102BBC003C20012318E07B681B68DA687B681B6883
:102BCC0022F04002DA607B681B68DA687B681B685D
:102BDC0022F48042DA607B68012283F83D207B6816
:102BEC00002283F83C20002318460837BD4680BDE0
:102BFC0080B485B000AF786039607B681B68FB607F
:102C0C007B68294A93420BD07B68B3F1804F07D085
:102C1C007B68264A934203D07B68254A934208D1AD
:102C2C00FB6823F07003FB603B685B68FA68134336
:102C3C00FB607B681C4A93420BD07B68B3F1804FDE
:102C4C0007D07B68194A934203D07B68184A934299
:102C5C0008D1FB6823F44073FB603B68DB68FA68BF
:102C6C001343FB60FB6823F080023B685B691343F2
:102C7C00FB607B68FA681A603B689A687B68DA626A
:102C8C003B681A687B689A627B68074A934203D157
:102C9C003B681A697B681A637B6801225A6100BF22
:102CAC001437BD4680BC7047002C01400004004026
:102CBC000008004080B586B000AF78603960002312
:102CCC00FB757B681B689B683B613B6923F0700359
:102CDC003B613B685B683A6913433B613B6923F09A
:102CEC0007033B613B681B683A6913433B617B6894
:102CFC001B683A699A603B685B68702B1AD0702B22
:102D0C0060D8602B54D0602B5CD8502B46D0502B05
:102D1C0058D8402B19D0402B54D8302B55D0302BB1
:102D2C0050D8202B51D0202B4CD8002B4DD0102B11
:102D3C004BD047E07B6818683B68D9683B689A6859
:102D4C003B681B6900F0BEF840E03B681B68052B34
:102D5C0001D101233BE07B681B681B6AFB607B682D
:102D6C001B681A6A7B681B6822F001021A627B6876
:102D7C001B689B69BB60BB6823F0F003BB603B68BE
:102D8C001B691B01BA681343BB607B681B68BA687C
:102D9C009A617B681B68FA681A6217E07B6818688E
:102DAC003B6899683B681B691A4600F014F80DE003
:102DBC007B6818683B6899683B681B691A4600F089
:102DCC0038F803E00123FB7500E000BFFB7D1846DB
:102DDC001837BD4680BD80B487B000AFF860B960CD
:102DEC007A60FB681B6A7B61FB681B6A23F001023B
:102DFC00FB681A62FB689B693B613B6923F0F0033B
:102E0C003B617B681B013A6913433B617B6923F08F
:102E1C000A037B617A69BB6813437B61FB683A697F
:102E2C009A61FB687A691A6200BF1C37BD4680BC88
:102E3C00704780B487B000AFF860B9607A60FB6807
:102E4C001B6A7B61FB681B6A23F01002FB681A6229
:102E5C00FB689B693B613B6923F470433B617B6876
:102E6C001B033A6913433B617B6923F0A0037B612D
:102E7C00BB681B017A6913437B61FB683A699A61F1
:102E8C00FB687A691A6200BF1C37BD4680BC70476C
:102E9C0080B485B000AF786039607B689B68FB605C
:102EAC00FB6823F07003FB603A68FB68134343F044
:102EBC000703FB607B68FA689A6000BF1437BD4655
:102ECC0080BC704780B487B000AFF860B9607A609E
:102EDC003B60FB689B687B617B6923F47F437B6170
:102EEC003B681A027B681A43BB6813437A69134325
:102EFC007B61FB687A699A6000BF1C37BD4680BC59
:102F0C007047000080B485B000AF786039607B6892
:102F1C0093F83C30012B01D1022346E07B6801225F
:102F2C0083F83C207B68022283F83D207B681B6879
:102F3C005B68FB607B681B689B68BB60FB6823F06D
:102F4C007003FB603B681B68FA681343FB607B688B
:102F5C001B68FA685A607B681B68164A93420ED04D
:102F6C007B681B68B3F1804F09D07B681B68124AE1
:102F7C00934204D07B681B68104A93420CD1BB6807
:102F8C0023F08003BB603B685B68BA681343BB608B
:102F9C007B681B68BA689A607B68012283F83D20C5
:102FAC007B68002283F83C20002318461437BD466A
:102FBC0080BC7047002C0140000400400008004019
:102FCC00931E222B10B50C4604D900231C460B7003
:102FDC00204610BD0A2A09D1002807DA2D230B70D0
:102FEC0001214042214400F005F8F1E70021F9E706
:102FFC00FFF7E6BFF0B58BB005460B466E461D4C91
:10300C0004F1200C374620686168083403C7644516
:10301C003E46F7D1217920683971911E22293860FA
:10302C004FF0000104D919700B4618460BB0F0BDD7
:10303C00581E8446B5FBF2F702FB175628366E4431
:10304C0016F8286C0C460CF8016F2E46B2423D4621
:10305C0001F10101EED900225A541919A51AAA42FC
:10306C00E3DA10F8015F0E780132067001F80159AD
:10307C00F4E700BF6231000803460244934200D1DA
:10308C00704703F8011BF9E770B500260C4D0D4C89
:10309C00641BA410A64209D100F01AF800260A4DB0
:1030AC000A4C641BA410A64205D170BD55F8043B14
:1030BC0098470136EEE755F8043B98470136F2E79E
:1030CC008831000888310008883100088C310008EC
:1030DC00F8B500BFF8BC08BC9E467047F8B500BFF9
:0830EC00F8BC08BC9E467047C9
:1030F4003132334134353642373839432A30234468
:10310400202020536D6172742D6641524D000000E1
:1031140000000000474F54204B45593A200000005E
:103124000000000000000000010203040607080973
:103134000000000001020304020304050607080955
:103144000A0B0C0D0E0F10100102000002030405FF
:10315400060708090A0B0C0D0E0F1010010230317E
:10316400323334353637383961626364656667688B
:10317400696A6B6C6D6E6F70717273747576777843
:04318400797A000054
:043188003101000809
:04318C000D01000829
:0C3190000024F40010000000010000000A
:0400000508000C598A
:00000001FF
