:020000040800F2
:1000000000500020D1270008C1250008C92500089C
:10001000D1250008D9250008E125000800000000CE
:10002000000000000000000000000000E9250008BA
:10003000F525000800000000012600080D26000834
:10004000192800081928000819280008192800088C
:10005000192800081928000819280008192800087C
:10006000192800081928000819280008192600086E
:10007000192800081928000819280008192800085C
:10008000192800081928000819280008192800084C
:10009000192800081928000819280008192800083C
:1000A000192800081928000819280008192800082C
:1000B000192800082D26000819280008192800080A
:1000C000192800081928000819280008192800080C
:1000D00019280008192800081928000819280008FC
:1000E0001928000819280008192800080000000035
:1000F0000000000000000000000000000000000000
:0C01000000000000000000005FF808F1A3
:1001100010B5054C237833B9044B13B10448AFF341
:1001200000800123237010BDDC01002000000000CE
:100130008C95000808B5034B1BB103490348AFF386
:10014000008008BD00000000E00100208C95000840
:10015000034613F8012B002AFBD1181A0138704707
:1001600081F0004102E000BF83F0004330B54FEA68
:1001700041044FEA430594EA050F08BF90EA020FD5
:100180001FBF54EA000C55EA020C7FEA645C7FEA68
:10019000655C00F0E2804FEA5454D4EB5555B8BF8B
:1001A0006D420CDD2C4480EA020281EA030382EAFC
:1001B000000083EA010180EA020281EA0303362D8E
:1001C00088BF30BD11F0004F4FEA01314FF4801C61
:1001D0004CEA113102D0404261EB410113F0004F73
:1001E0004FEA03334CEA133302D0524263EB43032A
:1001F00094EA050F00F0A780A4F10104D5F1200EC8
:100200000DDB02FA0EFC22FA05F2801841F1000122
:1002100003FA0EF2801843FA05F359410EE0A5F1F6
:1002200020050EF1200E012A03FA0EFC28BF4CF027
:10023000020C43FA05F3C01851EBE37101F00045DD
:1002400007D54FF0000EDCF1000C7EEB00006EEBEA
:100250000101B1F5801F1BD3B1F5001F0CD3490874
:100260005FEA30004FEA3C0C04F101044FEA4452CB
:1002700012F5800F80F09A80BCF1004F08BF5FEA52
:10028000500C50F1000041EB045141EA050130BD32
:100290005FEA4C0C404141EB0101013C28BFB1F544
:1002A000801FE9D291F0000F04BF01460020B1FA8F
:1002B00081F308BF2033A3F10B03B3F120020CDA62
:1002C0000C3208DD02F1140CC2F10C0201FA0CF040
:1002D00021FA02F10CE002F11402D8BFC2F1200CA5
:1002E00001FA02F120FA0CFCDCBF41EA0C0190405B
:1002F000E41AA2BF01EB0451294330BD6FEA0404A4
:100300001F3C1CDA0C340EDC04F11404C4F120028E
:1003100020FA04F001FA02F340EA030021FA04F3A0
:1003200045EA030130BDC4F10C04C4F1200220FAF7
:1003300002F001FA04F340EA0300294630BD21FA35
:1003400004F0294630BD94F0000F83F4801306BFFB
:1003500081F480110134013D4EE77FEA645C18BFEF
:100360007FEA655C29D094EA050F08BF90EA020F86
:1003700005D054EA000C04BF1946104630BD91EA7E
:10038000030F1EBF0021002030BD5FEA545C05D181
:100390004000494128BF41F0004130BD14F58004C0
:1003A0003CBF01F5801130BD01F0004545F0FE4134
:1003B00041F470014FF0000030BD7FEA645C1ABF69
:1003C000194610467FEA655C1CBF0B46024650EAA0
:1003D000013406BF52EA033591EA030F41F40021CC
:1003E00030BD00BF90F0000F04BF0021704730B552
:1003F0004FF4806404F132044FF000054FF0000127
:1004000050E700BF90F0000F04BF0021704730B5E7
:100410004FF4806404F1320410F0004548BF4042BC
:100420004FF000013EE700BF42004FEAE2014FEA11
:1004300031014FEA02701FBF12F07F4393F07F4FEC
:1004400081F06051704732F07F4208BF704793F0EF
:100450007F4F04BF41F40021704730B54FF4607402
:1004600001F0004521F000411CE700BF50EA010205
:1004700008BF704730B54FF000050AE050EA0102AE
:1004800008BF704730B511F0004502D5404261EB1E
:1004900041014FF4806404F132045FEA915C3FF45F
:1004A000D8AE4FF003025FEADC0C18BF03325FEAFC
:1004B000DC0C18BF033202EBDC02C2F1200300FAAD
:1004C00003FC20FA02F001FA03FE40EA0E0021FAD2
:1004D00002F11444BDE600BF70B54FF0FF0C4CF4C0
:1004E000E06C1CEA11541DBF1CEA135594EA0C0F72
:1004F00095EA0C0F00F0DEF82C4481EA030621EAAD
:100500004C5123EA4C5350EA013518BF52EA0335E7
:1005100041F4801143F4801338D0A0FB02CE4FF099
:100520000005E1FB02E506F00042E0FB03E54FF0C9
:100530000006E1FB03569CF0000F18BF4EF0010EC1
:10054000A4F1FF04B6F5007F64F5407404D25FEABD
:100550004E0E6D4146EB060642EAC62141EA555170
:100560004FEAC52040EA5E504FEACE2EB4F1FD0CB2
:1005700088BFBCF5E06F1ED8BEF1004F08BF5FEA30
:10058000500E50F1000041EB045170BD06F00046E2
:1005900046EA010140EA020081EA0301B4EB5C048F
:1005A000C2BFD4EB0C0541EA045170BD41F4801187
:1005B0004FF0000E013C00F3AB8014F1360FDEBFAC
:1005C000002001F0004170BDC4F10004203C35DA88
:1005D0000C341BDC04F11404C4F1200500FA05F30B
:1005E00020FA04F001FA05F240EA020001F00042AC
:1005F00021F0004110EBD37021FA04F642EB060122
:100600005EEA430E08BF20EAD37070BDC4F10C044B
:10061000C4F1200500FA04F320FA05F001FA04F20F
:1006200040EA020001F0004110EBD37041F10001FB
:100630005EEA430E08BF20EAD37070BDC4F1200506
:1006400000FA05F24EEA020E20FA04F301FA05F26E
:1006500043EA020321FA04F001F0004121FA04F216
:1006600020EA020000EBD3705EEA430E08BF20EAE6
:10067000D37070BD94F0000F0FD101F00046400020
:1006800041EB010111F4801F08BF013CF7D041EAA2
:10069000060195F0000F18BF704703F000465200A6
:1006A00043EB030313F4801F08BF013DF7D043EA77
:1006B0000603704794EA0C0F0CEA135518BF95EA2D
:1006C0000C0F0CD050EA410618BF52EA4306D1D1B4
:1006D00081EA030101F000414FF0000070BD50EAD3
:1006E000410606BF1046194652EA430619D094EA5D
:1006F0000C0F02D150EA013613D195EA0C0F05D147
:1007000052EA03361CBF104619460AD181EA03019A
:1007100001F0004141F0FE4141F470014FF0000052
:1007200070BD41F0FE4141F4780170BD70B54FF0ED
:10073000FF0C4CF4E06C1CEA11541DBF1CEA13556D
:1007400094EA0C0F95EA0C0F00F0A7F8A4EB05044F
:1007500081EA030E52EA03354FEA013100F0888046
:100760004FEA03334FF0805545EA131343EA12630F
:100770004FEA022245EA111545EA10654FEA0026C4
:100780000EF000419D4208BF964244F1FD0404F57D
:10079000407402D25B084FEA3202B61A65EB0305D9
:1007A0005B084FEA32024FF480104FF4002CB6EB96
:1007B000020E75EB030E22BFB61A754640EA0C0016
:1007C0005B084FEA3202B6EB020E75EB030E22BF56
:1007D000B61A754640EA5C005B084FEA3202B6EB97
:1007E000020E75EB030E22BFB61A754640EA9C0056
:1007F0005B084FEA3202B6EB020E75EB030E22BF26
:10080000B61A754640EADC0055EA060E18D04FEAE3
:10081000051545EA16754FEA06164FEAC30343EA83
:1008200052734FEAC2025FEA1C1CC0D111F4801F50
:100830000BD141EA00014FF000004FF0004CB6E749
:1008400011F4801F04BF01430020B4F1FD0C88BFE8
:10085000BCF5E06F3FF6AFAEB5EB030C04BFB6EBF3
:10086000020C5FEA500C50F1000041EB045170BDE6
:100870000EF0004E4EEA113114EB5C04C2BFD4EB13
:100880000C0541EA045170BD41F480114FF0000E97
:10089000013C90E645EA060E8DE60CEA135594EA13
:1008A0000C0F08BF95EA0C0F3FF43BAF94EA0C0F16
:1008B0000AD150EA01347FF434AF95EA0C0F7FF48B
:1008C00025AF104619462CE795EA0C0F06D152EADF
:1008D00003353FF4FDAE1046194622E750EA4106C3
:1008E00018BF52EA43067FF4C5AE50EA41047FF4D4
:1008F0000DAF52EA43057FF4EBAE12E74FF0FF3C39
:1009000006E000BF4FF0010C02E000BF4FF0010C09
:100910004DF804CD4FEA410C7FEA6C5C4FEA430C82
:1009200018BF7FEA6C5C1BD001B050EA410C0CBFD1
:1009300052EA430C91EA030F02BF90EA020F002033
:10094000704710F1000F91EA030F58BF994208BF9A
:1009500090422CBFD8176FEAE37040F00100704757
:100960004FEA410C7FEA6C5C02D150EA013C07D1AE
:100970004FEA430C7FEA6C5CD6D152EA033CD3D0F9
:100980005DF8040B704700BF8446104662468C46F3
:100990001946634600E000BF01B5FFF7B7FF002826
:1009A00048BF10F1000F01BD4DF808EDFFF7F4FF4F
:1009B0000CBF012000205DF808FB00BF4DF808EDDA
:1009C000FFF7EAFF34BF012000205DF808FB00BFFD
:1009D0004DF808EDFFF7E0FF94BF012000205DF81F
:1009E00008FB00BF4DF808EDFFF7CEFF94BF0120D4
:1009F00000205DF808FB00BF4DF808EDFFF7C4FFCD
:100A000034BF012000205DF808FB00BF4FEA410C15
:100A10007FEA6C5C02D150EA013C0AD14FEA430CF8
:100A20007FEA6C5C02D152EA033C02D14FF0000035
:100A300070474FF0010070474FEA410212F5001273
:100A400015D211D56FF47873B3EB625212D94FEA15
:100A5000C12343F0004343EA505311F0004F23FAFF
:100A600002F018BF404270474FF00000704750EA54
:100A7000013005D111F0004008BF6FF00040704711
:100A80004FF00000704700BF4A0011D212F500126B
:100A900011D20DD56FF47873B3EB62520ED44FEAD6
:100AA000C12343F0004343EA505323FA02F0704756
:100AB0004FF00000704750EA013002D14FF0FF3094
:100AC00070474FF0000070474FEA4102B2F1E04337
:100AD00024BFB3F5001CDCF1FE5C0DD901F0004C25
:100AE0004FEAC0024CEA5070B2F1004F40EB830075
:100AF00008BF20F00100704711F0804F21D113F1A1
:100B00003872BCBF01F00040704741F480114FEAD9
:100B10005252C2F11802C2F1200C10FA0CF320FA62
:100B200002F018BF40F001004FEAC1234FEAD3237F
:100B300003FA0CFC40EA0C0023FA02F34FEA4303E9
:100B4000CCE77FEA625307D150EA01331EBF4FF072
:100B5000FE4040F44000704701F0004040F0FE408D
:100B600040F40000704700BF80F0004002E000BF8A
:100B700081F0004142001FBF5FEA410392EA030F88
:100B80007FEA226C7FEA236C6AD04FEA1262D2EBD2
:100B90001363C1BFD218414048404140B8BF5B42D7
:100BA000192B88BF704710F0004F40F4000020F070
:100BB0007F4018BF404211F0004F41F4000121F086
:100BC0007F4118BF494292EA030F3FD0A2F10102D0
:100BD00041FA03FC10EB0C00C3F1200301FA03F10E
:100BE00000F0004302D5494260EB4000B0F5000F31
:100BF00013D3B0F1807F06D340084FEA310102F1F0
:100C00000102FE2A51D2B1F1004F40EBC25008BFA1
:100C100020F0010040EA03007047490040EB00006B
:100C2000013A28BFB0F5000FEDD2B0FA80FCACF16C
:100C3000080CB2EB0C0200FA0CF0AABF00EBC25099
:100C400052421843BCBFD0401843704792F0000F87
:100C500081F4000106BF80F400000132013BB5E7DA
:100C60004FEA41037FEA226C18BF7FEA236C21D050
:100C700092EA030F04D092F0000F08BF08467047B5
:100C800090EA010F1CBF0020704712F07F4F04D183
:100C9000400028BF40F00040704712F100723CBF96
:100CA00000F50000704700F0004343F0FE4040F4C0
:100CB000000070477FEA226216BF08467FEA23637E
:100CC0000146420206BF5FEA412390EA010F40F469
:100CD000800070474FF0000304E000BF10F00043B5
:100CE00048BF40425FEA000C08BF704743F096439C
:100CF00001464FF000001CE050EA010208BF7047B7
:100D00004FF000030AE000BF50EA010208BF70473D
:100D100011F0004302D5404261EB41015FEA010C52
:100D200002BF84460146002043F0B64308BFA3F14A
:100D30008053A3F50003BCFA8CF2083AA3EBC2532C
:100D400010DB01FA02FC634400FA02FCC2F120024B
:100D5000BCF1004F20FA02F243EB020008BF20F082
:100D60000100704702F1200201FA02FCC2F12002E8
:100D700050EA4C0021FA02F243EB020008BF20EADD
:100D8000DC7070474FF0FF0C1CEAD0521EBF1CEA0B
:100D9000D15392EA0C0F93EA0C0F6FD01A4480EAF9
:100DA000010C400218BF5FEA41211ED04FF00063E2
:100DB00043EA501043EA5111A0FB01310CF000400E
:100DC000B1F5000F3EBF490041EAD3715B0040EA34
:100DD000010062F17F02FD2A1DD8B3F1004F40EB04
:100DE000C25008BF20F00100704790F0000F0CF0D7
:100DF000004C08BF49024CEA502040EA51207F3A9B
:100E0000C2BFD2F1FF0340EAC250704740F4000075
:100E10004FF00003013A5DDC12F1190FDCBF00F066
:100E200000407047C2F10002410021FA02F1C2F114
:100E3000200200FA02FC5FEA310040F1000053EAB0
:100E40004C0308BF20EADC70704792F0000F00F0FE
:100E5000004C02BF400010F4000F013AF9D040EA04
:100E60000C0093F0000F01F0004C02BF490011F498
:100E7000000F013BF9D041EA0C018FE70CEAD15396
:100E800092EA0C0F18BF93EA0C0F0AD030F0004C16
:100E900018BF31F0004CD8D180EA010000F00040CA
:100EA000704790F0000F17BF90F0004F084691F088
:100EB000000F91F0004F14D092EA0C0F01D14202C2
:100EC0000FD193EA0C0F03D14B0218BF084608D18B
:100ED00080EA010000F0004040F0FE4040F40000D5
:100EE000704740F0FE4040F4400070474FF0FF0C68
:100EF0001CEAD0521EBF1CEAD15392EA0C0F93EAAF
:100F00000C0F69D0A2EB030280EA010C49024FEA00
:100F1000402037D04FF0805343EA111143EA1013B9
:100F20000CF000408B4238BF5B0042F17D024FF471
:100F3000000C8B4224BF5B1A40EA0C00B3EB510F4C
:100F400024BFA3EB510340EA5C00B3EB910F24BF35
:100F5000A3EB910340EA9C00B3EBD10F24BFA3EBBA
:100F6000D10340EADC001B0118BF5FEA1C1CE0D182
:100F7000FD2A3FF650AF8B4240EBC25008BF20F035
:100F8000010070470CF0004C4CEA50207F32C2BF89
:100F9000D2F1FF0340EAC250704740F400004FF026
:100FA0000003013A37E792F0000F00F0004C02BF57
:100FB000400010F4000F013AF9D040EA0C0093F021
:100FC000000F01F0004C02BF490011F4000F013B7B
:100FD000F9D041EA0C0195E70CEAD15392EA0C0FE3
:100FE00008D142027FF47DAF93EA0C0F7FF470AF1B
:100FF000084676E793EA0C0F04D14B023FF44CAF5E
:1010000008466EE730F0004C18BF31F0004CCAD1F2
:1010100030F000427FF45CAF31F000437FF43CAF2E
:101020005FE700BF4FF0FF3C06E000BF4FF0010C50
:1010300002E000BF4FF0010C4DF804CD4FEA400232
:101040004FEA41037FEA226C18BF7FEA236C11D07C
:1010500001B052EA530C18BF90EA010F58BFB2EB2F
:10106000030088BFC81738BF6FEAE17018BF40F0AF
:10107000010070477FEA226C02D15FEA402C05D163
:101080007FEA236CE4D15FEA412CE1D05DF8040BE8
:10109000704700BF844608466146FFE70FB5FFF77B
:1010A000C9FF002848BF10F1000F0FBD4DF808ED33
:1010B000FFF7F4FF0CBF012000205DF808FB00BF24
:1010C0004DF808EDFFF7EAFF34BF012000205DF87E
:1010D00008FB00BF4DF808EDFFF7E0FF94BF0120CB
:1010E00000205DF808FB00BF4DF808EDFFF7D2FFC8
:1010F00094BF012000205DF808FB00BF4DF808ED0B
:10110000FFF7C8FF34BF012000205DF808FB00BFD7
:1011100038B50022002304460D46FFF74FFC28B9DE
:1011200020462946BDE8384000F00AB8204605F1BF
:10113000004100F005F8404261EB410138BD00BFBD
:10114000D0B500220B4B06460F46FFF7C5F9FFF757
:101150009BFC0446FFF746F90022074BFFF7BCF95A
:1011600002460B4630463946FEF7FEFFFFF78CFC81
:101170002146D0BD0000F03D0000F041000000001D
:1011800080B584B000AF0023FB60102000F03EF873
:10119000F860F868FFF726F915A3D3E90023FFF7F5
:1011A000C5FA02460B461046194613A3D3E900239D
:1011B000FFF792F902460B4610461946FFF784FCEA
:1011C0000346BB600E49B868FFF7D2FC03460D49E1
:1011D0001846FFF78BFE03460B491846FFF7CAFC7B
:1011E00003467B607B6818461037BD4680BD00BF54
:1011F0000000000000FEAF406666666666660A4054
:101200003D0AB73F9A9989400000C84180B586B031
:1012100000AF786007F1080300221A605A609A60F4
:1012200000237B617B68BB600123FB6005233B617E
:1012300007F108031946104801F03AFE0346002B57
:1012400002D04FF0FF3312E00B4801F045FC4FF0A5
:10125000FF31094801F01AFD0346002B03D106486F
:1012600001F01AFE7861044801F0E4FC7B6918463D
:101270001837BD4680BD00BFF801002080B582B0A0
:1012800000AF00237B600120FFF7C0FF7860786823
:10129000FFF720FD034608491846FFF727FE0346DF
:1012A0003B6039684FF07E50FFF762FC03461846FA
:1012B0000837BD4680BD00BF00F07F45000000003C
:1012C000B0B586B000AFFFF7D9FF7861464B1B6819
:1012D0001B6C3B617869FFF7A7F83FA3D3E90023B4
:1012E000FFF76CFB0346002B0BD03F4BDB68023B48
:1012F0003A699A425BD23C4B1B683A6902321A64E3
:1013000055E04FF07D517869FFF7F8FE0346002B5A
:101310000DD03B69022B05D9334B1B683A69023A61
:101320001A6444E0304B1B6800221A643FE03B69BA
:10133000022B38BF0223023BFB602B4B1B68FA6871
:101340001A64322001F0CCFAFFF798FFB860B86851
:10135000FFF76AF804460D467869FFF765F820A3A1
:10136000D3E90023FEF700FF02460B46204629463C
:10137000FFF738FB0346002B15D0B868FFF754F889
:1013800004460D467869FFF74FF815A3D3E900230B
:10139000FEF7ECFE02460B4620462946FFF718FBF7
:1013A0000346002B03D1104B1B683A691A640E4B9D
:1013B0001B681B6C7B600C4BDB687A689A4204D913
:1013C000094B1B68084AD2681A6400BF1837BD462B
:1013D000B0BD00BFAFF30080999999999999E13F09
:1013E0009A9999999999A93FB402002080B586B03D
:1013F00000AF03460A46FB711346BB710023FB7521
:101400000123BB7501237B75FB79032B22D801A235
:1014100052F823F025140008311400083D14000888
:10142000491400081C4B3B614FF48053FB8113E0CF
:10143000194B3B614FF40053FB810DE0164B3B61B0
:101440004FF48043FB8107E0134B3B614FF40043B3
:10145000FB8101E001231AE015E0012001F040FAD0
:10146000FB891946386902F0A9FA03467B757A7D33
:10147000BB7D9A4203D1FB7D0133FB7501E0002364
:10148000FB757B7DBB75FB7D062BE6D97B7D184606
:101490001837BD4680BD00BF000C014080B500AFCD
:1014A000012201210A4802F0A0FA01220221084883
:1014B00002F09BFA01224FF48061054802F095FA90
:1014C00001224FF40061024802F08FFA00BF80BD94
:1014D000000C014090B589B000AF354B3C1D0FCBDF
:1014E00084E80F000023BB7759E0BB7F032B21D892
:1014F00001A252F823F000BF0915000813150008D7
:101500001D150008291500082A4BBB610123FB8229
:1015100015E0284BBB610223FB8210E0254BBB6129
:101520004FF48063FB820AE0224BBB614FF40063FF
:10153000FB8204E00023BB610023FB8200BFFB8A27
:1015400000221946B86902F050FA0023FB771AE02E
:10155000BA7FFB7F11461846FFF748FF0346002B72
:101560000ED1FB8A01221946B86902F03EFAFA7FD1
:10157000BB7F920020323A4413441C3B1B7812E09C
:10158000FB7F0133FB77FB7F032BE1D9FB8A012231
:101590001946B86902F029FABB7F0133BB77BB7FDC
:1015A000032BA2D9002318462437BD4690BD00BFA7
:1015B000A8950008000C014080B584B000AF7860A9
:1015C0000023FB8103220021786805F096FA3BE0B6
:1015D000FFF780FF03467B737B7B002B34D07B7B44
:1015E0002F2B17D97B7B392B14D8B7F90E2093B248
:1015F00001339BB2FB817B6813447A7B1A7000F045
:10160000D0F92F49012000F0B2F97968022000F0EA
:10161000AEF916E07B7B232B1BD07B7B2A2B10D1D2
:1016200003220021786805F068FA0023FB8100F0AE
:10163000B8F92349012000F09AF97968022000F0F6
:1016400096F9642001F04CF9B7F90E30012BBFDD9B
:1016500000E000BFB7F90E307A68134400221A7018
:10166000786803F0C1FE02460B4610461946FFF7A4
:101670002BFA0346BB601349B868FFF735FD0346F4
:10168000002B09D04FF08441B868FFF723FD0346D3
:10169000002B01D0BB680EE000F083F90A4901205D
:1016A00000F065F90949022000F061F94FF4FA6091
:1016B00001F016F9064B18461037BD4680BD00BF35
:1016C000B895000800009841C8950008D895000812
:1016D0000000F04180B582B000AF0346FB710022EC
:1016E0000821414802F081F9012210213E4802F010
:1016F0007CF9FB791B11DBB203F00103DBB21A4664
:101700004FF40071394802F070F9FB795B11DBB2DC
:1017100003F00103DBB21A464FF48061334802F054
:1017200064F9FB799B11DBB203F00103DBB21A46CB
:101730004FF400612D4802F058F9FB79DB09DBB268
:101740001A464FF48051294802F04FF9012001F068
:10175000C7F800221021244802F047F9022001F0C6
:10176000BFF801221021204802F03FF9FB7903F075
:101770000103DBB21A464FF400711C4802F035F940
:10178000FB795B10DBB203F00103DBB21A464FF4C6
:101790008061164802F029F9FB799B10DBB203F057
:1017A0000103DBB21A464FF40061104802F01DF944
:1017B000FB79DB10DBB203F00103DBB21A464FF416
:1017C00080510A4802F011F9012001F089F8002245
:1017D0001021054802F009F9022001F081F800BF4C
:1017E0000837BD4680BD00BF000C01400008014025
:1017F00080B582B000AF0346FB7101220821414849
:1018000002F0F3F8012210213E4802F0EEF8FB79D5
:101810001B11DBB203F00103DBB21A464FF4007177
:10182000394802F0E2F8FB795B11DBB203F0010307
:10183000DBB21A464FF48061334802F0D6F8FB79E8
:101840009B11DBB203F00103DBB21A464FF40061D7
:101850002D4802F0CAF8FB79DB09DBB21A464FF4D7
:101860008051294802F0C1F8012001F039F8002226
:101870001021244802F0B9F8022001F031F80122C9
:101880001021204802F0B1F8FB7903F00103DBB22C
:101890001A464FF400711C4802F0A7F8FB795B1060
:1018A000DBB203F00103DBB21A464FF48061164845
:1018B00002F09BF8FB799B10DBB203F00103DBB273
:1018C0001A464FF40061104802F08FF8FB79DB10E4
:1018D000DBB203F00103DBB21A464FF480510A4831
:1018E00002F083F8012000F0FBFF002210210548E0
:1018F00002F07BF8022000F0F3FF00BF0837BD467E
:1019000080BD00BF000C01400008014080B500AF61
:10191000322000F0E5FF3320FFF7DCFE3220FFF736
:10192000D9FE2820FFF7D6FE0C20FFF7D3FE0620B5
:10193000FFF7D0FE0120FFF7CDFE022000F0D0FF20
:1019400000BF80BD80B582B000AF786006E07B68E4
:101950005A1C7A601B781846FFF74AFF7B681B7891
:10196000002BF4D100BF00BF0837BD4680BD80B555
:1019700082B000AF03463960FB71FB79012B03D1C4
:101980008020FFF7A7FE05E0FB79022B02D1C020E3
:10199000FFF7A0FE3868FFF7D5FF00BF0837BD4648
:1019A00080BD80B500AF0120FFF794FE022000F05B
:1019B00097FF00BF80BD000080B584B000AF7860A5
:1019C0000B46FB700023FB81FFF7EBFFB7F90E30EE
:1019D0009B007A6813441B6819460120FFF7C7FF74
:1019E0002A490220FFF7C3FFFFF774FD03467B730C
:1019F0007B7B002BF8D07B7B422B06D0422B3FDC3D
:101A0000232B3AD0412B1DD03AE0B7F90E305A1EA5
:101A1000FB781344FA7893FBF2F101FB02F29B1A74
:101A2000FB81FFF7BEFFB7F90E309B007A681344C5
:101A30001B6819460120FFF79AFF14490220FFF79F
:101A400096FF1EE0B7F90E300133FA7893FBF2F1FE
:101A500001FB02F29B1AFB81FFF7A3FFB7F90E30DF
:101A60009B007A6813441B6819460120FFF77FFF2B
:101A700006490220FFF77BFF03E0FB89DBB201E0B0
:101A800000BFB1E718461037BD4680BDE895000895
:101A900080B582B000AF78607B681B68284A9342AB
:101AA0004AD1284B1B680133264A13604FF400517A
:101AB000254801F0B2FF254B1B78DBB20133DAB2C7
:101AC000224B1A70214B1B78DAB2214B1B78DBB208
:101AD0009A420CD31F4B1B78012B08D100220821FE
:101AE0001D4801F082FF1B4B00221A7024E0174BA7
:101AF0001B78DAB2164B1B78DBB29A420FD2154B29
:101B00001B78002B0BD101220821134801F06DFF37
:101B10000E4B00221A700F4B01221A700CE00B4B77
:101B20001B78DBB23B2B07D90A4B1B78002B03D168
:101B3000064B00221A70FFE700BF0837BD4680BD84
:101B4000000400400403002000100140FC020020BB
:101B500000000020FD0200200008014080B586B092
:101B600000AF00F05BFE00F043F800F0C5F900F0B4
:101B7000A5F900F099F800F0D5F800F021F918481F
:101B800002F01CFD0C21174802F0C2FDFFF7BEFE5B
:101B9000FFF784FC4FF40051134801F03EFF00F0C2
:101BA000CFFBFFF797FC0346FB75FB7D002B01D0B5
:101BB00000F0E6FAFFF784FBFFF760FB3861386955
:101BC000FEF732FC02460B463846084904F032FF65
:101BD000FFF7E7FE3B4619460120FFF7C8FEE0E7A6
:101BE0006C020020B402002000100140FC950008A7
:101BF00080B594B000AF07F12803282200211846D1
:101C000004F07BFF07F1140300221A605A609A6007
:101C1000DA601A613B1D00221A605A609A60DA602D
:101C20000123BB624FF48033FB6200233B6301233B
:101C3000BB6302237B644FF48033BB644FF4E01337
:101C4000FB6407F12803184601F000FF0346002B50
:101C500001D000F0A7FB0F237B610223BB610023AF
:101C6000FB614FF480633B6200237B6207F1140346
:101C70000221184602F06CF90346002B01D000F057
:101C800091FB02237B604FF40043FB603B1D184631
:101C900002F0D8FA0346002B01D000F083FB00BF0E
:101CA0005037BD4680BD000080B584B000AF3B1DFD
:101CB00000221A605A609A60184B194A1A60174B32
:101CC00000229A60154B01221A73144B00221A75D8
:101CD000124B4FF46022DA61104B00225A600F4B16
:101CE00001221A610D4800F01FFE0346002B01D0AF
:101CF00000F058FB10237B600123BB600523FB60D1
:101D00003B1D1946054801F0D3F80346002B01D0CE
:101D100000F048FB00BF1037BD4680BDF801002031
:101D20000024014080B586B000AF07F1080300220F
:101D30001A605A609A60DA603B4600221A605A6064
:101D40001D4B1E4A1A601C4B41F61F425A601A4B2B
:101D500010229A60184B42F20F72DA60164B002282
:101D60001A61154B80229A61134802F0D7FB034693
:101D7000002B01D000F016FB4FF48053BB6007F13D
:101D8000080319460C4802F02FFF0346002B01D030
:101D900000F008FB00233B6000237B603B461946B4
:101DA000054803F0B1FA0346002B01D000F0FAFA1F
:101DB00000BF1837BD4680BD6C0200200004004003
:101DC00080B58EB000AF07F1280300221A605A6078
:101DD0009A60DA6007F1200300221A605A603B1D06
:101DE00000221A605A609A60DA601A615A619A6138
:101DF000304B314A1A602F4B41F61F425A602D4B2F
:101E000000229A602B4B7722DA602A4B00221A615B
:101E1000284B00229A61274802F080FB0346002BE2
:101E200001D000F0BFFA4FF48053BB6207F12803E2
:101E30001946204802F0D8FE0346002B01D000F0DE
:101E4000B1FA1C4802F00CFC0346002B01D000F054
:101E5000A9FA00233B6200237B6207F120031946A5
:101E6000144803F051FA0346002B01D000F09AFA0F
:101E700060237B603C23BB600023FB6000237B610D
:101E80003B1D0C2219460B4802F0ECFD0346002BCB
:101E900001D000F087FA074B1B68DA69054B1B6815
:101EA00022F40062DA61034800F056FB00BF3837C5
:101EB000BD4680BDB40200200008004080B582B05D
:101EC00000AF0C4B5B690B4A43F001035361094BB4
:101ED0005B6903F001037B607B68002200210B201B
:101EE00001F051FA0B2001F06AFA00BF0837BD4635
:101EF00080BD00BF0010024080B588B000AF07F180
:101F0000100300221A605A609A60DA603F4B9B69A6
:101F10003E4A43F0100393613C4B9B6903F010036E
:101F2000FB60FB68394B9B69384A43F0200393619F
:101F3000364B9B6903F02003BB60BB68334B9B6946
:101F4000324A43F004039361304B9B6903F004036E
:101F50007B607B682D4B9B692C4A43F0080393619F
:101F60002A4B9B6903F008033B603B6800224FF457
:101F70000051274801F039FD002241F6086125484B
:101F800001F033FD002240F61B41234801F02DFDF6
:101F90004FF400533B6101237B610023BB610323AA
:101FA000FB6107F110031946194801F083FB41F664
:101FB00008633B6101237B610023BB610323FB6159
:101FC00007F110031946134801F074FB40F61B4358
:101FD0003B6101237B610023BB610323FB6107F1AC
:101FE000100319460C4801F065FB4FF470433B6148
:101FF00000237B610123BB6107F1100319460648EA
:1020000001F058FB00BF2037BD4680BD00100240E4
:102010000010014000080140000C014080B400AFF6
:10202000534B1B78022B69D0022B00F39D80002BB1
:1020300002D0012B31D097E04E4B1B78012B07D1FA
:102040004D4B1B78012B03D14C4B11221A7023E00E
:10205000484B1B78012B07D1474B1B78002B03D132
:10206000464B0F221A7017E0424B1B78002B07D10A
:10207000414B1B78012B03D1404B0A221A700BE015
:102080003C4B1B78002B6AD13B4B1B78002B66D155
:102090003A4B07221A7062E061E0364B1B78012B45
:1020A00007D1354B1B78012B03D1344B0D221A700D
:1020B00023E0304B1B78012B07D12F4B1B78002BD3
:1020C00003D12E4B0A221A7017E02A4B1B78002BE3
:1020D00007D1294B1B78012B03D1284B06221A70FC
:1020E0000BE0244B1B78002B3BD1234B1B78002BA0
:1020F00037D1224B03221A7033E032E01D4B1B789C
:10210000012B07D11C4B1B78012B03D11B4B132236
:102110001A7023E0174B1B78012B07D1164B1B7845
:10212000002B03D1154B11221A7017E0114B1B78AD
:10213000002B07D1104B1B78012B03D10F4B0D2225
:102140001A700BE00B4B1B78002B0CD10A4B1B7841
:10215000002B08D1094B0A221A7004E003E000BFEB
:1021600002E000BF00E000BF00BFBD4680BC70477A
:10217000FF02002001000020FE02002000000020DD
:1021800080B584B000AF174A3B4607CA83E8070012
:102190000323FB73FA7B3B4611461846FFF70CFC02
:1021A0000346BB73BB7B022B14D0022B15DC002B28
:1021B00002D0012B07D010E000F016F800F0C0F8B4
:1021C000FFF72CFF09E000F043F800F0B9F8FFF743
:1021D00025FF02E000F0B4F800BF00BF1037BD4695
:1021E00080BD00BF3096000880B582B000AFFFF719
:1021F000D8FB12490120FFF7BAFB3B1D1846FFF739
:10220000DBF903460E4A1360FFF7CBFB0D490120B3
:10221000FFF7ADFB0C490220FFF7A9FB3B1D184659
:10222000FFF790FB0948FFF78DFB40F6B83000F050
:1022300057FB00BF0837BD4680BD00BF3C96000875
:10224000040000204C96000860960008689600087C
:1022500080B588B000AF164A07F1100307CA83E8BB
:1022600007000323FB77FA7F07F110031146184696
:10227000FFF7A2FB03461A460E4B1A700D4B1B7854
:102280003A461146184600F019F8FFF78AFB3B461C
:1022900019460120FFF76BFB07490220FFF767FB98
:1022A00040F6B83000F01CFB00BF2037BD4680BDB3
:1022B000A4960008FF0200206C96000890B482B03B
:1022C00000AF03463960FB71FB79022B1AD0022B59
:1022D00021DC002B02D0012B09D01CE03B68144A02
:1022E0001C46134607CB20606160A2601BE03B6880
:1022F000104A1C46134607CB20606160A2601B7821
:10230000237310E03B680C4A1C46134607CB206041
:102310006160A26007E03B6808491A460B4603CBA0
:102320001060516000BF00BF0837BD4690BC7047C9
:102330007C9600088896000898960008B0960008D9
:1023400080B584B000AFFEF71BFF0346104A136050
:102350000F4B1B681846FEF767F802460B463846D7
:102360000C4904F067FBFFF71CFB0B490120FFF74A
:10237000FEFA0A490220FFF7FAFA3B461846FFF731
:10238000E1FA0748FFF7DEFA00BF1037BD4680BD0F
:1023900000030020FC950008B8960008C8960008C5
:1023A0006896000880B400AF72B600BF00BFFDE7BA
:1023B00080B485B000AF154B9B69144A43F001030C
:1023C0009361124B9B6903F00103BB60BB680F4B29
:1023D000DB690E4A43F08053D3610C4BDB6903F099
:1023E00080537B607B680A4B5B68FB60FB6823F073
:1023F000E063FB60FB6843F08063FB60044AFB68BA
:10240000536000BF1437BD4680BC704700100240C7
:102410000000014080B588B000AF786007F110037C
:1024200000221A605A609A60DA607B681B68284A4A
:10243000934249D1274B9B69264A43F40073936129
:10244000244B9B6903F40073FB60FB68214B9B6981
:10245000204A43F0040393611E4B9B6903F004037D
:10246000BB60BB6803233B6103237B6107F110035F
:102470001946194801F01EF9184B194A1A60174BF2
:1024800000225A60154B00229A60144B8022DA60B9
:10249000124B4FF480721A61104B4FF480625A61F4
:1024A0000E4B00229A610D4B0022DA610B4800F0BE
:1024B000A1FF0346002B01D0FFF774FF7B68074A9A
:1024C0001A62064A7B68536200BF2037BD4680BD52
:1024D00000240140001002400008014028020020B2
:1024E0000800024080B584B000AF78607B681B684C
:1024F000164A934214D1164BDB69154A43F0020386
:10250000D361134BDB6903F00203FB60FB6800221D
:1025100000211D2000F037FF1D2000F050FF10E0CB
:102520007B681B680B4A93420BD1094BDB69084A55
:1025300043F00403D361064BDB6903F00403BB6083
:10254000BB6800BF1037BD4680BD00BF000400401F
:10255000001002400008004080B588B000AF7860ED
:1025600007F1100300221A605A609A60DA607B68F3
:102570001B68104A934218D10F4B9B690E4A43F0D7
:10258000080393610C4B9B6903F00803FB60FB6835
:102590004FF400733B6102237B610223FB6107F16F
:1025A00010031946054801F085F800BF2037BD46E5
:1025B00080BD00BF0008004000100240000C014038
:1025C00080B400AF00BFFDE780B400AF00BFFDE7FF
:1025D00080B400AF00BFFDE780B400AF00BFFDE7EF
:1025E00080B400AF00BFFDE780B400AF00BFBD46C0
:1025F00080BC704780B400AF00BFBD4680BC704750
:1026000080B400AF00BFBD4680BC704780B500AF4E
:1026100000F04AF900BF80BD80B500AF024800F06D
:1026200043FF00BF80BD00BF2802002080B500AF7F
:10263000024802F00FF900BF80BD00BF6C0200200D
:1026400080B400AF01231846BD4680BC704780B5FA
:1026500082B000AF7860396004F0B4FA0346162205
:102660001A604FF0FF3318460837BD4680BD80B56D
:1026700082B000AF78604FF0FF317868FFF7E7FF76
:1026800000BFFDE780B586B000AFF860B9607A6042
:1026900000237B610AE0AFF300800146BB685A1C4F
:1026A000BA60CAB21A707B6901337B617A697B6850
:1026B0009A42F0DB7B6818461837BD4680BD80B56E
:1026C00086B000AFF860B9607A6000237B6109E0F2
:1026D000BB685A1CBA601B781846AFF300807B6950
:1026E00001337B617A697B689A42F1DB7B6818462B
:1026F0001837BD4680BD80B483B000AF78604FF01E
:10270000FF3318460C37BD4680BC704780B483B099
:1027100000AF786039603B684FF400525A60002384
:1027200018460C37BD4680BC704780B483B000AFFC
:102730007860012318460C37BD4680BC704780B4D2
:1027400085B000AFF860B9607A600023184614378E
:10275000BD4680BC7047000080B586B000AF786091
:10276000144A154BD31A7B617B693B61134B1B6881
:10277000002B02D1114B124A1A60104B1A687B6869
:1027800013443A699A4207D204F01CFA03460C2219
:102790001A604FF0FF3309E0084B1B68FB60074BE2
:1027A0001A687B681344054A1360FB68184618379B
:1027B000BD4680BD0050002000040000080300203A
:1027C0006004002080B400AF00BFBD4680BC7047ED
:1027D000FFF7F8FF0B480C490C4A002302E0D458DD
:1027E000C4500433C4188C42F9D3094A094C00235D
:1027F00001E013600432A242FBD304F0E9F9FFF7D1
:10280000ADF9704700000020DC010020409B00086B
:10281000DC0100205C040020FEE7000080B500AF72
:10282000084B1B68074A43F010031360032000F0B5
:102830009FFD0F2000F008F8FFF7BAFD00231846AF
:1028400080BD00BF0020024080B582B000AF78603C
:10285000124B1A68124B1B7819464FF47A73B3FB6C
:10286000F1F3B2FBF3F3184600F0B7FD0346002B7B
:1028700001D001230EE07B680F2B0AD80022796873
:102880004FF0FF3000F07FFD064A7B6813600023A5
:1028900000E0012318460837BD4680BD080000202F
:1028A000100000200C00002080B400AF054B1B7806
:1028B0001A46054B1B681344034A136000BFBD460C
:1028C00080BC7047100000200C03002080B400AFD3
:1028D000024B1B681846BD4680BC70470C030020A5
:1028E00080B584B000AF7860FFF7F0FFB8607B6818
:1028F000FB60FB68B3F1FF3F05D00A4B1B781A461B
:10290000FB681344FB6000BFFFF7E0FF0246BB68B3
:10291000D31AFA689A42F7D800BF00BF1037BD46F5
:1029200080BD00BF1000002080B586B000AF786089
:102930000023FB7500233B610023BB600023FB6089
:102940007B68002B01D10123BEE07B689B68002BD4
:102950007B689B6A002B09D17B680022DA627B6866
:10296000002283F824207868FFF754FD786800F08F
:10297000F1FB0346FB757B689B6A03F01003002B99
:1029800040F09980FB7D002B40F095807B689B6A2E
:1029900023F4885323F0020343F002027B689A6217
:1029A0007B685A687B68DB691A437B681B7B5B002A
:1029B0001343BA681343BB607B689B68B3F5807FA1
:1029C00003D07B689B68012B02D14FF4807300E039
:1029D00000233A6913433B617B681B7D012B19D1AE
:1029E0007B681B7B002B09D17B689B69013B5A03E9
:1029F0003B69134343F400633B610BE07B689B6AD4
:102A000043F020027B689A627B68DB6A43F0010234
:102A10007B68DA627B681B685B6823F469417B68CA
:102A20001B683A690A435A607B681B689A68284B9E
:102A300013407A681268B9680B4393607B689B689F
:102A4000B3F5807F03D07B689B68012B04D17B6842
:102A50001B69013B1B05FB607B681B68DB6A23F479
:102A600070017B681B68FA680A43DA627B681B683E
:102A70009A68184B1340BA689A420BD17B680022BF
:102A8000DA627B689B6A23F0030343F001027B68F0
:102A90009A6218E07B689B6A23F0120343F01002ED
:102AA0007B689A627B68DB6A43F001027B68DA62CA
:102AB0000123FB7507E07B689B6A43F010027B688B
:102AC0009A620123FB75FB7D18461837BD4680BD11
:102AD000FDF7E1FFFE0E1FFF80B584B000AF786008
:102AE0000023FB737B6893F82430012B01D1022370
:102AF00098E07B68012283F82420786800F0D0FAFF
:102B00000346FB73FB7B002B40F087807B689B6A4E
:102B100023F4407323F0010343F480727B689A62CC
:102B20007B681B68414A934205D1414B5B6803F4C3
:102B30007023002B15D17B689B6A23F480127B687D
:102B40009A627B681B685B6803F48063002B26D065
:102B50007B689B6A23F4405343F480527B689A62FB
:102B60001DE07B689B6A43F480127B689A627B68F5
:102B70001B682F4A934204D07B681B682B4A934200
:102B80000DD12B4B5B6803F48063002B07D07B686F
:102B90009B6A23F4405343F480527B689A627B68BB
:102BA0009B6A03F48053002B06D07B68DB6A23F01A
:102BB00006027B68DA6202E07B680022DA627B68E8
:102BC000002283F824207B681B686FF002021A60E1
:102BD0007B681B689B6803F46023B3F5602F13D1F7
:102BE0007B681B68114A934205D1114B5B6803F463
:102BF0007023002B08D17B681B689A687B681B6870
:102C000042F4A0029A600CE07B681B689A687B68BB
:102C10001B6842F480129A6003E07B68002283F80C
:102C20002420FB7B18461037BD4680BD002801409C
:102C30000024014080B584B000AF78600023FB73AE
:102C40007B6893F82430012B01D102231AE07B68C2
:102C5000012283F82420786800F07CFA0346FB7395
:102C6000FB7B002B09D17B689B6A23F4885323F0FC
:102C7000010343F001027B689A627B68002283F8BB
:102C80002420FB7B18461037BD4680BD90B587B029
:102C900000AF7860396000237B610023FB60002374
:102CA0003B61FFF713FE78617B681B689B6803F448
:102CB0008073002B0BD07B689B6A43F020027B68FB
:102CC0009A627B68002283F824200123D3E07B688A
:102CD0001B685B6803F48073002B31D17B681B6831
:102CE000DB6A03F47003002B2AD121E03B68B3F1C7
:102CF000FF3F1DD03B68002B07D0FFF7E7FD0246E2
:102D00007B69D31A3A689A4212D27B681B681B68A7
:102D100003F00203002B0BD17B689B6A43F0040293
:102D20007B689A627B68002283F824200323A2E058
:102D30007B681B681B6803F00203002BD6D070E091
:102D40004F4B1C68022001F033FB0346B4FBF3F247
:102D50007B681B6819694B4B0B40002B18D17B68B3
:102D60001B68D968484B0B40002B11D17B681B684E
:102D70001969464B0B40002B08D17B681B68D9684A
:102D8000434B0B40002B01D1142320E029231EE0EC
:102D90007B681B6819693D4B0B40002B06D17B6893
:102DA0001B68D9683A4B0B40002B0DD07B681B6821
:102DB0001969384B0B40002B08D17B681B68D96818
:102DC000344B0B40002B01D1542300E0FC2302FBC9
:102DD00003F33B6121E03B68B3F1FF3F1AD03B684E
:102DE000002B07D0FFF772FD02467B69D31A3A68C1
:102DF0009A420FD2FB683A699A420BD97B689B6A68
:102E000043F004027B689A627B68002283F82420E6
:102E1000032330E0FB680133FB60FB683A699A42A8
:102E2000D9D87B681B686FF012021A607B689B6AB6
:102E300043F400727B689A627B681B689B6803F4AA
:102E40006023B3F5602F15D17B681B7B002B11D15C
:102E50007B689B6A23F480727B689A627B689B6ABA
:102E600003F48053002B05D17B689B6A43F0010279
:102E70007B689A62002318461C37BD4690BD00BF90
:102E800008000020244992242449920092244912E7
:102E9000922449004992240080B483B000AF786046
:102EA0007B681B68DB6C18460C37BD4680BC7047DE
:102EB00080B485B000AF786039600023FB730023D5
:102EC000BB607B6893F82430012B01D10223DCE046
:102ED0007B68012283F824203B685B68062B1CD8A2
:102EE0007B681B68596B3B685A6813469B00134408
:102EF000053B1F2202FA03F3DB4319403B681868C5
:102F00003B685A6813469B001344053B00FA03F2E2
:102F10007B681B680A435A633CE03B685B680C2B88
:102F20001CD87B681B68196B3B685A6813469B006A
:102F30001344233B1F2202FA03F3DB4319403B688F
:102F400018683B685A6813469B001344233B00FAF9
:102F500003F27B681B680A431A631BE07B681B68EB
:102F6000D96A3B685A6813469B001344413B1F22B1
:102F700002FA03F3DB4319403B6818683B685A6860
:102F800013469B001344413B00FA03F27B681B6825
:102F90000A43DA623B681B68092B1CD97B681B68F3
:102FA000D9683B681A6813465B0013441E3B07222E
:102FB00002FA03F3DB4319403B6898683B681A68E0
:102FC00013465B0013441E3B00FA03F27B681B6848
:102FD0000A43DA6019E07B681B6819693B681A6864
:102FE00013465B001344072202FA03F3DB43194044
:102FF0003B6898683B681A6813465B00134400FA04
:1030000003F27B681B680A431A613B681B68102B3C
:1030100003D03B681B68112B32D17B681B681D4AAB
:10302000934225D17B681B689B6803F40003002B47
:1030300026D17B681B689A687B681B6842F4000293
:103040009A603B681B68102B1AD1134B1B68134AFC
:10305000A2FB03239A0C13469B0013445B00BB6046
:1030600002E0BB68013BBB60BB68002BF9D107E005
:103070007B689B6A43F020027B689A620123FB73A2
:103080007B68002283F82420FB7B18461437BD465A
:1030900080BC7047002401400800002083DE1B43F1
:1030A00080B584B000AF78600023FB600023BB6074
:1030B0007B681B689B6803F00103012B40D07B6891
:1030C0001B689A687B681B6842F001029A601F4B7C
:1030D0001B681F4AA2FB03239B0CBB6002E0BB687A
:1030E000013BBB60BB68002BF9D1FFF7EFFBF86039
:1030F0001FE0FFF7EBFB0246FB68D31A022B18D93F
:103100007B681B689B6803F00103012B11D07B686F
:103110009B6A43F010027B689A627B68DB6A43F02B
:1031200001027B68DA627B68002283F82420012395
:1031300007E07B681B689B6803F00103012BD8D173
:10314000002318461037BD4680BD00BF0800002090
:1031500083DE1B4380B584B000AF78600023FB6042
:103160007B681B689B6803F00103012B2ED17B68F1
:103170001B689A687B681B6822F001029A60FFF75F
:10318000A5FBF8601BE0FFF7A1FB0246FB68D31A22
:10319000022B14D97B681B689B6803F00103012B89
:1031A0000DD17B689B6A43F010027B689A627B6852
:1031B000DB6A43F001027B68DA62012307E07B6887
:1031C0001B689B6803F00103012BDCD00023184629
:1031D0001037BD4680BD000080B485B000AF786078
:1031E0007B6803F00703FB600C4BDB68BB60BA68CD
:1031F0004FF6FF031340BB60FB681A02BB68134322
:1032000043F0BF6343F40033BB60044ABB68D36040
:1032100000BF1437BD4680BC704700BF00ED00E022
:1032200080B400AF044BDB681B0A03F007031846A9
:10323000BD4680BC704700BF00ED00E080B483B0A5
:1032400000AF0346FB7197F90730002B0BDBFB79CE
:1032500003F01F02064997F907305B09012000FAC5
:1032600002F241F8232000BF0C37BD4680BC7047F6
:1032700000E100E080B483B000AF03463960FB7129
:1032800097F90730002B0ADB3B68DAB20C4997F953
:1032900007301201D2B20B4483F800230AE03B68E6
:1032A000DAB20849FB7903F00F03043B1201D2B2F2
:1032B0000B441A7600BF0C37BD4680BC704700BF78
:1032C00000E100E000ED00E080B489B000AFF860FC
:1032D000B9607A60FB6803F00703FB61FB69C3F127
:1032E0000703042B28BF0423BB61FB690433062BAF
:1032F00002D9FB69033B00E000237B614FF0FF3202
:10330000BB6902FA03F3DA43BB681A407B699A404F
:103310004FF0FF317B6901FA03F3D9437B680B401F
:10332000134318462437BD4680BC704780B582B031
:1033300000AF78607B68013BB3F1807F01D301234C
:103340000FE00A4A7B68013B53600F214FF0FF30CA
:10335000FFF790FF054B00229A60044B07221A608A
:10336000002318460837BD4680BD00BF10E000E0CE
:1033700080B582B000AF78607868FFF72DFF00BF9E
:103380000837BD4680BD80B586B000AF0346B96042
:103390007A60FB7300237B61FFF742FF78617A68F4
:1033A000B9687869FFF790FF024697F90F30114628
:1033B0001846FFF75FFF00BF1837BD4680BD80B5D8
:1033C00082B000AF0346FB7197F907301846FFF74C
:1033D00035FF00BF0837BD4680BD80B582B000AF65
:1033E00078607868FFF7A2FF034618460837BD46A5
:1033F00080BD000080B485B000AF78600023FB6022
:103400007B68002B01D1012343E07B681B681A46CF
:10341000224B1344224AA2FB03231B099A007B6818
:103420001A647B681F4ADA637B68022283F82120D2
:103430007B681B681B68FB60FB6823F47F5323F0E9
:103440003003FB607B685A687B689B681A437B6823
:10345000DB681A437B681B691A437B685B691A4304
:103460007B689B691A437B68DB691343FA681343E3
:10347000FB607B681B68FA681A607B6800229A63AD
:103480007B68012283F821207B68002283F82020BA
:10349000002318461437BD4680BC7047F8FFFDBFB7
:1034A000CDCCCCCC0000024080B584B000AF7860B9
:1034B0007B68DB6B1B68FB607B681B681B68BB6001
:1034C0007B681B6C04229A40FB681340002B4FD092
:1034D000BB6803F00403002B4AD07B681B681B68A1
:1034E00003F02003002B07D17B681B681A687B68F8
:1034F0001B6822F004021A607B681B68664A9342CC
:1035000029D07B681B68654A934222D07B681B6880
:10351000634A93421AD07B681B68624A934212D076
:103520007B681B68604A93420AD07B681B685F4ACD
:10353000934202D14FF480030EE04FF080630BE022
:103540004FF4802308E04FF4804305E04FF480639C
:1035500002E0402300E00423554A53607B68DB6AA5
:10356000002B00F094807B68DB6A786898478EE0D7
:103570007B681B6C02229A40FB681340002B56D0DC
:10358000BB6803F00203002B51D07B681B681B68EB
:1035900003F02003002B0BD17B681B681A687B6843
:1035A0001B6822F00A021A607B68012283F821203E
:1035B0007B681B68384A934229D07B681B68374A6E
:1035C000934222D07B681B68354A93421AD07B68AD
:1035D0001B68344A934212D07B681B68324A93427C
:1035E0000AD07B681B68314A934202D14FF4001322
:1035F0000EE04FF000730BE04FF4003308E04FF49F
:10360000005305E04FF4007302E0202300E00223A2
:10361000274A53607B68002283F820207B689B6ADE
:10362000002B34D07B689B6A786898472FE07B68D2
:103630001B6C08229A40FB681340002B28D0BB6803
:1036400003F00803002B23D07B681B681A687B6893
:103650001B6822F00E021A607B681A6C7B68DB6BB9
:10366000012101FA02F25A607B6801229A637B68A9
:10367000012283F821207B68002283F820207B68C8
:103680001B6B002B04D07B681B6B7868984700BFCE
:1036900000BF1037BD4680BD080002401C0002403C
:1036A0003000024044000240580002406C000240DA
:1036B0000000024080B48BB000AF78603960002316
:1036C0007B6200233B6269E101227B6A02FA03F319
:1036D000FB613B681B68FA691340BB61BA69FB690F
:1036E0009A4240F058813B685B689A4A93425ED0A8
:1036F000984A934275D8984A934258D0964A934232
:103700006FD8964A934252D0944A934269D8944AC9
:1037100093424CD0924A934263D8924A934246D005
:10372000904A93425DD8122B2AD8122B59D801A265
:1037300052F823F0AF370008893700089B3700089C
:10374000DD370008E3370008E3370008E3370008F7
:10375000E3370008E3370008E3370008E3370008E1
:10376000E3370008E3370008E3370008E3370008D1
:10377000E3370008E337000891370008A537000851
:10378000794A934213D02CE03B68DB683B6229E026
:103790003B68DB6804333B6224E03B68DB6808334A
:1037A0003B621FE03B68DB680C333B621AE03B681E
:1037B0009B68002B02D104233B6213E03B689B68AB
:1037C000012B05D108233B627B68FA691A6109E085
:1037D00008233B627B68FA695A6103E000233B627D
:1037E00000E000BFBB69FF2B01D87B6801E07B686C
:1037F00004337B61BB69FF2B02D87B6A9B0002E02C
:103800007B6A083B9B003B617B691A680F213B691F
:1038100001FA03F3DB431A40396A3B6901FA03F307
:103820001A437B691A603B685B6803F08053002B86
:1038300000F0B1804D4B9B694C4A43F0010393610A
:103840004A4B9B6903F00103BB60BB68484A7B6A33
:103850009B08023352F82330FB607B6A03F00303BA
:103860009B000F2202FA03F3DB43FA681340FB606C
:103870007B68404A934213D07B683F4A93420DD005
:103880007B683E4A934207D07B683D4A934201D110
:10389000032306E0042304E0022302E0012300E006
:1038A00000237A6A02F0030292009340FA681343FD
:1038B000FB602F497B6A9B080233FA6841F823209A
:1038C0003B685B6803F48013002B06D02D4B9A688D
:1038D0002C49BB6913438B6006E02A4B9A68BB698D
:1038E000DB43284913408B603B685B6803F400139B
:1038F000002B06D0234BDA682249BB691343CB6007
:1039000006E0204BDA68BB69DB431E491340CB60FD
:103910003B685B6803F40033002B06D0194B5A68F0
:103920001849BB6913434B6006E0164B5A68BB69E4
:10393000DB43144913404B603B685B6803F48033FE
:10394000002B21D00F4B1A680E49BB6913430B6043
:1039500021E000BF000032100000311000002210F2
:103960000000211000001210000011100010024091
:103970000000014000080140000C0140001001401F
:1039800000140140000401400B4B1A68BB69DB4383
:10399000094913400B607B6A01337B623B681A68FC
:1039A0007B6A22FA03F3002B7FF48EAE00BF00BFC8
:1039B0002C37BD4680BC70470004014080B485B000
:1039C00000AF78600B467B807B689A687B881340E9
:1039D000002B02D00123FB7301E00023FB73FB7B70
:1039E00018461437BD4680BC704780B483B000AF22
:1039F00078600B467B8013467B707B78002B03D06E
:103A00007A887B681A6103E07B881A047B681A61F4
:103A100000BF0C37BD4680BC704780B485B000AF96
:103A200078600B467B807B68DB68FB607A88FB688C
:103A300013401A04FB68D9437B880B401A437B6808
:103A40001A6100BF1437BD4680BC704780B586B090
:103A500000AF78607B68002B01D1012372E27B68A4
:103A60001B6803F00103002B00F08780924B5B681A
:103A700003F00C03042B0CD08F4B5B6803F00C039A
:103A8000082B12D18C4B5B6803F48033B3F5803F75
:103A90000BD1894B1B6803F40033002B6CD07B687F
:103AA0005B68002B68D101234CE27B685B68B3F54F
:103AB000803F06D1804B1B687F4A43F480331360FC
:103AC0002EE07B685B68002B0CD17B4B1B687A4A2D
:103AD00023F480331360784B1B68774A23F48023E8
:103AE00013601DE07B685B68B3F5A02F0CD1724BAF
:103AF0001B68714A43F4802313606F4B1B686E4A46
:103B000043F4803313600BE06B4B1B686A4A23F469
:103B100080331360684B1B68674A23F4802313606B
:103B20007B685B68002B13D0FEF7D0FE386108E09D
:103B3000FEF7CCFE02463B69D31A642B01D903235E
:103B400000E25D4B1B6803F40033002BF0D014E05F
:103B5000FEF7BCFE386108E0FEF7B8FE02463B699E
:103B6000D31A642B01D90323ECE1534B1B6803F4F4
:103B70000033002BF0D100E000BF7B681B6803F02E
:103B80000203002B63D04C4B5B6803F00C03002B4B
:103B90000BD0494B5B6803F00C03082B1CD1464B40
:103BA0005B6803F48033002B16D1434B1B6803F092
:103BB0000203002B05D07B681B69012B01D0012378
:103BC000C0E13D4B1B6823F0F8027B685B69DB00BA
:103BD000394913430B603AE07B681B69002B20D006
:103BE000364B01221A60FEF771FE386108E0FEF7DD
:103BF0006DFE02463B69D31A022B01D90323A1E1D2
:103C00002D4B1B6803F00203002BF0D02A4B1B68DE
:103C100023F0F8027B685B69DB00274913430B60E4
:103C200015E0264B00221A60FEF750FE386108E0CE
:103C3000FEF74CFE02463B69D31A022B01D903233F
:103C400080E11D4B1B6803F00203002BF0D17B6861
:103C50001B6803F00803002B3AD07B689B69002B9C
:103C600019D0174B01221A60FEF730FE386108E0C8
:103C7000FEF72CFE02463B69D31A022B01D903231F
:103C800060E10D4B5B6A03F00203002BF0D00120D2
:103C900000F0BAFA1CE00A4B00221A60FEF716FE8A
:103CA00038610FE0FEF712FE02463B69D31A022B81
:103CB00008D9032346E100BF001002400000424241
:103CC00080044242924B5B6A03F00203002BE9D16D
:103CD0007B681B6803F00403002B00F0A680002320
:103CE000FB758B4BDB6903F08053002B0DD1884BA8
:103CF000DB69874A43F08053D361854BDB6903F06E
:103D00008053BB60BB680123FB75824B1B6803F4C7
:103D10008073002B18D17F4B1B687E4A43F480735D
:103D20001360FEF7D3FD386108E0FEF7CFFD0246D1
:103D30003B69D31A642B01D9032303E1754B1B683C
:103D400003F48073002BF0D07B68DB68012B06D175
:103D50006F4B1B6A6E4A43F0010313622DE07B68D0
:103D6000DB68002B0CD16A4B1B6A694A23F0010304
:103D70001362674B1B6A664A23F0040313621CE05C
:103D80007B68DB68052B0CD1614B1B6A604A43F0F2
:103D9000040313625E4B1B6A5D4A43F00103136226
:103DA0000BE05B4B1B6A5A4A23F001031362584B2A
:103DB0001B6A574A23F0040313627B68DB68002BFD
:103DC00015D0FEF783FD38610AE0FEF77FFD02465D
:103DD0003B69D31A41F28832934201D90323B1E0FF
:103DE0004B4B1B6A03F00203002BEED014E0FEF7EE
:103DF0006DFD38610AE0FEF769FD02463B69D31AA2
:103E000041F28832934201D903239BE0404B1B6A65
:103E100003F00203002BEED1FB7D012B05D13C4BBF
:103E2000DB693B4A23F08053D3617B68DB69002B5D
:103E300000F08780364B5B6803F00C03082B61D0E1
:103E40007B68DB69022B46D1334B00221A60FEF7F8
:103E50003DFD386108E0FEF739FD02463B69D31AA3
:103E6000022B01D903236DE0294B1B6803F000737B
:103E7000002BF0D17B681B6AB3F5803F08D1244B3F
:103E80005B6823F400327B689B68214913434B60D5
:103E90001F4B5B6823F474127B68196A7B685B6A4A
:103EA0000B431B4913434B601B4B01221A60FEF767
:103EB0000DFD386108E0FEF709FD02463B69D31AA3
:103EC000022B01D903233DE0114B1B6803F0007363
:103ED000002BF0D035E0104B00221A60FEF7F6FC04
:103EE000386108E0FEF7F2FC02463B69D31A022B68
:103EF00001D9032326E0064B1B6803F00073002B57
:103F0000F0D11EE07B68DB69012B07D1012319E0AA
:103F10000010024000700040600042420B4B5B68A2
:103F2000FB60FB6803F480327B681B6A9A4206D10F
:103F3000FB6803F470127B685B6A9A4201D001232C
:103F400000E0002318461837BD4680BD001002402F
:103F500080B584B000AF786039607B68002B01D1F8
:103F60000123D0E06A4B1B6803F007033A689A42CA
:103F700010D9674B1B6823F0070265493B68134360
:103F80000B60634B1B6803F007033A689A4201D049
:103F90000123B8E07B681B6803F00203002B20D0EC
:103FA0007B681B6803F00403002B05D0594B5B684A
:103FB000584A43F4E06353607B681B6803F00803CE
:103FC000002B05D0534B5B68524A43F46053536057
:103FD000504B5B6823F0F0027B689B684D491343AC
:103FE0004B607B681B6803F00103002B40D07B68AB
:103FF0005B68012B07D1474B1B6803F40033002B90
:1040000015D101237FE07B685B68022B07D1414B10
:104010001B6803F00073002B09D1012373E03D4BB3
:104020001B6803F00203002B01D101236BE0394B25
:104030005B6823F003027B685B68364913434B607F
:10404000FEF744FCF8600AE0FEF740FC0246FB681D
:10405000D31A41F28832934201D9032353E02D4B06
:104060005B6803F00C027B685B689B009A42EBD1B3
:10407000274B1B6803F007033A689A4210D2244B7F
:104080001B6823F0070222493B6813430B60204B57
:104090001B6803F007033A689A4201D0012332E01B
:1040A0007B681B6803F00403002B08D0194B5B6886
:1040B00023F4E0627B68DB68164913434B607B683E
:1040C0001B6803F00803002B09D0124B5B6823F434
:1040D00060527B681B69DB000E4913434B6000F0A4
:1040E00021F802460B4B5B681B0903F00F030A49DA
:1040F000CB5C22FA03F3094A1360094B1B6818468C
:10410000FEF7A2FB002318461037BD4680BD00BF56
:104110000020024000100240D09600080800002055
:104120000C00002080B487B000AF0023FB600023A8
:10413000BB6000237B6100237B6000233B611E4B3F
:104140005B68FB60FB6803F00C03042B02D0082BB8
:1041500003D027E0194B3B6127E0FB689B0C03F081
:104160000F03174AD35C7B60FB6803F48033002B9A
:1041700010D0114B5B685B0C03F00103114AD35C58
:10418000BB607B680D4A03FB02F2BB68B2FBF3F332
:104190007B6104E07B680C4A02FB03F37B617B6973
:1041A0003B6102E0054B3B6100BF3B6918461C3791
:1041B000BD4680BC704700BF0010024000127A006C
:1041C000E8960008F896000800093D0080B400AFAA
:1041D000024B1B681846BD4680BC70470800002093
:1041E00080B500AFFFF7F2FF0246054B5B68DB0AC4
:1041F00003F007030349CB5C22FA03F3184680BDA2
:1042000000100240E096000880B485B000AF7860EE
:104210000A4B1B680A4AA2FB03235B0A7A6802FB6B
:1042200003F3FB6000BFFB685A1EFA60002BF9D154
:1042300000BF00BF1437BD4680BC70470800002097
:10424000D34D621080B586B000AF786000233B612B
:104250000023FB607B681B6803F00103002B7DD00B
:104260000023FB754F4BDB6903F08053002B0DD10E
:104270004C4BDB694B4A43F08053D361494BDB69BC
:1042800003F08053BB60BB680123FB75464B1B6882
:1042900003F48073002B18D1434B1B68424A43F44C
:1042A00080731360FEF712FB386108E0FEF70EFB27
:1042B00002463B69D31A642B01D903236DE03A4BC4
:1042C0001B6803F48073002BF0D0364B1B6A03F499
:1042D0004073FB60FB68002B2ED07B685B6803F4A7
:1042E0004073FA689A4227D02E4B1B6A23F440731E
:1042F000FB602E4B01221A602C4B00221A60294AC7
:10430000FB681362FB6803F00103002B14D0FEF777
:10431000DDFA38610AE0FEF7D9FA02463B69D31AA2
:1043200041F28832934201D9032336E01D4B1B6AC8
:1043300003F00203002BEED01A4B1B6A23F44072E9
:104340007B685B68174913430B62FB7D012B05D12A
:10435000144BDB69134A23F08053D3617B681B68DD
:1043600003F00203002B08D00E4B5B6823F440429D
:104370007B689B680B4913434B607B681B6803F0A9
:104380001003002B08D0074B5B6823F480027B6886
:10439000DB68044913434B60002318461837BD46B9
:1043A00080BD00BF00100240007000404004424247
:1043B00080B588B000AF786000237B610023FB618B
:1043C00000233B610023FB600023BB617B68102B53
:1043D0000AD07B68102B00F28A807B68012B45D0C5
:1043E0007B68022B75D082E0464B5B68FB60454BD7
:1043F0001B6803F08073002B7BD0FB689B0C03F0E1
:104400000F03414AD35C3B61FB6803F48033002B0C
:1044100015D03C4B5B685B0C03F001033B4AD35C5B
:104420007B61FB6803F48033002B0DD0384A7B6935
:10443000B2FBF3F23B6902FB03F3FB6104E03B696F
:10444000344A02FB03F3FB612E4B5B6803F48003E9
:10445000B3F5800F02D1FB69BB614AE0FB695B00E9
:104460002D4AA2FB03235B08BB6142E0254B1B6A7C
:10447000FB60FB6803F44073B3F5807F08D1FB68F1
:1044800003F00203002B03D04FF40043BB611FE095
:10449000FB6803F44073B3F5007F09D1194B5B6AE5
:1044A00003F00203002B03D049F64043BB610FE049
:1044B000FB6803F44073B3F5407F1CD1114B1B68BC
:1044C00003F40033002B16D04FF22443BB6112E0FB
:1044D00011E0FFF785FE02460A4B5B689B0B03F079
:1044E000030301335B00B2FBF3F3BB6104E000BFE5
:1044F00002E000BF00E000BFBB6918462037BD46A0
:1045000080BD00BF00100240FC9600080C97000818
:1045100000127A0000093D00ABAAAAAA80B582B0B9
:1045200000AF78607B68002B01D1012341E07B68FC
:1045300093F83D30DBB2002B06D17B68002283F874
:104540003C207868FDF7CEFF7B68022283F83D208F
:104550007B681A687B6804331946104600F030FC0B
:104560007B68012283F846207B68012283F83E2085
:104570007B68012283F83F207B68012283F840207A
:104580007B68012283F841207B68012283F8422066
:104590007B68012283F843207B68012283F8442052
:1045A0007B68012283F845207B68012283F83D2047
:1045B000002318460837BD4680BD000080B485B092
:1045C00000AF78607B6893F83D30DBB2012B01D0FF
:1045D00001233AE07B68022283F83D207B681B6858
:1045E000DA687B681B6842F00102DA607B681B684E
:1045F000184A93420ED07B681B68B3F1804F09D0F4
:104600007B681B68144A934204D07B681B68134A7A
:10461000934211D17B681B689B6803F00703FB6022
:10462000FB68062B10D07B681B681A687B681B68C8
:1046300042F001021A6007E07B681B681A687B6819
:104640001B6842F001021A60002318461437BD4669
:1046500080BC7047002C014000040040000800406E
:1046600080B582B000AF78607B68002B01D1012358
:1046700041E07B6893F83D30DBB2002B06D17B68CC
:10468000002283F83C20786800F039F87B68022229
:1046900083F83D207B681A687B680433194610460E
:1046A00000F08EFB7B68012283F846207B680122A4
:1046B00083F83E207B68012283F83F207B6801223B
:1046C00083F840207B68012283F841207B68012227
:1046D00083F842207B68012283F843207B68012213
:1046E00083F844207B68012283F845207B680122FF
:1046F00083F83D20002318460837BD4680BD80B4AE
:1047000083B000AF786000BF0C37BD4680BC7047F7
:1047100080B584B000AF786039603B68002B09D168
:104720007B6893F83E30DBB2012B14BF01230023DA
:10473000DBB222E03B68042B09D17B6893F83F3061
:10474000DBB2012B14BF01230023DBB215E03B6871
:10475000082B09D17B6893F84030DBB2012B14BFE2
:1047600001230023DBB208E07B6893F84130DBB221
:10477000012B14BF01230023DBB2002B01D0012346
:104780005EE03B68002B04D17B68022283F83E2068
:1047900013E03B68042B04D17B68022283F83F209E
:1047A0000BE03B68082B04D17B68022283F8402091
:1047B00003E07B68022283F841207B681B680122AA
:1047C0003968184600F07CFD7B681B681E4A9342DE
:1047D00007D17B681B685A6C7B681B6842F40042F7
:1047E0005A647B681B68184A93420ED07B681B682A
:1047F000B3F1804F09D07B681B68144A934204D000
:104800007B681B68124A934211D17B681B689B68C6
:1048100003F00703FB60FB68062B10D07B681B6866
:104820001A687B681B6842F001021A6007E07B6827
:104830001B681A687B681B6842F001021A6000233B
:1048400018461037BD4680BD002C014000040040D2
:104850000008004080B582B000AF78607B681B68BC
:104860001B6903F00203022B22D17B681B68DB6803
:1048700003F00203022B1BD17B681B686FF002025E
:104880001A617B6801221A777B681B689B6903F0B9
:104890000303002B03D0786800F076FA05E078680F
:1048A00000F069FA786800F078FA7B6800221A77DD
:1048B0007B681B681B6903F00403042B22D17B680F
:1048C0001B68DB6803F00403042B1BD17B681B68A7
:1048D0006FF004021A617B6802221A777B681B68FA
:1048E0009B6903F44073002B03D0786800F04CFA06
:1048F00005E0786800F03FFA786800F04EFA7B68CF
:1049000000221A777B681B681B6903F00803082BD9
:1049100022D17B681B68DB6803F00803082B1BD1DE
:104920007B681B686FF008021A617B6804221A77A3
:104930007B681B68DB6903F00303002B03D07868F6
:1049400000F022FA05E0786800F015FA786800F0C7
:1049500024FA7B6800221A777B681B681B6903F0C6
:104960001003102B22D17B681B68DB6803F0100357
:10497000102B1BD17B681B686FF010021A617B68DB
:1049800008221A777B681B68DB6903F44073002BED
:1049900003D0786800F0F8F905E0786800F0EBF9EA
:1049A000786800F0FAF97B6800221A777B681B6848
:1049B0001B6903F00103012B0ED17B681B68DB68C8
:1049C00003F00103012B07D17B681B686FF0010224
:1049D0001A617868FDF75CF87B681B681B6903F057
:1049E0008003802B0ED17B681B68DB6803F080039B
:1049F000802B07D17B681B686FF080021A61786892
:104A000000F0E9FC7B681B681B6903F04003402B46
:104A10000ED17B681B68DB6803F04003402B07D195
:104A20007B681B686FF040021A61786800F0BEF97D
:104A30007B681B681B6903F02003202B0ED17B6869
:104A40001B68DB6803F02003202B07D17B681B6801
:104A50006FF020021A61786800F0B4FC00BF0837DC
:104A6000BD4680BD80B586B000AFF860B9607A60A1
:104A70000023FB75FB6893F83C30012B01D1022326
:104A8000AEE0FB68012283F83C207B680C2B00F22F
:104A90009F8001A252F823F0CD4A0008D14B0008B4
:104AA000D14B0008D14B00080D4B0008D14B00083A
:104AB000D14B0008D14B00084F4B0008D14B0008E8
:104AC000D14B0008D14B00088F4B0008FB681B68D6
:104AD000B968184600F0D6F9FB681B689A69FB684C
:104AE0001B6842F008029A61FB681B689A69FB68C0
:104AF0001B6822F004029A61FB681B689969BB6815
:104B00001A69FB681B680A439A6164E0FB681B68CA
:104B1000B968184600F01CFAFB681B689A69FB68C4
:104B20001B6842F400629A61FB681B689A69FB6823
:104B30001B6822F480629A61FB681B689969BB68F4
:104B40001B691A02FB681B680A439A6143E0FB6811
:104B50001B68B968184600F065FAFB681B68DA69DB
:104B6000FB681B6842F00802DA61FB681B68DA69BF
:104B7000FB681B6822F00402DA61FB681B68D969D4
:104B8000BB681A69FB681B680A43DA6123E0FB68AB
:104B90001B68B968184600F0AFFAFB681B68DA6951
:104BA000FB681B6842F40062DA61FB681B68DA6923
:104BB000FB681B6822F48062DA61FB681B68D969B4
:104BC000BB681B691A02FB681B680A43DA6102E0D2
:104BD0000123FB7500BFFB68002283F83C20FB7DAE
:104BE00018461837BD4680BD80B584B000AF7860E8
:104BF00039600023FB737B6893F83C30012B01D1B3
:104C00000223B4E07B68012283F83C207B68022207
:104C100083F83D207B681B689B68BB60BB6823F002
:104C20007703BB60BB6823F47F43BB607B681B6872
:104C3000BA689A603B681B68B3F5005F3ED0B3F575
:104C4000005F00F28780B3F5805F00F08680B3F5E7
:104C5000805F7FD8702B1AD0702B7BD8602B50D000
:104C6000602B77D8502B3CD0502B73D8402B58D08A
:104C7000402B6FD8302B64D0302B6BD8202B60D0DA
:104C8000202B67D8002B5CD0102B5AD062E07B68B9
:104C900018683B6899683B685A683B68DB6800F0B5
:104CA000F0FA7B681B689B68BB60BB6843F07703C6
:104CB000BB607B681B68BA689A604FE07B681868C5
:104CC0003B6899683B685A683B68DB6800F0D9FA32
:104CD0007B681B689A687B681B6842F480429A6014
:104CE0003CE07B6818683B6859683B68DB681A469B
:104CF00000F050FA7B681B685021184600F0A7FAB4
:104D00002CE07B6818683B6859683B68DB681A468A
:104D100000F06EFA7B681B686021184600F097FA75
:104D20001CE07B6818683B6859683B68DB681A467A
:104D300000F030FA7B681B684021184600F087FAC3
:104D40000CE07B681A683B681B681946104600F047
:104D50007EFA03E00123FB7300E000BF7B680122C1
:104D600083F83D207B68002283F83C20FB7B1846BB
:104D70001037BD4680BD80B483B000AF786000BFFF
:104D80000C37BD4680BC704780B483B000AF7860FC
:104D900000BF0C37BD4680BC704780B483B000AF05
:104DA000786000BF0C37BD4680BC704780B483B0CC
:104DB00000AF786000BF0C37BD4680BC7047000074
:104DC00080B485B000AF786039607B681B68FB6099
:104DD0007B68294A93420BD07B68B3F1804F07D0A0
:104DE0007B68264A934203D07B68254A934208D1C8
:104DF000FB6823F07003FB603B685B68FA68134351
:104E0000FB607B681C4A93420BD07B68B3F1804FF8
:104E100007D07B68194A934203D07B68184A9342B3
:104E200008D1FB6823F44073FB603B68DB68FA68D9
:104E30001343FB60FB6823F080023B685B6913430C
:104E4000FB607B68FA681A603B689A687B68DA6284
:104E50003B681A687B689A627B68074A934203D171
:104E60003B681A697B681A637B6801225A6100BF3C
:104E70001437BD4680BC7047002C01400004004040
:104E80000008004080B487B000AF786039607B686C
:104E90001B6A7B617B681B6A23F001027B681A62D4
:104EA0007B685B683B617B689B69FB60FB6823F008
:104EB0007003FB60FB6823F00303FB603B681B6827
:104EC000FA681343FB607B6923F002037B613B6854
:104ED0009B687A6913437B617B681C4A93420CD1BF
:104EE0007B6923F008037B613B68DB687A691343C5
:104EF0007B617B6923F004037B617B68134A9342E7
:104F000011D13B6923F480733B613B6923F4007347
:104F10003B613B685B693A6913433B613B689B6952
:104F20003A6913433B617B683A695A607B68FA6867
:104F30009A613B685A687B685A637B687A691A622F
:104F400000BF1C37BD4680BC704700BF002C01402D
:104F500080B487B000AF786039607B681B6A7B6182
:104F60007B681B6A23F010027B681A627B685B68AF
:104F70003B617B689B69FB60FB6823F4E043FB605B
:104F8000FB6823F44073FB603B681B681B02FA68F4
:104F90001343FB607B6923F020037B613B689B68C4
:104FA0001B017A6913437B617B681D4A93420DD1D3
:104FB0007B6923F080037B613B68DB681B017A69B6
:104FC00013437B617B6923F040037B617B68144A58
:104FD000934213D13B6923F480633B613B6923F423
:104FE00000633B613B685B699B003A6913433B612B
:104FF0003B689B699B003A6913433B617B683A6954
:105000005A607B68FA689A613B685A687B689A6361
:105010007B687A691A6200BF1C37BD4680BC704746
:10502000002C014080B487B000AF786039607B68A5
:105030001B6A7B617B681B6A23F480727B681A623F
:105040007B685B683B617B68DB69FB60FB6823F026
:105050007003FB60FB6823F00303FB603B681B6885
:10506000FA681343FB607B6923F400737B613B6840
:105070009B681B027A6913437B617B681D4A9342DC
:105080000DD17B6923F400637B613B68DB681B0205
:105090007A6913437B617B6923F480637B617B685E
:1050A000144A934213D13B6923F480533B613B691B
:1050B00023F400533B613B685B691B013A6913436E
:1050C0003B613B689B691B013A6913433B617B6809
:1050D0003A695A607B68FA68DA613B685A687B68AB
:1050E000DA637B687A691A6200BF1C37BD4680BCF0
:1050F000704700BF002C014080B487B000AF7860DB
:1051000039607B681B6A3B617B681B6A23F48052B1
:105110007B681A627B685B687B617B68DB69FB602C
:10512000FB6823F4E043FB60FB6823F44073FB60FF
:105130003B681B681B02FA681343FB603B6923F45E
:1051400000533B613B689B681B033A6913433B6117
:105150007B680F4A934209D17B6923F480437B61CA
:105160003B685B699B017A6913437B617B687A6961
:105170005A607B68FA68DA613B685A687B681A642F
:105180007B683A691A6200BF1C37BD4680BC704715
:10519000002C014080B487B000AFF860B9607A603D
:1051A000FB681B6A7B61FB681B6A23F00102FB68DA
:1051B0001A62FB689B693B613B6923F0F0033B612A
:1051C0007B681B013A6913433B617B6923F00A0347
:1051D0007B617A69BB6813437B61FB683A699A61BA
:1051E000FB687A691A6200BF1C37BD4680BC7047F5
:1051F00080B487B000AFF860B9607A60FB681B6A62
:105200007B61FB681B6A23F01002FB681A62FB6873
:105210009B693B613B6923F470433B617B681B03E3
:105220003A6913433B617B6923F0A0037B61BB6850
:105230001B017A6913437B61FB683A699A61FB68D9
:105240007A691A6200BF1C37BD4680BC704780B4C3
:1052500085B000AF786039607B689B68FB60FB6855
:1052600023F07003FB603A68FB68134343F00703C5
:10527000FB607B68FA689A6000BF1437BD4680BC4B
:10528000704780B487B000AFF860B9607A603B6067
:10529000FB689B687B617B6923F47F437B613B6890
:1052A0001A027B681A43BB6813437A6913437B6114
:1052B000FB687A699A6000BF1C37BD4680BC7047A6
:1052C00080B487B000AFF860B9607A60BB6803F063
:1052D0001F03012202FA03F37B61FB681A6A7B69F0
:1052E000DB431A40FB681A62FB681A6ABB6803F06A
:1052F0001F03796801FA03F31A43FB681A6200BFBF
:105300001C37BD4680BC704780B485B000AF786064
:1053100039607B6893F83C30012B01D1022346E0D1
:105320007B68012283F83C207B68022283F83D20C1
:105330007B681B685B68FB607B681B689B68BB6065
:10534000FB6823F07003FB603B681B68FA6813433B
:10535000FB607B681B68FA685A607B681B68164AAA
:1053600093420ED07B681B68B3F1804F09D07B68F5
:105370001B68124A934204D07B681B68104A934210
:105380000CD1BB6823F08003BB603B685B68BA68E4
:105390001343BB607B681B68BA689A607B68012214
:1053A00083F83D207B68002283F83C2000231846C8
:1053B0001437BD4680BC7047002C014000040040FB
:1053C0000008004080B483B000AF786000BF0C37A5
:1053D000BD4680BC704780B483B000AF786000BF2A
:1053E0000C37BD4680BC7047002100F0F9BD2DE9A7
:1053F000F0410F46904603F043FA04460D46B8F1DB
:10540000000F11D0C7F30A53C3F16B03002B0BDD60
:1054100000241B0503F17F5505F5401522462B4658
:10542000FBF75AF804460D4620462946BDE8F081B0
:105430002DE9F04F9FB0179200220C461A924FF0C0
:10544000000A4FF0000B0A460590199211782B299B
:1054500048D036D80D2930D8082930D8002939D07D
:1054600000220B92199D2A78302A40F0B1806A7888
:1054700002F0DF02582A6CD102930B9B8E4A0193F3
:105480001AAB009305981BAB19A902F0EDFA10F0C6
:105490000F06044605D0062E26D1002301351995A6
:1054A0000B93179B002B40F084850B9BBBB15046A0
:1054B0000BF100411FB0BDE8F08F2029D0D101329F
:1054C000C3E72D29CCD101210B91511C19915278A0
:1054D000002AC7D1179B1994002B40F068855046CD
:1054E0005946E7E70021EFE71A9A3AB135211CA89F
:1054F00003F0B6FA1A99059802F090FE013E1B9A45
:10550000042E06D8DFE806F014031D201400DDE9A0
:105510001CABE10548BF4BF0004B2BF000431B0DCB
:105520001B05002BBDD101F04DFB22230360B8E722
:1055300002F23342DDE91CA323F4801343EA025B49
:10554000E7E7DFF878B1E4E76FF0004B4FF0FF3AA0
:10555000DFE7199B5A1C19925B78302BF9D0002B8E
:105560009FD001230993199B0A220C9300231F4605
:1055700008930A9319980578A5F13003D9B209293F
:1055800028D901224E4901F0C0FA002832D000206B
:105590002A4681463D460346652A01D0452A14D154
:1055A0001DB9099A024395D00025199C621C1992D5
:1055B00062782B2A77D02D2A7BD04FF0000CA2F1F5
:1055C0003001092940F2828019944FF00008A2E0CE
:1055D0000023C7E7082FD5BF0A99089902FB0133BA
:1055E00002FB013300F10100D4BF0A930893013795
:1055F0001990BFE7199B5A1C19925A787FB38146BC
:105600003D46A2F13003092B12D90123C4E7199BAF
:1056100001305A1C19925A78302AF8D0A2F131037D
:10562000082B00F2CB84814600200546199B0C9381
:10563000303A00F101032AD099440A212B4600EBAD
:10564000050C63450DD1691C01442844082816DC6B
:105650000A230A9803FB00230A93002318E0384624
:10566000DAE7082B03F1010303DC0A9E4E430A9696
:10567000E7E7102BDEBF089E4E430896E1E70F28B0
:10568000EBDC0A23089803FB00230893E5E729468F
:10569000199A0D46501C199052781846B1E74FF0F0
:1056A000000901237DE74FF0000CA21C1992A2789B
:1056B00085E74FF0010CF8E7249700080000F07F21
:1056C0000E970008199A511C19915278302AF9D076
:1056D000A2F1310108293FF678AF4FF00A08303ABD
:1056E0000E92199A0F92199A561C19965278A2F195
:1056F000300EBEF1090F39D90F9944F61F68761A9A
:10570000082E03DC0E998845A8BF8846BCF1000F1F
:1057100001D0C8F10008002D4ED1099908437FF44B
:10572000C0AE002B7FF4D6AE692A28D025DC492AEA
:1057300025D04E2A7FF4CEAE9A4919A802F0B6FBC6
:1057400000283FF4C7AE199B1B78282B2ED1964911
:105750001CAA19A802F0BEFB052827D11D9BDDF865
:1057600070A043F0FF4B4BF4E00B9AE60E9908FB58
:105770000121A1F130020E92B5E76E2ADAE78B49DA
:1057800019A802F093FB00283FF4A4AE199B8849A6
:10579000013B19A8199302F089FB10B9199B013339
:1057A00019934FF0000ADFF80CB27AE6824801F054
:1057B00053FA82468B4674E6A8EB0903002F08BF14
:1057C0002F460A98102D2C460993A8BF1024FAF7EB
:1057D00009FE092D82468B4611DC099B002B3FF404
:1057E00060AE099B76DD162B5DDC7449524601EBF9
:1057F000C3015B46D1E90001FAF76EFED9E76F4BB2
:1058000003EBC40353E91223FAF766FE82460898B5
:105810008B46FAF7E7FD02460B4650465946FAF723
:10582000A5FC0F2D82468B46D7DD099B2C1B1C4403
:10583000002C40F3968014F00F030AD05F495246C3
:1058400001EBC301D1E900015B46FAF745FE824650
:105850008B4634F00F0473D0B4F59A7F48DD0024F2
:10586000A046A1460A9422234FF0000A059ADFF8C9
:1058700044B113600A9B002B3FF413AE1A990598AC
:1058800002F0CCFC4946059802F0C8FC4146059858
:1058900002F0C4FC0A99059802F0C0FC2146059864
:1058A00002F0BCFCFDE5099AC5F125039342BCDB7F
:1058B000424CC5F10F0504EBC5015246D1E9000188
:1058C0005B46FAF709FE099B5D1B04EBC504D4E9AE
:1058D000002391E71633A8DB384BA9EB080803EB4C
:1058E000C8085046D8E900235946FAF71FFF60E779
:1058F000334B50460893002359461E462411012C71
:1059000021DC0BB182468B462D49ABF1547B01EB78
:10591000C6015246D1E900015B46FAF7DDFD254B91
:105920000A460B40274982468B4298D8A1F5801140
:105930008B4286BF4FF0FF3ADFF88CB002F1547B08
:10594000002308937AE0E20705D5089BD3E90023FA
:10595000FAF7C2FD0123089A013608326410089252
:10596000CDE7EDD0644214F00F020AD0134B50463D
:1059700003EBC2035946D3E90023FAF7D7FE824668
:105980008B462411DCD01F2C20DD0024A046A1462C
:105990000A942223059A4FF0000A4FF0000B13607F
:1059A00068E700BF6D97000810970008659700082A
:1059B0009F9700080000F07F2D9B000818990008B1
:1059C000F09800080000A07CFFFFEF7F14F01003A8
:1059D00018BF6A235046089359460023A94EE20790
:1059E00004D5D6E90023FAF777FD0123641006F108
:1059F0000806F4D10BB182468B46089BB3B1CBF3BA
:105A00000A52C2F16B03002B59460FDD1F2B57DDE5
:105A1000342BD8BF4FF0FF334FF0000ACFBF4FF009
:105A20005C7BC2F14B02934003EA010B002200238E
:105A300050465946FAF7B8FF0028A6D10A9B3A46C5
:105A400000930C992B46059802F050FC0A90002810
:105A50003FF405AF0024099AA9EB0803002AA8BF68
:105A60000023A046129322EAE27316930A9B05983C
:105A7000596802F093FB814600283FF4F4AE0A9B7C
:105A80000C301A6903F10C010232920001F0D5F8D2
:105A90001CAB01931BAB009352465B460598CDE9C6
:105AA0000CAB02F055FF1A9000283FF4DCAE012148
:105AB000059802F0B1FC804648B94FF00008D2E6E4
:105AC0004FF0FF3202FA03F303EA0A0AAEE71B9D26
:105AD0001C9A002DABBF129B169BEF185E1B089BF8
